:020000040800F2
:100000000000082423360008F1270008F327000821
:1000100000000000000000000000000000000000E0
:10002000000000000000000000000000F5270008AC
:100030000000000000000000F7270008C735000896
:10004000D12A0008D32A0008D52A0008D72A000898
:10005000D92A0008DB2A0008DD2A0008DF2A000868
:10006000E12A0008E32A0008E52A0008E72A000838
:10007000E92A0008EB2A0008ED2A0008EF2A000808
:10008000F12A0008F32A0008F52A0008F72A0008D8
:10009000F92A0008FB2A0008FD2A0008FF2A0008A8
:1000A000012B0008032B0008052B0008072B000874
:1000B000092B00080B2B00080D2B00080F2B000844
:1000C000112B0008132B0008152B0008172B000814
:1000D000192B00081B2B00081D2B00081F2B0008E4
:1000E000212B0008232B0008EB2B0008252B0008F0
:1000F000272B0008292B00082B2B00082D2B00088C
:100100002F2B0008312B0008332B0008352B00085B
:10011000372B0008392B00083B2B00083D2B00082B
:100120003F2B0008412B0008432B0008452B0008FB
:10013000472B0008492B00084B2B00084D2B0008CB
:10014000EB2B0008EB2B0008EB2B0008EB2B000837
:100150004F2B0008512B0008532B0008552B00088B
:10016000572B0008592B00085B2B00085D2B00085B
:100170005F2B0008612B0008632B0008652B00082B
:10018000672B0008692B00086B2B00086D2B0008FB
:100190006F2B0008712B0008732B0008752B0008CB
:1001A000772B0008792B00087B2B00087D2B00089B
:1001B0007F2B0008812B0008832B0008852B00086B
:1001C000872B0008892B00088B2B00088D2B00083B
:1001D0008F2B0008912B0008932B0008952B00080B
:1001E000972B0008992B00089B2B00089D2B0008DB
:1001F0009F2B0008A12B0008A32B0008A52B0008AB
:10020000A72B0008A92B0008AB2B0008AD2B00087A
:10021000AF2B0008B12B0008B32B0008B52B00084A
:10022000B72B0008B92B0008BB2B0008EB2B0008EC
:10023000BD2B0008BF2B0008EB2B0008C12B0008CA
:10024000C32B0008C52B0008C72B0008C92B0008CA
:10025000CB2B0008CD2B0008CF2B0008D12B00089A
:10026000D32B0008D52B0008D72B0008D92B00086A
:10027000DB2B0008DD2B0008DF2B0008E12B00083A
:10028000E32B0008E52B0008E72B0008EB2B000808
:08029000EB2B0008E92B00082C
:1002980080B596B044F21040C5F60200006800F040
:1002A800380001460C91182800F22B810C99DFE8E0
:1002B80011F0190028012801280128012801280126
:1002C80028012700280128012801280128012801E0
:1002D80028012D00280128012801280128012801CA
:1002E8002801330044F20040C5F602000068C0F35C
:1002F800C10149F20000C0F2D030C8400F9005E1BA
:1003080040F60010C0F23D000F90FFE047F64000B5
:10031800C0F27D100F90F9E044F22840C5F60200C3
:10032800016801F0030114910068C0F305101390EF
:1003380044F22C40C5F60200006800F0010012905B
:10034800129844F23441C5F60201096889B2C90815
:10035800484300F02DFC0E901398002800F0CE8042
:1003680014980B9030B10B98012839D00B980228BB
:100378005ED085E044F20040C5F602000068C0F394
:10038800C10149F20000C0F2D030C8401190119864
:1003980000F00EFC0890139800F00AFC014608983B
:1003A80000F090FB0A9044F23040C5F60200006865
:1003B8006FF35F2000F0FCFB09900E984FF08C4122
:1003C80000F080FB0146099800F092FA4FF07E5148
:1003D80000F08EFA01460A9800F012FB0D9076E0C4
:1003E800139800F0E5FB014642F20040C4F6742081
:1003F80000F068FB079044F23040C5F60200006840
:100408006FF35F2000F0D4FB06900E984FF08C41FC
:1004180000F058FB0146069800F06AFA4FF07E514A
:1004280000F066FA0146079800F0EAFA0D904EE0EF
:10043800139800F0BDFB01464BF62040C4F6BE30D1
:1004480000F040FB059044F23040C5F60200006819
:100458006FF35F2000F0ACFB04900E984FF08C41D6
:1004680000F030FB0146049800F042FA4FF07E514C
:1004780000F03EFA0146059800F0C2FA0D9026E019
:10048800139800F095FB014642F20040C4F6742030
:1004980000F018FB039044F23040C5F602000068F3
:1004A8006FF35F2000F084FB02900E984FF08C41B0
:1004B80000F008FB0146029800F01AFA4FF07E514E
:1004C80000F016FA0146039800F09AFA0D9044F2EB
:1004D8003040C5F60200006881B2012000EB5120CF
:1004E80015900D980190159800F062FB014601984F
:1004F80000F0E8FA00F04CFB0F9001E000200F90AC
:1005080004E040F60010C0F23D000F9044F218429B
:10051800C5F602021068C0F3032043F61841C0F67E
:100528000001085C1090109B0F98D8400F900F980E
:10053800126802F00F02895C01F01F01C84040F206
:100548004851C2F2004108600F9840F24C51C2F283
:080558000041086016B080BDEF
:1005600080B596B044F21040C5F60200006800F075
:10057000380001460D91182800F26A810D99DFE8D4
:1005800011F01900670167016701670167016701E1
:10059000670135006701670167016701670167014E
:1005A00067013B0067016701670167016701670138
:1005B0006701410044F20040C5F602000068C0F344
:1005C000401068B144F20040C5F602000068C0F374
:1005D000C10149F20000C0F2D030C8400E9004E0E2
:1005E00049F20000C0F2D0300E9036E140F6001023
:1005F000C0F23D000E9030E147F64000C0F27D10A1
:100600000E902AE144F22840C5F60200016801F08C
:10061000030114910068C0F30510139044F22C40BC
:10062000C5F60200006800F001001290129844F232
:100630003441C5F60201096889B2C908484300F08F
:10064000BBFA10901398002800F0FF8014980C90CB
:1006500038B10C9801286AD00C98022800F08F80DD
:10066000B5E044F20040C5F602000068C0F3401057
:10067000A8B344F20040C5F602000068C0F3C1010F
:1006800049F20000C0F2D030C8401190119800F03B
:1006900093FA0990139800F08FFA0146099800F038
:1006A00015FA0B9044F23040C5F6020000686FF373
:1006B0005F2000F081FA0A9010984FF08C4100F012
:1006C00005FA01460A9800F017F94FF07E5100F044
:1006D00013F901460B9800F097F90F9026E0139854
:1006E00000F06AFA014642F20040C4F6744000F09D
:1006F000EDF9089044F23040C5F6020000686FF34F
:100700005F2000F059FA079010984FF08C4100F0EC
:10071000DDF90146079800F0EFF84FF07E5100F048
:10072000EBF80146089800F06FF90F9076E0139807
:1007300000F042FA014642F20040C4F6742000F094
:10074000C5F9069044F23040C5F6020000686FF328
:100750005F2000F031FA059010984FF08C4100F0C6
:10076000B5F90146059800F0C7F84FF07E5100F04A
:10077000C3F80146069800F047F90F904EE0139831
:1007800000F01AFA01464BF62040C4F6BE3000F0E5
:100790009DF9049044F23040C5F6020000686FF302
:1007A0005F2000F009FA039010984FF08C4100F0A0
:1007B0008DF90146039800F09FF84FF07E5100F04C
:1007C0009BF80146049800F01FF90F9026E013985B
:1007D00000F0F2F9014642F20040C4F6742000F045
:1007E00075F9029044F23040C5F6020000686FF3DC
:1007F0005F2000F0E1F9019010984FF08C4100F07B
:1008000065F90146019800F077F84FF07E5100F04D
:1008100073F80146029800F0F7F80F9044F2304068
:10082000C5F60200006881B2012000EB512015904E
:100830000F980090159800F0BFF90146009800F05D
:1008400045F900F0A9F90E9001E000200E9004E0B7
:1008500040F60010C0F23D000E900E9816B080BD1C
:10086000034C206804348047FBE702F06AF8FEE797
:04087000EC3C000854
:0C0874007C3A0008A0080008800800087A
:100880005F3600087F3600088B3600089736000870
:10089000B7360008C3360008352C00082B36000890
:1008A0007E3A0008D73B0008D73B0008D73B00083A
:1008B000D73B0008D73B0008D73B0008D73B0008D0
:1008C000D73B0008D73B0008FFFFFFFFFFFFFFFFFC
:1008D000FFFFFFFFFFFF0000803A0008893B000890
:1008E000C1390008A63B0008183A0008D83B0008A8
:0808F000E13B00081F3A00087B
:1008F8004FF07F4C90EA010F38D4431A3CBFC01A1E
:10090800C918BCEB400F72D91CEA410F28D0C20DA0
:10091800B2EBD1534FF0004C4CEA00204CEA0121D5
:10092800C3F1200C01FA0CFC31FA03F1401832BF74
:10093800013A5FEA300040F001005CEA406C04BF15
:1009480010F4807F20F08000000A40EBC2504FF086
:10095800807111EB400F38BF70476FF31600704776
:100968001CEA400F01D100F00040704781F00041BF
:10097800431A3EBF83F00043C01AC918BCEB400FAE
:1009880032D91CEA410F28D0C20DA2EBD1534FF047
:10099800004C4CEA01214CEA0020C3F1200C11FA6A
:1009A8000CFC21FA03F118BF41F00101401A09D4E7
:1009B80017D0130AD2B2B0FA80F18840521A11DD6A
:1009C80002EB0322C0F31621400641EBC25038BFA8
:1009D800704708BF20F0010070471CEA400F08BFAD
:1009E80000207047D8077047BCEB410F03D0BCEB21
:1009F800400F08BF704740F20000C7F6C07070474C
:100A08004FF0FF0C1CEAD0521EBF1CEAD153FF2A3C
:100A1800FF2B28D01A444FF0004C90EA010313EA48
:100A28000C034CEA01214CEA0020A0FB01C1B1F102
:100A3800004F62F17F0238BF49004CEA416CFE2A40
:100A480009D253EA11204CEAC07C28BFBCF101034B
:100A580040EBC2507047124244BF18467047FF200F
:100A680043EAC050704710EACC5F08BF00F000406E
:100A780011EACC5F08BF01F000410CEAD153FF2A0C
:100A880018BFFF2B03D0484000F0004070470028F3
:100A98001EBFB0F1004F0029B1F1004F0DD0FF2A61
:100AA80001D1420209D1FF2B01D14A0205D14840A8
:100AB8005FF0FF4161F31E00704740F20000C7F687
:040AC800C070704743
:100ACC00FF2313EAD0521EBF13EAD153FF2AFF2B88
:100ADC0035D0D21A7F3281EA000C0CF0004C4FF06A
:100AEC00004343EA002043EA012130B4431A3CBFDF
:100AFC0001EB4303013A090AB3FBF1F505FB113392
:100B0C001B02B3FBF1F001FB103300EB05201B02C1
:100B1C00B3FBF1F505EB00205CEA500050EBC25042
:100B2C0030BC002A08DDFF2A38BF70474FF0FF4069
:100B3C001CF00041084370470CF00040704703EA7A
:100B4C00D153FF2B07D1FF2A14D05FEA412C0DD0D3
:100B5C004FF4400016E0FF2A04D14300B3F17F4F5D
:100B6C000BD007E01A4305D0002B06D0484000F00C
:100B7C00004070474FF4400004E0484000F0004053
:0C0B8C0040F4000040F0FE40704700BF45
:100B9800C10DD1F19E0105DB000240F0004020FAB2
:100BA80001F070474000404038BF0138704700BF2F
:100BB800B0FA80F110FA01F30DD0D1F19D01C90509
:100BC80001EB13205B0638BF704700F1010018BF26
:080BD800704720F00100704796
:100BE000002B35D129B9B0FBF2FC0CFB1202604698
:100BF0007047914215D22DE9F041B2FA82F39A4042
:100C00009940D3F1200C30FA0CFC51EA0C019840C9
:100C100000F04EF8280036FA03F200210023BDE868
:100C2000F081F0B5B1FBF2FC0CFB1211B2FA82F3C9
:100C30009A409940D3F1200630FA06F631439840A5
:100C400000F036F8614628003200DA400023F0BD9B
:100C5000F3B5B3FA83FC49085FEA300013FA0CF3EA
:100C6000DCF1200432FA04F423430CB41A0000F03F
:100C70001FF80CBC33FA0CF3DCF11F0C35FA0CF541
:100C800018BF013D03BCA5FB026705FB0377801B72
:100C9000B941904271EB030C05D3821A71EB030347
:100CA000681C0021F0BD02000B0028000021F0BDEF
:100CB000940D4FF6C2752D02B5FBF4F4D60A013639
:100CC00004FB04F5A5FB0656F64306EB041655088F
:100CD00032BF00277708013505FB1677A6FB0747CB
:100CE0007F0807EBC63714001500E7FB02457F1BA2
:100CF0004D1C0400E7FB014505FB1206A64284BF1C
:100D0000013DB618964224BF0135B61A704700BFA0
:100D10005AB3844690EA01039B071FD1830707D08B
:100D200011F8013B00F8013B013AF7D11CE0844681
:100D3000203A09D32DE9F007B1E8F807A0E8F80751
:100D4000203AF9D2BDE8F0071C3205D451F8043B33
:100D500040F8043B043AF9D2043205D011F8013BC3
:0C0D600000F8013B013AF9D160467047F1
:100D6C0000220B0011001A0084465AB3830704D0EA
:100D7C0000F8011B013AF9D124E0C9B241EA012182
:100D8C0041EA0141202A11D3203A2DE9F0030B4608
:100D9C000C460D460E460F4688468946A0E8FA03D7
:100DAC00203AFBD2BDE8F00320320BD0042A05D345
:100DBC0040F8041B043A05D0042AF9D200F8011BB0
:080DCC00013AFBD160467047BB
:100DD4002DE9F04F89B017468B4680460020C8F8AD
:100DE40000000DF10E00A0F1010A5D4615F8011B8B
:100DF400252907D0002900F09981404602F065FCBE
:100E0400AB46F2E70BF1020B00241BF8012C2A2A53
:100E140008DC202A13D0232A13D0272A46D14FF4E2
:100E240000400FE05D2A06DD672A0FDC5E2A3DD113
:100E34004FF4805006E02B2A38D1202002E04020D5
:100E440000E0802004430BF1010BDEE76B2A08DD90
:100E54006C2A0DD0742A18BF7A2A27D11BF8012BCB
:100E640024E0682A10D06A2A20D11BF8012B08E05C
:100E7400584610F8012B6C2A12D19BF801200BF173
:100E8400020B44F0020411E0584610F8012B682AC2
:100E940009D19BF801200BF1020B44F0080405E092
:100EA40044F0010401E044F004048346622A16DDA0
:100EB400A2F1630015283FF698AF0025DFE800F0A3
:100EC4001A0C0B0B0B0B0C0B0B0B0B202C310B0B01
:100ED4003B0B4C0B0B1688E744F480443CE0252A7A
:100EE40079D0582A40F01A8144F4005420062DD4B5
:100EF400002531E017F8041B404602F0E6FB74E7D6
:100F040057F8040B210700F10D81A107D8F8001050
:100F140054BF016022C068E72006302101EAE07571
:100F24001AE02006232101EAE07544F4807457F89E
:100F3400040B0021B0E057F8045B15F8011B0029ED
:100F44003FF453AF404602F0C0FBF6E743F25805C6
:100F5400782A08BF43F27805600404D4A00708D4B3
:100F64003B1D00210BE0A00712D457F8040BC11756
:100F740014E0F81D20F0070707F1080379683868C2
:100F8400670713D414F008071CBFC0B200210FE098
:100F9400F81D20F00707796857F8080B630709D490
:100FA400230744BF40F3C01140B206E080B20021E1
:100FB4001F4616E040F3C03100B2002905DBA3064A
:100FC4000ED4630648BF20250BE00023404263EBA8
:100FD40001012D2505E04046252102F076FB04E7BA
:100FE4002B2500266E2A25DD6F3A092A00F27F8020
:100FF400DFE802F005527D7D7D7D267D7D5250EA3D
:10100400010270D0AE46BC46C20842EA41720DF1FC
:101014000E070625134665F3DF00B855013652EA7C
:10102400D1004FEAD1014FEAD20040EA417218469A
:10103400F0D155E0582A2FD0642A18BF692A56D116
:1010440050EA01024FD0CDE901570D46074620046E
:101054000AD506F00300032806D10DF10E092C2051
:1010640009F80600013601E00DF10E0938460A229E
:101074000023FFF7B3FD00EB8002A7EB420242F02E
:10108400300209F806200136D7F109020022AA41EC
:10109400DBD3DDE901572AE050EA010223D0AE4652
:1010A400A20443F6A842C0F60002BC465CBF43F665
:1010B400B842C0F60002030943EA017300260DF1A9
:1010C4000E0500F00F071846D35DAB55013650EA04
:1010D40011134FEA11114FEA101343EA0173F0D1CF
:1010E4006746754603E030208DF80E000126FF2D7B
:1010F40004D9290A404602F0E8FA00E01DB140464E
:10110400294602F0E2FA012EFFF66FAE1AF8061035
:10111400404602F0DAFA013EF8D866E6002A7FF487
:1011240064AE14E0D8F8001001705EE6D8F80C0044
:1011340028B1D8E9001291423CBF002242544046F3
:1011440002F005FBD8F8000009B0BDE8F08F404676
:0A11540002F0FDFA4FF0FF30F6E75D
:10115E0042F20000C5F20020006800F00F000628E1
:10116E0008D842F20001C5F200210868072262F396
:10117E000300086044F20041C5F60201086840F021
:10118E000100086044F21042C5F602020020106011
:10119E0008684EF67F52CEF6F6221040086042F2F4
:1011AE000000C5F20020006800F00F00082808D3E8
:1011BE0042F20001C5F200210868072262F3030023
:1011CE00086044F21841C5F602010020086044F29E
:1011DE001C41C5F60201086044F22041C5F6020129
:1011EE00086044F22842C5F6020240F20021C0F225
:1011FE000221116044F22C42C5F602020021C0F217
:10120E00FF11116044F23042C5F6020240F2802115
:10121E00C0F20111116044F23442C5F602021060B0
:10122E0044F23842C5F60202116044F23C42C5F661
:10123E000202106044F24042C5F60202116044F20E
:10124E004441C5F60201086044F20042C5F60202AE
:10125E00116821F48021116044F26041C5F602014B
:10126E00086041F20000C5F600400068400F28B942
:10127E0048F20811C5F200110120086044F2000185
:10128E00C5F2002143F2D20008604EF60851CEF2AC
:0A129E0000014FF000600860704787
:1012A80080B582B0032000F08AF8FFF755F944F2C0
:1012B8001842C5F602021168C1F3032343F6184128
:1012C800C0F60001CB5C03F01F03D84000900098E3
:1012D800126802F00F02895C01F01F01C84040F259
:1012E8004851C2F200410860009840F24C51C2F2E5
:1012F800004108600F2000F00EF818B101208DF8A9
:10130800070004E000F046F800208DF807009DF87B
:06131800070002B080BDD9
:10131E0080B582B0009040F25050C2F2004000788A
:10132E0018B901208DF807002DE040F24C50C2F2A2
:10133E000040006840F25051C2F200410A784FF46A
:10134E007A71B1FBF2F1B0FBF1F001F091FD18B141
:10135E0001208DF8070016E000980F280CD8009990
:10136E004FF0FF30002200F046F8009840F238515E
:10137E00C2F20041086003E001208DF8070002E090
:0E138E0000208DF807009DF8070002B080BD1A
:02139C00704798
:10139E0040F25050C2F20040027840F2F001C2F228
:0A13AE000041086810440860704711
:0E13B80041F20000C5F600400068000C7047CE
:1013C60080B582B00190019807280BD001980628B5
:1013D60008D00198052805D00198042802D0019864
:1013E600032800D106E043F6BA20C0F60000922199
:0E13F60002F0F0F8019801F0C7FC02B080BDD3
:1014040080B586B0ADF816000491039203980F28B6
:1014140000D806E043F6BA20C0F60000AA2102F084
:10142400DAF804980F2800D806E043F6BA20C0F68C
:101434000000AB2102F0CFF801F0C5FC0290BDF929
:101444001600019002980499039A01F0E4FC014605
:0A145400019801F0C0FC06B080BD55
:10145E0080B582B0009000980138B0F1807F02D341
:10146E000120019018E0009801384EF21401CEF2DE
:10147E00000108604FF0FF300F2101F0A7FC4EF283
:10148E001801CEF20001002008604EF21002CEF2DA
:0E149E000002072111600190019802B080BD8C
:1014AC0080B58CB00A900A9820B901208DF82F00D5
:1014BC0000F0BFBD0A98006800B30A980078C00716
:1014CC00E0B90A98006800F00200022816D00A98C9
:1014DC00006800F01000102810D00A98006800F086
:1014EC00080008280AD00A98006800F004000428B4
:1014FC0004D00A9800788006002800D507E043F64F
:10150C002E20C0F6000040F29D1102F060F80A98FF
:10151C000078C007002800F0B2800A98406848B1F3
:10152C000A984068B0F5803F04D00A984068B0F53E
:10153C00A02F00D107E043F62E20C0F600004FF498
:10154C00D17102F044F844F21040C5F60200006874
:10155C0000F03800069044F22840C5F602000068FE
:10156C0005900698102807D00698182815D10598CC
:10157C0000F00300022810D144F20040C5F602002E
:10158C000068C0F3404038B10A98406820B9012087
:10159C008DF82F0000F04DBD71E00A984068B0F551
:1015AC00803F08D144F20041C5F60201086840F4BE
:1015BC00803008602DE00A98406860B944F2004120
:1015CC00C5F60201086820F480300860086820F431
:1015DC00802008601DE00A984068B0F5A02F0CD15F
:1015EC0044F20041C5F60201086840F4802008600E
:1015FC00086840F4803008600BE044F20041C5F606
:10160C000201086820F480300860086820F480200B
:10161C0008600A984068C8B101F0ADFB099044F22B
:10162C000040C5F602000068C0F3404068B901F004
:10163C00A2FB0999401A41F28931884204D3032054
:10164C008DF82F0000F0F5BCE9E718E001F093FBF2
:10165C00099044F20040C5F602000068C0F3404017
:10166C0068B101F088FB0999401A41F2893188422E
:10167C0004D303208DF82F0000F0DBBCE9E70A98B7
:10168C0000788007002840F1F4800A98C06898B16F
:10169C000A98C06801280FD00A98C06801280BD09E
:1016AC000A98C068092807D00A98C068112803D086
:1016BC000A98C068192800D107E043F62E20C0F61E
:1016CC0000004FF4EB7101F082FF0A9800697F284B
:1016DC0000D807E043F62E20C0F6000040F2D711E8
:1016EC0001F075FF44F21040C5F60200006800F0EE
:1016FC003800049044F22840C5F6020000680390BC
:10170C00049830B10498182841D19DF80C0080073A
:10171C00E8BB44F20040C5F602000068C0F380004C
:10172C0038B10A98C06820B901208DF82F0000F05C
:10173C0080BCFFF73BFE41F2030188421AD80A989D
:10174C000069402809D144F20441C5F60201086839
:10175C00202262F3113008600BE044F20441C5F61C
:10176C000201086820F47C300A9A126940EA0230BF
:10177C0008600BE044F20441C5F60201086820F051
:10178C00FE400A9A126940EA0260086071E00A9809
:10179C00C06800284FD044F20041C5F60201086829
:1017AC0020F019000A9AD2681043086001F0E3FA9D
:1017BC00099044F20040C5F602000068C0F38000B6
:1017CC0058B901F0D8FA0999401A032804D3032018
:1017DC008DF82F0000F02DBCEBE7FFF7E7FD41F291
:1017EC00030188421AD80A980069402809D144F2AA
:1017FC000441C5F602010868202262F3113008602A
:10180C000BE044F20441C5F60201086820F47C3078
:10181C000A9A126940EA023008600BE044F2044173
:10182C00C5F60201086820F0FE400A9A126940EAE7
:10183C00026008601DE044F20041C5F60201086830
:10184C0020F00100086001F096FA099044F2004083
:10185C00C5F602000068C0F3800050B101F08BFAAD
:10186C000999401A032803D303208DF82F00E0E3D5
:10187C00ECE70A980078C006002840F1E2800A984C
:10188C00C06918B10A98C069802800D107E043F6F6
:10189C002E20C0F6000040F2192101F098FE0A98A3
:1018AC00006A3F2800D807E043F62E20C0F600005F
:1018BC0040F21A2101F08BFE44F21040C5F60200F2
:1018CC00006800F03800029044F22840C5F602008F
:1018DC00006801900298082807D00298182842D175
:1018EC00019800F0030001283DD144F20040C5F6F8
:1018FC0002000068C0F3002038B10A98C069802843
:10190C0003D001208DF82F0093E3FFF74FFD41F238
:10191C00030188421AD80A98006A202809D144F297
:10192C000441C5F602010868102262F39E6008604B
:10193C000BE044F20441C5F60201086820F0F840BF
:10194C000A9A126A40EA826008600BE044F20C4189
:10195C00C5F60201086820F07C500A9A126A40EA27
:10196C00026008606DE00A98C06900284BD044F210
:10197C000041C5F60201086840F08000086001F0E3
:10198C00FAF9099044F20040C5F602000068C0F371
:10199C00002050B901F0EFF90999401A032803D33C
:1019AC0003208DF82F0044E3ECE7FFF7FFFC41F236
:1019BC00030188421AD80A98006A202809D144F2F7
:1019CC000441C5F602010868102262F39E600860AB
:1019DC000BE044F20441C5F60201086820F0F8401F
:1019EC000A9A126A40EA826008600BE044F20C41E9
:1019FC00C5F60201086820F07C500A9A126A40EA87
:101A0C00026008601DE044F20041C5F6020108685E
:101A1C0020F08000086001F0AEF9099044F200401B
:101A2C00C5F602000068C0F3002050B101F0A3F924
:101A3C000999401A032803D303208DF82F00F8E2EC
:101A4C00ECE70A980078000700284FD50A984069FF
:101A5C0018B10A984069012800D107E043F62E20FE
:101A6C00C0F6000040F25B2101F0B1FD0A9840691C
:101A7C00F0B144F27441C5F60201086840F001006F
:101A8C00086001F078F9099044F27440C5F6020040
:101A9C000068C0F3400050B901F06DF90999401A83
:101AAC00032803D303208DF82F00C2E2ECE71DE0DE
:101ABC0044F27441C5F60201086820F00100086088
:101ACC0001F059F9099044F27440C5F6020000681F
:101ADC00C0F3400050B101F04EF90999401A0328A7
:101AEC0003D303208DF82F00A3E2ECE70A980078CB
:101AFC00800600284FD50A98806918B10A98806929
:101B0C00012800D107E043F62E20C0F6000040F279
:101B1C00862101F05CFD0A988069F0B144F2004125
:101B2C00C5F60201086840F48050086001F023F902
:101B3C00099044F20040C5F602000068C0F3403042
:101B4C0050B901F018F90999401A032803D303205E
:101B5C008DF82F006DE2ECE71DE044F20041C5F674
:101B6C000201086820F48050086001F004F9099023
:101B7C0044F20040C5F602000068C0F3403050B19A
:101B8C0001F0F9F80999401A032803D303208DF8C2
:101B9C002F004EE2ECE70A9800784007002840F14D
:101BAC00A0800A98806838B10A988068012803D010
:101BBC000A988068052800D107E043F62E20C0F66D
:101BCC0000004FF42C7101F002FD44F60001C5F643
:101BDC000201086840F48070086001F0CCF80990AC
:101BEC0044F60000C5F602000068C00500280AD4BF
:101BFC0001F0C1F80999401A652803D303208DF828
:101C0C002F0016E2ECE70A988068012808D144F20C
:101C1C007041C5F60201086840F0010008602CE034
:101C2C000A98806860B944F27041C5F602010868F0
:101C3C0020F001000860086820F0040008601CE037
:101C4C000A98806805280CD144F27041C5F602014F
:101C5C00086840F004000860086840F00100086063
:101C6C000BE044F27041C5F60201086820F0010057
:101C7C000860086820F0040008600A988068C0B109
:101C8C0001F079F8099044F27040C5F60200006842
:101C9C00C0F3400060B901F06EF80999401A41F2A6
:101CAC008931884203D303208DF82F00C1E1EAE784
:101CBC0017E001F060F8099044F27040C5F602009C
:101CCC000068C0F3400060B101F055F80999401A62
:101CDC0041F28931884203D303208DF82F00A8E10B
:101CEC00EAE70A98406A38B10A98406A012803D09A
:101CFC000A98406A022800D107E043F62E20C0F66D
:101D0C00000040F2E22101F062FC0A98406A0028CF
:101D1C0000F08C8144F21040C5F60200006800F01F
:101D2C003800182800F040810A98406A022840F0D8
:101D3C001C810A98806A01280AD00A98806A38B1F6
:101D4C000A98806A032803D00A98806A022800D176
:101D5C0007E043F62E20C0F6000040F2EB2101F024
:101D6C0036FC0A98C06A20B10A98C06A3F2800D88D
:101D7C0007E043F62E20C0F600004FF43B7101F053
:101D8C0026FC0A98006B042805D30A98006BB0F562
:101D9C00007F00D807E043F62E20C0F6000040F28A
:101DAC00ED2101F014FC0A98406B20B10A98406BAD
:101DBC00802800D807E043F62E20C0F6000040F241
:101DCC00EE2101F004FC0A98806B20B10A98806B1C
:101DDC00802800D807E043F62E20C0F6000040F221
:101DEC00EF2101F0F4FB0A98C06B20B10A98C06B8C
:101DFC00802800D807E043F62E20C0F600004FF4F0
:101E0C003C7101F0E4FB0A98806C400B00B907E0D0
:101E1C0043F62E20C0F6000040F2F12101F0D7FB72
:101E2C0044F20041C5F60201086820F08070086099
:101E3C0000F0A1FF099044F20040C5F602000068D2
:101E4C00C0F3406050B100F096FF0999401A032886
:101E5C0003D303208DF82F00EBE0ECE744F228418C
:101E6C00C5F60201086840F2F33290430A9B9A6A65
:101E7C00DB6A42EA0312104308600A99086BD1F836
:101E8C0034C08B6BCA6B01386FF35F204FF6006167
:101E9C00CFF6FF7101EB4C2189B208440021CFF63B
:101EAC00FF7101EB034101F4FE0108444FF07F4147
:101EBC0001EB026101F0FE41084444F23041C5F6E9
:101ECC000201086044F22C41C5F602010091086839
:101EDC0020F00100086044F23442C5F6020210689A
:101EEC004FF6F87398430A9B9B6C40EAC300106052
:101EFC00086820F00C000A9A126C104308600868FD
:101F0C0020F002000A9A526C10430860086840F4F2
:101F1C0080300860086840F400300860086840F4BD
:101F2C0080200860086840F00100086044F200411D
:101F3C00C5F60201086840F08070086000F01BFFD5
:101F4C00099044F20040C5F602000068C0F34060FE
:101F5C0050B900F010FF0999401A032803D303204D
:101F6C008DF82F0065E0ECE71DE044F20041C5F66A
:101F7C000201086820F08070086000F0FCFE0990F7
:101F8C0044F20040C5F602000068C0F3406050B156
:101F9C0000F0F1FE0999401A032803D303208DF8B1
:101FAC002F0046E0ECE741E044F22840C5F6020081
:101FBC000068089044F23040C5F6020000680790B3
:101FCC000A98406A01282DD0089800F003000A995D
:101FDC00896A884226D10898C0F305110A98C06A0C
:101FEC0088421FD107986FF35F200A99096B01395A
:101FFC00884217D1BDF81C00410A0A98406B013881
:10200C0088420FD10798C0F306410A98806B0138BB
:10201C00884207D10798C0F306610A98C06B013853
:10202C00884203D001208DF82F0002E000208DF8AB
:0A203C002F009DF82F000CB080BDAE
:1020460080B586B004900391049818B901208DF8E4
:102056001700C6E30498006820B1049800683F287A
:1020660000D807E043F62E20C0F6000040F27E318D
:1020760001F0B0FA039860B30398012829D00398B9
:10208600022826D00398032823D00398042820D0BA
:10209600039805281DD0039806281AD00398072808
:1020A60017D00398082814D00398092811D003984C
:1020B6000A280ED003980B280BD003980C2808D0BA
:1020C60003980D2805D003980E2802D003980F28F0
:1020D60000D107E043F62E20C0F6000040F27F3123
:1020E60001F078FA039842F20001C5F2002109686E
:1020F60001F00F01884213D942F20000C5F2002018
:10210600016821F00F01039A11430160006800F095
:102116000F000399884203D001208DF8170060E371
:10212600049800784007002831D50498006944F2E5
:102136001841C5F60201096801F07001884226D9E6
:102146000498006978B10498006940280BD0049877
:102156000069502807D004980069602803D00498C5
:102166000069702800D107E043F62E20C0F6000073
:1021760040F29B3101F02EFA44F21841C5F60201F5
:10218600086820F07000049A1269104308600498E9
:1021960000780007002831D50498406944F21C41B4
:1021A600C5F60201096801F07001884226D9049833
:1021B600406978B10498406940280BD0049840697A
:1021C600502807D004984069602803D004984069D5
:1021D600702800D107E043F62E20C0F6000040F23A
:1021E600AD3101F0F7F944F21C41C5F60201086869
:1021F60020F07000049A5269104308600498007831
:10220600C006002835D50498806944F21C41C5F6FD
:102216000201096801F4E06188422AD904988069BC
:1022260098B104988069B0F5806F0ED004988069E3
:10223600B0F5A06F09D004988069B0F5C06F04D0DE
:1022460004988069B0F5E06F00D107E043F62E20D0
:10225600C0F6000040F2BE3101F0BCF944F21C4168
:10226600C5F60201086820F4E060049A92691043FA
:102276000860049800788006002831D50498C06963
:1022860044F22041C5F60201096801F07001884256
:1022960026D90498C06978B10498C06940280BD043
:1022A6000498C069502807D00498C069602803D0F4
:1022B6000498C069702800D107E043F62E20C0F6C6
:1022C60000004FF4747101F085F944F22041C5F61F
:1022D6000201086820F07000049AD2691043086071
:1022E600049800788007002841D50498C06844F215
:1022F6001841C5F60201096801F00F01884236D976
:102306000498C068F8B10498C06808281BD00498DF
:10231600C068092817D00498C0680A2813D0049802
:10232600C0680B280FD00498C0680C280BD00498FE
:10233600C0680D2807D00498C0680E2803D00498FA
:10234600C0680F2800D107E043F62E20C0F6000033
:1023560040F2E33101F03EF944F21841C5F60201BC
:10236600086820F00F00049AD268104308600498A9
:102376000078C007002800F0BD800498806838B354
:1023860004988068B0F5006F22D004988068B0F594
:10239600106F1DD004988068B0F5206F18D004988F
:1023A6008068B0F5306F13D004988068B0F5406F40
:1023B6000ED004988068B0F5506F09D004988068F4
:1023C600B0F5606F04D004988068B0F5706F00D1E6
:1023D60007E043F62E20C0F6000040F2F33101F08C
:1023E600F9F80498406801280AD00498406838B182
:1023F60004984068022803D004984068032800D156
:1024060007E043F62E20C0F600004FF47D7101F080
:10241600E1F844F21841C5F60201086820F470603C
:10242600049A9268104308600498406802280CD108
:1024360044F20040C5F602000068C0F3404018B9F7
:1024460001208DF81700CCE12DE0049840680328A0
:102456000CD144F20040C5F602000068C0F34060AB
:1024660018B901208DF81700BBE11CE004984068FC
:1024760001280CD144F20040C5F602000068C0F302
:10248600002018B901208DF81700AAE10BE044F2EC
:102496000040C5F602000068C0F3800018B90120AC
:1024A6008DF817009DE144F21041C5F60201086857
:1024B60020F00700049A52681043086000F05EFCA2
:1024C600019044F21040C5F60200006800F03800A2
:1024D60004994968C90088420CD000F04FFC019964
:1024E600401A41F28931884203D303208DF8170040
:1024F60077E1E6E7049800788007002841D504983C
:10250600C06844F21841C5F60201096801F00F01DE
:10251600884236D20498C068F8B10498C068082882
:102526001BD00498C068092817D00498C0680A28E8
:1025360013D00498C0680B280FD00498C0680C28E4
:102546000BD00498C0680D2807D00498C0680E28E0
:1025560003D00498C0680F2800D107E043F62E2068
:10256600C0F6000040F2354101F034F844F218415B
:10257600C5F60201086820F00F00049AD2681043DD
:102586000860039842F20001C5F20021096801F0D3
:102596000F01884213D242F20000C5F20020016802
:1025A60021F00F01039A11430160006800F00F004B
:1025B6000399884203D001208DF8170011E1049891
:1025C60000784007002831D50498006944F2184184
:1025D600C5F60201096801F07001884226D2049806
:1025E600006978B10498006940280BD00498006906
:1025F600502807D004980069602803D00498006921
:10260600702800D107E043F62E20C0F6000040F205
:10261600564100F0DFFF44F21841C5F60201086892
:1026260020F07000049A126910430860049800783C
:102636000007002831D50498406944F21C41C5F6CC
:102646000201096801F07001884226D204984069A7
:1026560078B10498406940280BD004984069502806
:1026660007D004984069602803D004984069702810
:1026760000D107E043F62E20C0F600004FF48D612E
:1026860000F0A8FF44F21C41C5F60201086820F0DC
:102696007000049A52691043086004980078C006D6
:1026A600002835D50498806944F21C41C5F602011C
:1026B600096801F4E06188422AD20498806998B1D9
:1026C60004988069B0F5806F0ED004988069B0F5E3
:1026D600A06F09D004988069B0F5C06F04D0049843
:1026E6008069B0F5E06F00D107E043F62E20C0F612
:1026F600000040F27A4100F06DFF44F21C41C5F63D
:102706000201086820F4E060049A926910430860A8
:10271600049800788006002831D50498C06944F2F0
:102726002041C5F60201096801F07001884226D2EF
:102736000498C06978B10498C06940280BD0049801
:10274600C069502807D00498C069602803D004984F
:10275600C069702800D107E043F62E20C0F60000BD
:1027660040F28C4100F036FF44F22041C5F60201EA
:10277600086820F07000049AD26910430860FDF7DB
:10278600ECFE44F21842C5F602021168C1F30323B7
:1027960043F61841C0F60001CB5C03F01F03D84096
:1027A60000900098126802F00F02895C01F01F0188
:1027B600C84040F24851C2F200410860009840F219
:1027C6004C51C2F20041086040F23850C2F200405B
:1027D6000068FEF7A1FD8DF80B009DF80B008DF843
:0A27E60017009DF8170006B080BD33
:0227F000704730
:0227F200FEE700
:0227F40070472C
:0227F60070472A
:1027F80080B582B000F0E7FEFEF752FD00F015F854
:1028080000F06BFA40F20040C5F6020000904FF469
:1028180080510022019200F04AFE0098019A4FF47C
:0A282800005100F044FE02B080BD34
:1028320080B59EB00BA84C21FEF797FA00200190BC
:102842000A900990089007900690059004900390D2
:10285200022000F063FE0020029040F22C40C5F6F8
:102862000000016821F001010160006800F0010030
:10287200029044F61800C5F602000168012262F3D4
:102882008F310160006800F440400290029844F6E3
:102892001800C5F60200006800F40050B0F5005FB1
:1028A20000D0F4E744F22841C5F60201086820F09E
:1028B2000300086002200B9001200E9040200F9030
:1028C2000020149015900BA8FEF7EFFD08B100F060
:1028D20042F83F2003900020049005900690079054
:1028E2004021089109900A9003A80121FFF7AAFB51
:0A28F20008B100F030F81EB080BD00
:1028FC0080B582B001900199002000F07EF8C0B143
:10290C0041F20000C5F60200082100F0AAFD40B912
:10291C0041F20000C5F602000821012200F0C5FDBD
:10292C0007E041F20000C5F602000821002200F089
:06293C00BCFD02B080BDED
:1029420080B582B000200190FFF755FF4FF47A70F6
:06295200FFF7D3FFFAE7D6
:0A29580080B5FA20FFF7CEFFFBE781
:10296200BFF34F8FBFF36F8F4EF65071CEF200015F
:10297200002008604EF61451CEF20001086840F4BF
:0E29820000300860BFF34F8FBFF36F8F7047B8
:1029900083B04EF68451CEF2000100200860BFF3F0
:1029A0004F8F4EF68050CEF20000006802900298E1
:1029B000C0F34E3001900298C0F3C9000090019915
:1029C0000098800761F34D104EF66071CEF2000161
:1029D00008600098411E00910028F0D10198411E26
:1029E00001910028E7D1BFF34F8F4EF61451CEF27C
:1029F0000001086840F480300860BFF34F8FBFF3D8
:062A00006F8F03B0704768
:102A060080B582B08DF8060000919DF8061040F260
:102A16000450C2F20040405C58B19DF8062040F2D6
:102A26000451C2F20041002088549DF8060000F0CF
:102A3600E5FD9DF8061040F2A800C2F2004050F8ED
:102A4600211040F2E800C2F2004001600168009ADD
:102A56000A4440F2EC01C2F200410A6000680968CB
:102A6600884211D200F0C4FD40F2EC01C2F20041EE
:102A76000968884207D39DF8060000F0BFFD0120D3
:102A86008DF807001DE019E000F0B2FD40F2E80104
:102A9600C2F200410968884210D200F0A9FD40F256
:102AA600EC01C2F200410968884207D99DF8060088
:102AB60000F0A4FD01208DF8070002E000208DF84B
:0A2AC60007009DF8070002B080BD74
:022AD000FEE71F
:022AD200FEE71D
:022AD400FEE71B
:022AD600FEE719
:022AD800FEE717
:022ADA00FEE715
:022ADC00FEE713
:022ADE00FEE711
:022AE000FEE70F
:022AE200FEE70D
:022AE400FEE70B
:022AE600FEE709
:022AE800FEE707
:022AEA00FEE705
:022AEC00FEE703
:022AEE00FEE701
:022AF000FEE7FF
:022AF200FEE7FD
:022AF400FEE7FB
:022AF600FEE7F9
:022AF800FEE7F7
:022AFA00FEE7F5
:022AFC00FEE7F3
:022AFE00FEE7F1
:022B0000FEE7EE
:022B0200FEE7EC
:022B0400FEE7EA
:022B0600FEE7E8
:022B0800FEE7E6
:022B0A00FEE7E4
:022B0C00FEE7E2
:022B0E00FEE7E0
:022B1000FEE7DE
:022B1200FEE7DC
:022B1400FEE7DA
:022B1600FEE7D8
:022B1800FEE7D6
:022B1A00FEE7D4
:022B1C00FEE7D2
:022B1E00FEE7D0
:022B2000FEE7CE
:022B2200FEE7CC
:022B2400FEE7CA
:022B2600FEE7C8
:022B2800FEE7C6
:022B2A00FEE7C4
:022B2C00FEE7C2
:022B2E00FEE7C0
:022B3000FEE7BE
:022B3200FEE7BC
:022B3400FEE7BA
:022B3600FEE7B8
:022B3800FEE7B6
:022B3A00FEE7B4
:022B3C00FEE7B2
:022B3E00FEE7B0
:022B4000FEE7AE
:022B4200FEE7AC
:022B4400FEE7AA
:022B4600FEE7A8
:022B4800FEE7A6
:022B4A00FEE7A4
:022B4C00FEE7A2
:022B4E00FEE7A0
:022B5000FEE79E
:022B5200FEE79C
:022B5400FEE79A
:022B5600FEE798
:022B5800FEE796
:022B5A00FEE794
:022B5C00FEE792
:022B5E00FEE790
:022B6000FEE78E
:022B6200FEE78C
:022B6400FEE78A
:022B6600FEE788
:022B6800FEE786
:022B6A00FEE784
:022B6C00FEE782
:022B6E00FEE780
:022B7000FEE77E
:022B7200FEE77C
:022B7400FEE77A
:022B7600FEE778
:022B7800FEE776
:022B7A00FEE774
:022B7C00FEE772
:022B7E00FEE770
:022B8000FEE76E
:022B8200FEE76C
:022B8400FEE76A
:022B8600FEE768
:022B8800FEE766
:022B8A00FEE764
:022B8C00FEE762
:022B8E00FEE760
:022B9000FEE75E
:022B9200FEE75C
:022B9400FEE75A
:022B9600FEE758
:022B9800FEE756
:022B9A00FEE754
:022B9C00FEE752
:022B9E00FEE750
:022BA000FEE74E
:022BA200FEE74C
:022BA400FEE74A
:022BA600FEE748
:022BA800FEE746
:022BAA00FEE744
:022BAC00FEE742
:022BAE00FEE740
:022BB000FEE73E
:022BB200FEE73C
:022BB400FEE73A
:022BB600FEE738
:022BB800FEE736
:022BBA00FEE734
:022BBC00FEE732
:022BBE00FEE730
:022BC000FEE72E
:022BC200FEE72C
:022BC400FEE72A
:022BC600FEE728
:022BC800FEE726
:022BCA00FEE724
:022BCC00FEE722
:022BCE00FEE720
:022BD000FEE71E
:022BD200FEE71C
:022BD400FEE71A
:022BD600FEE718
:022BD800FEE716
:022BDA00FEE714
:022BDC00FEE712
:022BDE00FEE710
:022BE000FEE70E
:022BE200FEE70C
:022BE400FEE70A
:022BE600FEE708
:022BE800FEE706
:022BEA00FEE704
:102BEC00F8B51D4617460C460646184600F013FE6F
:102BFC00002803D407FB04F2A24201D20020F8BD46
:0E2C0C002846314600F01CF8B0FBF4F0F8BD8D
:102C1A0040F20011C2F200410868002802BF40F2E7
:0A2C2A002450C2F200400860704719
:0E2C34007F298EBF6FF00100017001207047F4
:0A2C4200436A08460121FFF7D0BFE6
:062C4C00006800F02DB845
:102C520070B5144600EB400040F20002C2F200429E
:102C620002EBC00202F11806D06A02280AD00D4611
:102C720001280DD020B9304600F022FEA0420DD22C
:102C8200002410E030462246BDE8704000F044BE09
:102C9200304600F015FEA04238BF044630462946B1
:0A2CA200224600F017FE204670BD28
:102CAC00F8B514460D4640F20001C2F2004106464A
:102CBC000878002808BF00F0CCFDEFF311874FF027
:102CCC00200181F31188304629462246FFF7BBFFCD
:062CDC0087F31188F8BD2A
:102CE20080B58CB044F2E040C5F60200016841F0C4
:102CF20001010160006800F001000690069844F2AC
:102D0200E040C5F60200016841F00201016000687E
:102D120000F002000590059844F2E040C5F602007A
:102D2200016841F004010160006800F004000490B1
:102D3200049844F2E040C5F60200016841F0100137
:102D42000160006800F010000390039808200190D1
:102D520007900120029008900020099003210A9117
:102D62000B9041F20000C5F60200009007A900F0A6
:102D72008DF800980199029A00F09CFB0CB080BD7E
:0C2D820040F2F000C2F200400068704710
:102D8E0083B00290029800F0070000904EF60C51AE
:102D9E00CEF200010868019001984FF6FF02104034
:102DAE0001900198009A40EA02200022C0F2FA52E5
:0C2DBE00104301900198086003B07047BA
:102DCA004EF60C50CEF200000068C0F302207047A5
:102DDA0082B0ADF806000091BDF90600B0F1FF3FE0
:102DEA000BDC00980001BDF8061001F00F014EF649
:102DFA001452CEF20002885408E000980001BDF98E
:102E0A0006104EF20042CEF20002885402B0704719
:102E1A0088B0079006910592079800F00700049081
:102E2A000498C0F10700052802D30420019003E0AA
:102E3A000498C0F1070001900198039004980430A7
:102E4A00062802D80020009002E004980338009077
:102E5A000098029006980399012202FA01F10139B9
:102E6A000840029B984005999A40013A114008434C
:042E7A0008B07047E5
:102E7E0080B582B001900198FEF7EAFA02B080BDEB
:102E8E0080B590B00F900E9100200D908020C5F669
:102E9E0000000A900F980021C5F60201884245D025
:102EAE000F9840F20041C5F6020188423ED00F98BD
:102EBE0040F60001C5F60201884237D00F9840F661
:102ECE000041C5F60201884230D00F9841F2000150
:102EDE00C5F60201884229D00F9841F20041C5F68D
:102EEE000201884222D00F9841F60001C5F6020178
:102EFE0088421BD00F9841F60041C5F60201884268
:102F0E0014D00F9842F20001C5F6020188420DD08E
:102F1E000F9842F20041C5F60201884206D00F9882
:102F2E0042F60001C5F60201884200D106E043F6E2
:102F3E007210C0F60000BB2100F048FB0E9800880E
:102F4E0018B10E98408800B906E043F67210C0F62C
:102F5E000000BC2100F03AFB0E984068E8B30E98D2
:102F6E004068012839D00E984068112835D00E9847
:102F7E004068022831D00E98406812282DD00E9845
:102F8E0040680021C1F21111884226D00E98406887
:102F9E000021C1F2211188421FD00E9840680021F5
:102FAE00C1F23111884218D00E9840680021C1F24A
:102FBE001211884211D00E9840680021C1F22211E0
:102FCE0088420AD00E9840680021C1F23211884220
:102FDE0003D00E984068032800D106E043F6721025
:102FEE00C0F60000BD2100F0F1FA0E98806838B1ED
:102FFE000E988068012803D00E988068022800D1B0
:10300E0006E043F67210C0F60000BE2100F0DEFAB4
:10301E000E9800680D99C840002800F01F820E9887
:10302E0000680D9A0121914008400C900C980028E0
:10303E0000F010820E98406801280BD00E98406860
:10304E00022807D00E984068112803D00E984068C9
:10305E00122844D10E98C06858B10E98C068012845
:10306E0007D00E98C068022803D00E98C0680328B7
:10307E0000D106E043F67210C0F60000CE2100F03B
:10308E00A5FA0F9880680B900D984100032000FA66
:10309E0001F10B9888430B900E98C0680D9949006A
:1030AE0000FA01F10B9808430B900B980F9988606A
:1030BE000F9840680B900D99012000FA01F10B98C2
:1030CE0088430B900E984068C0F300100D9900FADB
:1030DE0001F10B9808430B900B980F9948600F98CD
:1030EE00C0680B900D984100032000FA01F10B9877
:1030FE0088430B900E9880680D99490000FA01F1F3
:10310E000B9808430B900B980F99C8600E98406867
:10311E00022804D00E984068122840F085800F983F
:10312E000021C5F60201884245D00F9840F20041B9
:10313E00C5F6020188423ED00F9840F60001C5F652
:10314E000201884237D00F9840F60041C5F60201C1
:10315E00884230D00F9841F20001C5F60201884234
:10316E0029D00F9841F20041C5F60201884222D0C3
:10317E000F9841F60001C5F6020188421BD00F9848
:10318E0041F60041C5F60201884214D00F9842F272
:10319E000001C5F6020188420DD00F9842F200419F
:1031AE00C5F60201884206D00F9842F60001C5F618
:1031BE000201884200D106E043F67210C0F600000C
:1031CE00E62100F003FA0E9800690F2800D806E0F9
:1031DE0043F67210C0F60000E72100F0F7F90F98E1
:1031EE000D996FF0030202EA51010844006A0B9038
:1031FE000D9800F0070081000F2000FA01F10B98E6
:10320E0088430B900E9800690D9901F00701890013
:10321E0000FA01F10B9808430B900B980F990D9B38
:10322E0002EA5302114408620F9800680B900D9841
:10323E004100032000FA01F10B9888430B900E9881
:10324E00406800F003000D99490000FA01F10B9857
:10325E0008430B900B980F9908600E98C079C00622
:10326E00002840F1F78044F2F440C5F602000168F0
:10327E0041F002010160006800F002000990099817
:10328E000D9820F0030040F20841C5F600014058A9
:10329E000B900D9800F0030081000F2000FA01F151
:1032AE000B9888430B900F980021C5F602018842B7
:1032BE0002D10020089069E00F9840F20041C5F657
:1032CE000201884202D1012007905DE00F9840F67E
:1032DE000001C5F60201884202D10220069051E09B
:1032EE000F9840F60041C5F60201884202D1032034
:1032FE00059045E00F9841F20001C5F602018842A3
:10330E0002D10420049039E00F9841F20041C5F635
:10331E000201884202D1052003902DE00F9841F65C
:10332E000001C5F60201884202D10620029021E07A
:10333E000F9841F60041C5F60201884202D10720DE
:10334E00019015E00F9842F20001C5F60201884285
:10335E0002D10820009009E00F9942F20042C5F612
:10336E0002020A20914208BF0920009000980190A5
:10337E000198029002980390039804900498059087
:10338E0005980690069807900798089008980D994A
:10339E0001F00301890000FA01F10B9808430B902C
:1033AE000B980D9921F0030140F20842C5F6000278
:1033BE0088500A9800680B900C990B9888430B90D4
:1033CE000E988079C00718B10C990B9808430B9092
:1033DE000B980A9908600A9840680B900C990B9804
:1033EE0088430B900E9880798007002803D50C999E
:1033FE000B9808430B900B980A9948604FF0B04019
:10340E0000680B900C990B9888430B900E9880795E
:10341E00C006002803D50C990B9808430B900B9807
:10342E004FF0B04108600420C5F6000000680B9014
:10343E000C990B9888430B900E9880798006002883
:10344E0003D50C990B9808430B900B980421C5F6E5
:10345E00000108600D9801300D90D9E510B080BDC7
:10346E0080B582B00190ADF80210BDF8020010B127
:10347E00002000B907E043F67210C0F6000040F2DB
:10348E008D1100F0A3F801980069BDF802100842F2
:10349E0003D001208DF8010002E000208DF801001C
:0834AE009DF8010002B080BD91
:1034B60080B582B00190ADF802108DF80120BDF8FC
:1034C600020010B1002000B907E043F67210C0F602
:1034D600000040F2AD1100F07DF89DF8010018B132
:1034E6009DF80100012800D107E043F67210C0F6EE
:1034F60000004FF4D77100F06DF89DF8010020B17F
:10350600BDF802000199886104E0BDF802000004DC
:083516000199886102B080BD3B
:10351E0080B584B002900298022802D00298012849
:10352E0000D107E043F60B30C0F6000040F23F1129
:10353E0000F04CF844F60C00C5F602000068C0F32B
:10354E00800088B944F60C00C5F60200006800F051
:10355E0007000299884203D001208DF80F0027E062
:10356E0000208DF80F0023E044F60C01C5F6020191
:10357E00086820F00700029A10430860FFF7FAFB74
:10358E00019044F60400C5F602000068C0F3403016
:10359E0058B9FFF7EFFB0199401AB0F57A7F03D9BE
:1035AE0001208DF80F0003E0EBE700208DF80F00EF
:0835BE009DF80F0004B080BD70
:0835C60080B5FDF7E9FE80BDB0
:0C35CE0080B5FFF7C7F9FFF7DCF980BDFE
:1035DA0080B582B0019000910199009A43F65C305F
:0C35EA00C0F6000000F002F902B080BD45
:0C35F60040F2F000C2F200400068704794
:1036020080B582B08DF80700FFF7F4FF9DF8072020
:1036120040F2A801C2F2004141F8220002B080BD8E
:08362200FDF79CFDFDF71BF90B
:10362A0084460020002918BF002A00D17047097873
:10363A0048B2002844BF6FF001007047BCF1000F88
:10364A0018BFCCF800100021C3E90011002818BFE8
:04365A000120704794
:10365E007F2884BF0020704743F62842C0F6000240
:10366E00105C43F6EA32C0F60002515C0840704727
:0C367E00A0F161011A2938BF2038704704
:0C368A00A0F141011A2938BF2030704720
:103696007F2884BF0020704743F62842C0F6000208
:1036A600105C43F6EA32C0F60002515C08407047EF
:0C36B600A0F161011A2938BF20387047CC
:0C36C200A0F141011A2938BF20307047E8
:1036CE0010B582B004468DF80710006978B1D4E9C0
:1036DE0000239A4231D26269531C63618154D4E94A
:1036EE000501884229D1204600F02CF825E0E0683B
:1036FE0050B1D4E9002C62451FD2531CB3EB0C031E
:10370E0018BF0B46835418E0A06858B1D4E9002CBA
:10371E00624512D2531CB3EB0C0318BFCBB240F868
:10372E0022300AE0236A43B1D4E90001884204D270
:10373E000DF10701204601229847206801302060D4
:04374E0002B010BDF8
:1037520010B54269002A08BF10BD0446036A002B57
:0C3762001CBF216998470020606110BD69
:10376E0070B514460D460646FFF750FA0146304630
:0C377E002A462346BDE8704000F000B869
:10378A002DE9F04F03AF8DB047F83C3C91460E4609
:10379A00044600F05DF80546EB46073020F00700C6
:1037AA00ADEB0008C546A7F1380A5046002124228D
:1037BA00FDF7DBFA42F64340C0F6000047E907602E
:1037CA006FF0004047F8340C47F8144C47F8205C77
:1037DA0047F8288C5046494657F83C2CFDF7F5FA2D
:0C37EA00DD46A7F10C04A546BDE8F08FF9
:1037F60083B000B582B00DF10C0C8CE80E0040F2DF
:103806003C52C2F200420146106803AA0192FFF739
:0C381600ABFF02B0BDE8004003B07047FB
:1038220040F23C51C2F2004140F240520968091A8A
:10383200C2F2004218BF01211268121A18BF0122F7
:10384200114040F24452C2F200421268101A18BFEC
:083852000120084040427047CC
:04385A004020704753
:10385E0040F20000C2F2004003210161416143F6D3
:10386E000841C0F60001816140F20412C2F200422A
:10387E00C2614FF480620262002282624262C262C0
:10388E00016640F21451C2F2004141661021816678
:10389E000267C2664267BFF35F8F0F2143F6F732AE
:1038AE00C0F60002535C00F8013B0139FAD2BFF3B7
:0438BE005F8F704761
:1038C200C268016991428FBFD043D24311448068DC
:0438D20008447047EF
:1038D6002DE9F0411546884604464068D4E90216AB
:1038E60030448F1B9742414605D9FDF70EFA354401
:1038F600BFF35F8F0BE03A46FDF707FA08EB0701C7
:10390600ED1B60682A46FDF700FABFF35F8FE5609E
:04391600BDE8F08197
:10391A002DE9F843144688460546C7684FF0000962
:10392A002869F943B842AA689ABF08448118014431
:10393A0068683844D61BB14238BF0E46A64228BF33
:10394A00264641463246FDF7DEF9F019A968471ABC
:10395A0018BF0746BFF35F8FEF60A41BB044B144A2
:08396A00DED14846BDE8F883F8
:10397200453A5C50726F6A656374735C4772656541
:103982006E426F5C536F757263655C53746D333254
:10399200483778785F5374645065726970685F4421
:1039A20072697665725C5372635C73746D333268EC
:0F39B2003778785F68616C5F6770696F2E6300AC
:1039C1004A616E75617279004665627275617279DC
:1039D100004D6172636800417072696C004D6179DC
:1039E100004A756E65004A756C790041756775739B
:1039F100740053657074656D626572004F63746F16
:103A0100626572004E6F76656D6265720044656332
:073A1100656D6265720000A3
:073A1800414D00504D00007C
:0F3A1F002561202562202565202554202559008A
:103A2E00453A5C50726F6A656374735C4772656584
:103A3E006E426F5C536F757263655C53746D333297
:103A4E00483778785F5374645065726970685F4464
:103A5E0072697665725C5372635C73746D3332682F
:0E3A6E003778785F68616C5F7263632E630067
:023A7C00430005
:023A7E002E0018
:103A800053756E646179004D6F6E64617900547591
:103A90006573646179005765646E6573646179006C
:103AA0005468757273646179004672696461790063
:0A3AB00053617475726461790000BF
:103ABA00453A5C50726F6A656374735C47726565F8
:103ACA006E426F5C536F757263655C53746D33320B
:103ADA00483778785F5374645065726970685F44D8
:103AEA0072697665725C5372635C73746D333268A3
:103AFA003778785F68616C5F636F727465782E637C
:013B0A0000BA
:103B0B00453A5C50726F6A656374735C47726565A6
:103B1B006E426F5C536F757263655C53746D3332B9
:103B2B00483778785F5374645065726970685F4486
:103B3B0072697665725C5372635C73746D33326851
:103B4B003778785F68616C5F7077725F65782E632A
:013B5B000069
:103B5C0057726F6E6720706172616D6574657273F8
:103B6C002076616C75653A2066696C65202573203A
:0D3B7C006F6E206C696E652025640D0A00D7
:103B890053756E004D6F6E0054756500576564007E
:0D3B990054687500467269005361740000A5
:103BA6004A616E00466562004D61720041707200A6
:103BB6004D6179004A756E004A756C004175670063
:103BC600536570004F6374004E6F76004465630062
:013BD60000EE
:013BD70000ED
:093BD800256D2F25642F257900CD
:093BE10025483A254D3A25530010
:0D3BEA000007032004170201085710408057
:103BF70000000000000054545220524547474553E7
:013C070000BC
:093C08005465726D696E616C0077
:043C14009902000809
:103C1800000000000102030401020304060708096A
:103C28002020202020202020206828282828202024
:103C3800202020202020202020202020202020207C
:103C48004810101010101010101010101010101034
:103C580084848484848484848484101010101010D4
:103C6800108181818181810101010101010101012D
:103C780001010101010101010101011010101010E1
:103C880010828282828282020202020202020202FE
:103C980002020202020202020202021010101020A6
:103CA800303132333435363738394142434445466A
:103CB800303132333435363738396162636465669A
:103CC80000B506480649884205D00268043003B4A6
:103CD800904703BCF7E708BC18470000143C0008ED
:043CE800183C00087C
:103CEC00413D00080000002424050000533D00085D
:103CFC0024050024103D00082D000000C93C0008DC
:043D0C006B08000838
:103D10007408000874080008740800087408000893
:103D20007408000810000000F4000024F8000024CB
:103D3000FC0000240090D0030090D003010000009C
:103D4000206861680834002200E042540139FCD543
:023D50007047BA
:103D520020686168A2680C3401E08B5C8354013AEC
:043D6200FBD57047D6
:040000050800362396
:00000001FF
