:020000040800F2
:1000000000000824E57C0008CF480008D14800081B
:1000100000000000000000000000000000000000E0
:10002000000000000000000000000000D3480008AD
:100030000000000000000000D5480008997B00087F
:10004000DF4B0008E14B0008E34B0008E54B0008DC
:10005000E74B0008E94B0008EB4B0008ED4B0008AC
:10006000EF4B0008F14B0008F34B0008F953000870
:1000700009540008F54B0008F74B0008F94B00083D
:10008000FB4B0008FD4B0008FF4B0008014C00082B
:10009000034C0008054C0008074C0008094C0008F8
:1000A0000B4C00080D4C00080F4C0008114C0008C8
:1000B000134C0008154C0008174C0008194C000898
:1000C0001B4C00081D4C00081F4C0008214C000868
:1000D000234C0008254C0008274C0008294C000838
:1000E0002B4C00082D4C0008F54C00082F4C000844
:1000F000314C0008334C0008354C0008374C0008E0
:10010000394C00083B4C00083D4C00083F4C0008AF
:10011000414C0008434C0008454C0008474C00087F
:10012000494C00084B4C00084D4C00084F4C00084F
:10013000514C0008534C0008554C0008574C00081F
:10014000F54C0008F54C0008F54C0008F54C00088B
:10015000594C00085B4C00085D4C00085F4C0008DF
:10016000614C0008634C0008654C0008674C0008AF
:10017000694C00086B4C00086D4C00086F4C00087F
:10018000714C0008734C0008754C0008774C00084F
:10019000794C00087B4C00087D4C00087F4C00081F
:1001A000814C0008834C0008854C0008874C0008EF
:1001B000894C00088B4C00088D4C00088F4C0008BF
:1001C000914C0008934C0008954C0008974C00088F
:1001D000994C00089B4C00089D4C00089F4C00085F
:1001E000A14C0008A34C0008A54C0008A74C00082F
:1001F000A94C0008AB4C0008AD4C0008AF4C0008FF
:10020000B14C0008B34C0008B54C0008B74C0008CE
:10021000B94C0008BB4C0008BD4C0008BF4C00089E
:10022000C14C0008C34C0008C54C0008F54C000840
:10023000C74C0008C94C0008F54C0008CB4C00081E
:10024000CD4C0008CF4C0008D14C0008D34C00081E
:10025000D54C0008D74C0008D94C0008DB4C0008EE
:10026000DD4C0008DF4C0008E14C0008E34C0008BE
:10027000E54C0008E74C0008E94C0008EB4C00088E
:10028000ED4C0008EF4C0008F14C0008F54C00085C
:08029000F54C0008F34C0008D6
:1002980080B596B044F21040C5F60200006800F040
:1002A800380001460C91182800F22B810C99DFE8E0
:1002B80011F0190028012801280128012801280126
:1002C80028012700280128012801280128012801E0
:1002D80028012D00280128012801280128012801CA
:1002E8002801330044F20040C5F602000068C0F35C
:1002F800C10149F20000C0F2D030C8400F9005E1BA
:1003080040F60010C0F23D000F90FFE047F64000B5
:10031800C0F27D100F90F9E044F22840C5F60200C3
:10032800016801F0030114910068C0F305101390EF
:1003380044F22C40C5F60200006800F0010012905B
:10034800129844F23441C5F60201096889B2C90815
:10035800484300F093FC0E901398002800F0CE80DC
:1003680014980B9030B10B98012839D00B980228BB
:100378005ED085E044F20040C5F602000068C0F394
:10038800C10149F20000C0F2D030C8401190119864
:1003980000F074FC0890139800F070FC014608986F
:1003A80000F0F6FB0A9044F23040C5F602000068FF
:1003B8006FF35F2000F062FC09900E984FF08C41BB
:1003C80000F0E6FB0146099800F0F8FA4FF07E517C
:1003D80000F0F4FA01460A9800F078FB0D9076E0F8
:1003E800139800F04BFC014642F20040C4F674201A
:1003F80000F0CEFB079044F23040C5F602000068DA
:100408006FF35F2000F03AFC06900E984FF08C4195
:1004180000F0BEFB0146069800F0D0FA4FF07E517E
:1004280000F0CCFA0146079800F050FB0D904EE022
:10043800139800F023FC01464BF62040C4F6BE306A
:1004480000F0A6FB059044F23040C5F602000068B3
:100458006FF35F2000F012FC04900E984FF08C416F
:1004680000F096FB0146049800F0A8FA4FF07E5180
:1004780000F0A4FA0146059800F028FB0D9026E04C
:10048800139800F0FBFB014642F20040C4F67420CA
:1004980000F07EFB039044F23040C5F6020000688D
:1004A8006FF35F2000F0EAFB02900E984FF08C414A
:1004B80000F06EFB0146029800F080FA4FF07E5182
:1004C80000F07CFA0146039800F000FB0D9044F21E
:1004D8003040C5F60200006881B2012000EB5120CF
:1004E80015900D980190159800F0C8FB01460198E9
:1004F80000F04EFB00F0B2FB0F9001E000200F90DF
:1005080004E040F60010C0F23D000F9044F218429B
:10051800C5F602021068C0F3032048F26041C0F635
:100528000001085C1090109B0F98D8400F900F980E
:10053800126802F00F02895C01F01F01C84040F602
:100548001411C2F2004108600F9840F61811C2F267
:080558000041086016B080BDEF
:1005600085B0049000208DF80F0004988069E8B9E8
:100570000498806A0290032817D80299DFE801F0F6
:10058000020B0214049890F82F00C00710B101204C
:100590008DF80F0009E00498C06AB0F1C07F02D165
:1005A00001208DF80F0000E0FFE73BE00498806930
:1005B000B0F5005F20D10498806A019003281AD812
:1005C0000199DFE801F00206020F01208DF80F000B
:1005D00011E0049890F82F00C00710B101208DF8A9
:1005E0000F0008E00498C06AB0F1C07F02D101207A
:1005F0008DF80F00FFE715E00498806A009003284B
:1006000003D30098032804D00CE001208DF80F00DC
:1006100008E0049890F82F00C00710B101208DF871
:0C0620000F00FFE79DF80F0005B07047C9
:10062C0080B596B044F21040C5F60200006800F0A8
:10063C00380001460D91182800F26A810D99DFE807
:10064C0011F0190067016701670167016701670114
:10065C006701350067016701670167016701670181
:10066C0067013B006701670167016701670167016B
:10067C006701410044F20040C5F602000068C0F377
:10068C00401068B144F20040C5F602000068C0F3A7
:10069C00C10149F20000C0F2D030C8400E9004E015
:1006AC0049F20000C0F2D0300E9036E140F6001056
:1006BC00C0F23D000E9030E147F64000C0F27D10D4
:1006CC000E902AE144F22840C5F60200016801F0C0
:1006DC00030114910068C0F30510139044F22C40F0
:1006EC00C5F60200006800F001001290129844F266
:1006FC003441C5F60201096889B2C908484300F0C3
:10070C00BBFA10901398002800F0FF8014980C90FE
:10071C0038B10C9801286AD00C98022800F08F8010
:10072C00B5E044F20040C5F602000068C0F340108A
:10073C00A8B344F20040C5F602000068C0F3C10142
:10074C0049F20000C0F2D030C8401190119800F06E
:10075C0093FA0990139800F08FFA0146099800F06B
:10076C0015FA0B9044F23040C5F6020000686FF3A6
:10077C005F2000F081FA0A9010984FF08C4100F045
:10078C0005FA01460A9800F017F94FF07E5100F077
:10079C0013F901460B9800F097F90F9026E0139887
:1007AC0000F06AFA014642F20040C4F6744000F0D0
:1007BC00EDF9089044F23040C5F6020000686FF382
:1007CC005F2000F059FA079010984FF08C4100F020
:1007DC00DDF90146079800F0EFF84FF07E5100F07C
:1007EC00EBF80146089800F06FF90F9076E013983B
:1007FC0000F042FA014642F20040C4F6742000F0C8
:10080C00C5F9069044F23040C5F6020000686FF35B
:10081C005F2000F031FA059010984FF08C4100F0F9
:10082C00B5F90146059800F0C7F84FF07E5100F07D
:10083C00C3F80146069800F047F90F904EE0139864
:10084C0000F01AFA01464BF62040C4F6BE3000F018
:10085C009DF9049044F23040C5F6020000686FF335
:10086C005F2000F009FA039010984FF08C4100F0D3
:10087C008DF90146039800F09FF84FF07E5100F07F
:10088C009BF80146049800F01FF90F9026E013988E
:10089C0000F0F2F9014642F20040C4F6742000F078
:1008AC0075F9029044F23040C5F6020000686FF30F
:1008BC005F2000F0E1F9019010984FF08C4100F0AE
:1008CC0065F90146019800F077F84FF07E5100F081
:1008DC0073F80146029800F0F7F80F9044F230409C
:1008EC00C5F60200006881B2012000EB5120159082
:1008FC000F980090159800F0BFF90146009800F091
:10090C0045F900F0A9F90E9001E000200E9004E0EA
:10091C0040F60010C0F23D000E900E9816B080BD4F
:10092C00034C206804348047FBE704F037F8FEE7FB
:04093C00A08500088A
:0C0940005E8300086C0900084C090008E8
:10094C00217D0008417D00084D7D0008597D00087F
:10095C00797D0008857D00083F4D0008ED7C00087E
:10096C00608300082084000820840008208400088C
:10097C0020840008208400082084000820840008BB
:10098C002084000820840008FFFFFFFFFFFFFFFF0B
:10099C00FFFFFFFFFFFF000062830008D283000807
:1009AC00B3810008EF8300080A8200082184000844
:0809BC002A84000811820008E2
:1009C4004FF07F4C90EA010F38D4431A3CBFC01A51
:1009D400C918BCEB400F72D91CEA410F28D0C20DD4
:1009E400B2EBD1534FF0004C4CEA00204CEA012109
:1009F400C3F1200C01FA0CFC31FA03F1401832BFA8
:100A0400013A5FEA300040F001005CEA406C04BF48
:100A140010F4807F20F08000000A40EBC2504FF0B9
:100A2400807111EB400F38BF70476FF316007047A9
:100A34001CEA400F01D100F00040704781F00041F2
:100A4400431A3EBF83F00043C01AC918BCEB400FE1
:100A540032D91CEA410F28D0C20DA2EBD1534FF07A
:100A6400004C4CEA01214CEA0020C3F1200C11FA9D
:100A74000CFC21FA03F118BF41F00101401A09D41A
:100A840017D0130AD2B2B0FA80F18840521A11DD9D
:100A940002EB0322C0F31621400641EBC25038BFDB
:100AA400704708BF20F0010070471CEA400F08BFE0
:100AB40000207047D8077047BCEB410F03D0BCEB54
:100AC400400F08BF704740F20000C7F6C07070477F
:100AD4004FF0FF0C1CEAD0521EBF1CEAD153FF2A70
:100AE400FF2B28D01A444FF0004C90EA010313EA7C
:100AF4000C034CEA01214CEA0020A0FB01C1B1F136
:100B0400004F62F17F0238BF49004CEA416CFE2A73
:100B140009D253EA11204CEAC07C28BFBCF101037E
:100B240040EBC2507047124244BF18467047FF2042
:100B340043EAC050704710EACC5F08BF00F00040A1
:100B440011EACC5F08BF01F000410CEAD153FF2A3F
:100B540018BFFF2B03D0484000F000407047002826
:100B64001EBFB0F1004F0029B1F1004F0DD0FF2A94
:100B740001D1420209D1FF2B01D14A0205D14840DB
:100B84005FF0FF4161F31E00704740F20000C7F6BA
:040B9400C070704776
:100B9800FF2313EAD0521EBF13EAD153FF2AFF2BBB
:100BA80035D0D21A7F3281EA000C0CF0004C4FF09D
:100BB800004343EA002043EA012130B4431A3CBF12
:100BC80001EB4303013A090AB3FBF1F505FB1133C5
:100BD8001B02B3FBF1F001FB103300EB05201B02F5
:100BE800B3FBF1F505EB00205CEA500050EBC25076
:100BF80030BC002A08DDFF2A38BF70474FF0FF409D
:100C08001CF00041084370470CF00040704703EAAD
:100C1800D153FF2B07D1FF2A14D05FEA412C0DD006
:100C28004FF4400016E0FF2A04D14300B3F17F4F90
:100C38000BD007E01A4305D0002B06D0484000F03F
:100C4800004070474FF4400004E0484000F0004086
:0C0C580040F4000040F0FE40704700BF78
:100C6400C10DD1F19E0105DB000240F0004020FAE5
:100C740001F070474000404038BF0138704700BF62
:100C8400B0FA80F110FA01F30DD0D1F19D01C9053C
:100C940001EB13205B0638BF704700F1010018BF59
:080CA400704720F001007047C9
:100CAC00002B35D129B9B0FBF2FC0CFB12026046CB
:100CBC007047914215D22DE9F041B2FA82F39A4075
:100CCC009940D3F1200C30FA0CFC51EA0C019840FD
:100CDC0000F04EF8280036FA03F200210023BDE89C
:100CEC00F081F0B5B1FBF2FC0CFB1211B2FA82F3FD
:100CFC009A409940D3F1200630FA06F631439840D9
:100D0C0000F036F8614628003200DA400023F0BDCE
:100D1C00F3B5B3FA83FC49085FEA300013FA0CF31D
:100D2C00DCF1200432FA04F423430CB41A0000F072
:100D3C001FF80CBC33FA0CF3DCF11F0C35FA0CF574
:100D4C0018BF013D03BCA5FB026705FB0377801BA5
:100D5C00B941904271EB030C05D3821A71EB03037A
:100D6C00681C0021F0BD02000B0028000021F0BD22
:100D7C00940D4FF6C2752D02B5FBF4F4D60A01366C
:100D8C0004FB04F5A5FB0656F64306EB04165508C2
:100D9C0032BF00277708013505FB1677A6FB0747FE
:100DAC007F0807EBC63714001500E7FB02457F1BD5
:100DBC004D1C0400E7FB014505FB1206A64284BF4F
:100DCC00013DB618964224BF0135B61A704700BFD4
:100DDC005AB3844690EA01039B071FD1830707D0BF
:100DEC0011F8013B00F8013B013AF7D11CE08446B5
:100DFC00203A09D32DE9F007B1E8F807A0E8F80785
:100E0C00203AF9D2BDE8F0071C3205D451F8043B66
:100E1C0040F8043B043AF9D2043205D011F8013BF6
:0C0E2C0000F8013B013AF9D16046704724
:100E380000220B0011001A0084465AB3830704D01D
:100E480000F8011B013AF9D124E0C9B241EA0121B5
:100E580041EA0141202A11D3203A2DE9F0030B463B
:100E68000C460D460E460F4688468946A0E8FA030A
:100E7800203AFBD2BDE8F00320320BD0042A05D378
:100E880040F8041B043A05D0042AF9D200F8011BE3
:080E9800013AFBD160467047EE
:100EA0002DE9F04F89B017468B4680460020C8F8E0
:100EB00000000DF10E00A0F1010A5D4615F8011BBE
:100EC000252907D0002900F09981404606F060FFEF
:100ED000AB46F2E70BF1020B00241BF8012C2A2A87
:100EE00008DC202A13D0232A13D0272A46D14FF416
:100EF00000400FE05D2A06DD672A0FDC5E2A3DD147
:100F00004FF4805006E02B2A38D1202002E0402008
:100F100000E0802004430BF1010BDEE76B2A08DDC3
:100F20006C2A0DD0742A18BF7A2A27D11BF8012BFE
:100F300024E0682A10D06A2A20D11BF8012B08E08F
:100F4000584610F8012B6C2A12D19BF801200BF1A6
:100F5000020B44F0020411E0584610F8012B682AF5
:100F600009D19BF801200BF1020B44F0080405E0C5
:100F700044F0010401E044F004048346622A16DDD3
:100F8000A2F1630015283FF698AF0025DFE800F0D6
:100F90001A0C0B0B0B0B0C0B0B0B0B202C310B0B34
:100FA0003B0B4C0B0B1688E744F480443CE0252AAD
:100FB00079D0582A40F01A8144F4005420062DD4E8
:100FC000002531E017F8041B404606F0E1FE74E707
:100FD00057F8040B210700F10D81A107D8F8001084
:100FE00054BF016022C068E72006302101EAE075A5
:100FF0001AE02006232101EAE07544F4807457F8D2
:10100000040B0021B0E057F8045B15F8011B002920
:101010003FF453AF404606F0BBFEF6E743F25805F7
:10102000782A08BF43F27805600404D4A00708D4E6
:101030003B1D00210BE0A00712D457F8040BC11789
:1010400014E0F81D20F0070707F1080379683868F5
:10105000670713D414F008071CBFC0B200210FE0CB
:10106000F81D20F00707796857F8080B630709D4C3
:10107000230744BF40F3C01140B206E080B2002114
:101080001F4616E040F3C03100B2002905DBA3067D
:101090000ED4630648BF20250BE00023404263EBDB
:1010A00001012D2505E04046252106F071FE04E7EB
:1010B0002B2500266E2A25DD6F3A092A00F27F8053
:1010C000DFE802F005527D7D7D7D267D7D5250EA70
:1010D000010270D0AE46BC46C20842EA41720DF130
:1010E0000E070625134665F3DF00B855013652EAB0
:1010F000D1004FEAD1014FEAD20040EA41721846CE
:10110000F0D155E0582A2FD0642A18BF692A56D149
:1011100050EA01024FD0CDE901570D4607462004A1
:101120000AD506F00300032806D10DF10E092C2084
:1011300009F80600013601E00DF10E0938460A22D1
:101140000023FFF7B3FD00EB8002A7EB420242F061
:10115000300209F806200136D7F109020022AA411F
:10116000DBD3DDE901572AE050EA010223D0AE4685
:10117000A20448F25C52C0F60002BC465CBF48F2D2
:101180006C52C0F60002030943EA017300260DF118
:101190000E0500F00F071846D35DAB55013650EA37
:1011A00011134FEA11114FEA101343EA0173F0D102
:1011B0006746754603E030208DF80E000126FF2DAE
:1011C00004D9290A404606F0E3FD00E01DB140467F
:1011D000294606F0DDFD012EFFF66FAE1AF8061067
:1011E000404606F0D5FD013EF8D866E6002A7FF4B9
:1011F00064AE14E0D8F8001001705EE6D8F80C0078
:1012000028B1D8E9001291423CBF00224254404626
:1012100006F000FED8F8000009B0BDE8F08F4046A7
:0A12200006F0F8FD4FF0FF30F6E78E
:10122A0042F20000C5F20020006800F00F00062814
:10123A0008D842F20001C5F200210868072262F3C9
:10124A000300086044F20041C5F60201086840F054
:10125A000100086044F21042C5F602020020106044
:10126A0008684EF67F52CEF6F6221040086042F227
:10127A000000C5F20020006800F00F00082808D31B
:10128A0042F20001C5F200210868072262F3030056
:10129A00086044F21841C5F602010020086044F2D1
:1012AA001C41C5F60201086044F22041C5F602015C
:1012BA00086044F22842C5F6020240F20021C0F258
:1012CA000221116044F22C42C5F602020021C0F24A
:1012DA00FF11116044F23042C5F6020240F2802149
:1012EA00C0F20111116044F23442C5F602021060E4
:1012FA0044F23842C5F60202116044F23C42C5F695
:10130A000202106044F24042C5F60202116044F241
:10131A004441C5F60201086044F20042C5F60202E1
:10132A00116821F48021116044F26041C5F602017E
:10133A00086041F20000C5F600400068400F28B975
:10134A0048F20811C5F200110120086044F20001B8
:10135A00C5F2002143F2D20008604EF60851CEF2DF
:0A136A0000014FF0006008607047BA
:1013740080B58AB0099044F2E040C5F602000168E5
:1013840041F001010160006800F00100039003983E
:10139400102004900320059000210691079000205E
:1013A400C5F60200019004A9029105F029FE0198F6
:1013B40002992022049205F023FE03F097FD0AB05F
:0213C40080BDEA
:1013C60080B58EB0002002900D900C900B900A9084
:1013D60009900890079006900590049044F2E84022
:1013E600C5F60200016841F001010160006800F0E5
:1013F60001000390039840F21040C2F200400190B1
:101406004FF08041016000214160816040F2AF529F
:10141600C26001614161816103F0B2F808B103F075
:1014260019FB20200B9000200C900D9040F21040EC
:10143600C2F200400BA906F038FA08B103F00AFB25
:1014460040F21040C2F2004003F09DF908B103F0EB
:0614560001FB0EB080BD99
:10145C0080B582B0032000F0A7F8FFF7E1F844F262
:10146C001842C5F602021168C1F3032348F2604129
:10147C00C0F60001CB5C03F01F03D840009000982D
:10148C00126802F00F02895C01F01F01C84040F69F
:10149C001411C2F200410860009840F61811C2F213
:1014AC00004108600F2000F00EF818B101208DF8F3
:1014BC00070004E000F046F800208DF807009DF8C6
:0614CC00070002B080BD24
:1014D20080B582B0009040F6ED00C2F20040007884
:1014E20018B901208DF807002DE040F61810C2F25D
:1014F2000040006840F6ED01C2F200410A784FF464
:101502007A71B1FBF2F1B0FBF1F004F070F818B1AE
:1015120001208DF8070016E000980F280CD80099DA
:101522004FF0FF30002200F063F8009840F60411FB
:10153200C2F20041086003E001208DF8070002E0DA
:0E15420000208DF807009DF8070002B080BD64
:021550007047E2
:1015520040F6ED00C2F20040027840F2B841C2F219
:0A156200004108681044086070475B
:10156C0080B584B0039003F097FF0290039801902C
:10157C000198013038B140F6ED00C2F2004001781C
:10158C0001980844019003F087FF0299401A0199D1
:0A159C00884200D2F7E704B080BDDA
:0E15A60041F20000C5F600400068000C7047DE
:1015B40080B582B00190019807280BD001980628C5
:1015C40008D00198052805D00198042802D0019874
:1015D400032800D106E048F22020C0F60000922142
:0E15E40006F05AFB019803F061FF02B080BDD3
:1015F20080B586B0ADF816000491039203980F28C7
:1016020000D806E048F22020C0F60000AA2106F029
:1016120044FB04980F2800D806E048F22020C0F6C8
:101622000000AB2106F039FB03F05FFF0290BDF929
:101632001600019002980499039A03F07EFF014676
:0A164200019803F05AFF06B080BDC6
:10164C0080B582B0009000980138B0F1807F02D351
:10165C000120019018E0009801384EF21401CEF2EE
:10166C00000108604FF0FF300F2103F041FF4EF2F4
:10167C001801CEF20001002008604EF21002CEF2EA
:0E168C000002072111600190019802B080BD9C
:10169A0080B582B00090009818B901208DF8070033
:1016AA0021E00098006847F20041C4F20001884234
:1016BA0000D107E048F23400C0F600004FF4D671BA
:1016CA0006F0E7FA009902200871009803F0C5FFB6
:1016DA00009900200861009908710099002048715A
:0E16EA0000208DF807009DF8070002B080BDBB
:1016F80080B582B001900198806B0090009803F04B
:06170800D5FB02B080BD1C
:10170E0080B582B001900198806B009000990869B5
:10171E0040F004000861009804F091F8009901204F
:06172E00087102B080BD4D
:1017340080B588B006900591049205984068B8B3C6
:1017440005984068062833D0059840680A282FD0A9
:10175400059840680E282BD005984068122827D099
:1017640005984068162823D0059840681A281FD089
:10177400059840681E281BD005984068222817D079
:1017840005984068262813D0059840682A280FD069
:10179400059840682E280BD005984068322807D059
:1017A40005984068362803D005984068022800D17F
:1017B40007E048F23400C0F6000040F2F93106F0C8
:1017C4006BFA0598806818B105988068022800D1E2
:1017D40007E048F23400C0F6000040F2FA3106F0A7
:1017E4005BFA0598C068012807D00598C0680228EC
:1017F40003D00598C068042800D107E048F23400FB
:10180400C0F6000040F2FB3106F046FA0598006984
:1018140018B105980069012800D107E048F23400A6
:10182400C0F600004FF47F7106F036FA059800699F
:1018340001280CD1059840691F2800D807E048F218
:101844003400C0F6000040F2FF3106F025FA059896
:10185400006818B105980068042800D107E048F230
:101864003400C0F6000040F2014106F015FA059874
:101874000068042826D105988069800A00B907E029
:1018840048F23400C0F6000040F2044106F004FAC5
:101894000598C069800A00B907E048F23400C0F630
:1018A400000040F2054106F0F7F90598006AFF28A8
:1018B40000D807E048F23400C0F6000040F20641C8
:1018C40006F0EAF9049810B10498102800D107E052
:1018D40048F23400C0F600004FF4816106F0DCF9F0
:1018E40006984079012803D102208DF81F0008E1F1
:1018F400069901204871069902200871059800682C
:10190400042868D103F0CCFD0190049818BB069814
:101914000068406B48F20001C2F20001084211D095
:1019240003F0BEFD0199401A02280AD306990869FA
:1019340040F0080008610699032008718DF81F0023
:10194400DFE0E4E70120FFF70FFE059880690699C0
:10195400096808641EE006980068406BC00F88B1EF
:1019640003F09EFD0199401A02280AD306990869DA
:1019740040F0080008610699032008718DF81F00E3
:10198400BFE0E8E70120FFF7EFFD059880690699BD
:101994000968486406980068806C049901F0100294
:1019A40040F2FF31914088430599C9699140084349
:1019B40006990968886406980068C06C049901F067
:1019C4001002FF21914088430599096A9140084318
:1019D40006990968C8640598006901281CD106980D
:1019E4000068806B0390049800F010011F2000FA37
:1019F40001F1039888430390059840690290029886
:101A0400049901F0100100FA01F1039808430390CE
:101A1400039806990968886306980068C06B039068
:101A2400049800F01001072000FA01F1039888439C
:101A340003900598C068012802D1002000900EE0B0
:101A44000598C068022802D10120009007E005989B
:101A5400806810B90120009001E0002000900599F1
:101A64000868896808430099084302900298049919
:101A740001F0100100FA01F1039808430390039860
:101A840006990968C863049800F010014FF4804077
:101A940000FA01F206980168086890430860069805
:101AA400006800680390049800F0100140F6FE708E
:101AB40000FA01F103988843039005984068029066
:101AC4000298049901F0100100FA01F10398084307
:101AD40003900398069909680860049800F01001BF
:101AE400C02000FA01F20698016808689043086073
:101AF40006990120087106990020487100208DF88C
:0A1B04001F009DF81F0008B080BD0F
:101B0E0080B582B001900198806B0090009803F030
:061B1E00ACFE02B080BD28
:101B240080B582B001900198806B0090009908699B
:101B340040F004000861009803F0A0FE0099012021
:061B4400087102B080BD33
:101B4A0083B002900298016801201022C4F20202B6
:101B5A009142009000F091800298016801202822A9
:101B6A00C4F202029142009000F087800298016854
:101B7A0001204022C4F20202914200907DD00298D4
:101B8A00016801205822C4F202029142009074D0E6
:101B9A000298016801207022C4F202029142009068
:101BAA006BD00298016801208822C4F20202914295
:101BBA00009062D0029801680120A022C4F20202B9
:101BCA009142009059D0029801680120B822C4F2CB
:101BDA0002029142009050D002980168012040F21E
:101BEA001042C4F202029142009046D00298016863
:101BFA00012040F22842C4F20202914200903CD0F5
:101C0A0002980168012040F24042C4F20202914265
:101C1A00009032D002980168012040F25842C4F282
:101C2A0002029142009028D002980168012040F2F5
:101C3A007042C4F20202914200901ED002980168DA
:101C4A00012040F28842C4F202029142009014D06C
:101C5A0002980168012040F2A042C4F202029142B5
:101C6A0000900AD0029800684FF64831CBF6FD7111
:101C7A000844B0FA80F0400900900098C00728B3E1
:101C8A000298007810384AF6AB21CAF6AA21A0FBBE
:101C9A00011000090190019800F0070148F2704014
:101CAA00C0F60000405C0299C8650198042806D372
:101CBA0002990868042262F30900886505E002991E
:101CCA00086840F2FF329043886504E00299086888
:0E1CDA0020F0FF0088650298806D03B070470F
:101CE80084B003900398006801900398016801206C
:101CF80045F20842C5F602029142009046D0039888
:101D08000168012045F21C42C5F60202914200908A
:101D18003CD003980168012045F23042C5F6020222
:101D28009142009032D003980168012045F2444264
:101D3800C5F602029142009028D00398016801205C
:101D480045F25842C5F60202914200901ED003980F
:101D58000168012045F26C42C5F6020291420090EA
:101D680014D003980168012045F28042C5F60202AA
:101D7800914200900AD0039800684AF66C31CAF282
:101D8800FD710844B0FA80F0400900900098C0073F
:101D980008B30398007808384CF6CD41CCF6CC410E
:101DA800A0FB011000090290029945F60000C5F653
:101DB800020000EB810003990866039945F680004C
:101DC800C5F602004866029800F01F01012088400D
:101DD8000399886631E00398007810384AF6AB21F9
:101DE800CAF6AA21A0FB011000090290019840F24E
:101DF800B841C4F20201884209D8019840F2104162
:101E0800C4F20201884202D3029808300290029973
:101E180040F60000C4F2020000EB81000399086656
:101E2800039940F68000C4F202004866029800F068
:0E1E38001F01012088400399886604B070479E
:101E460089B008900791069205930898806D0490D2
:101E56000898806D03900898016801201022C4F24A
:101E660002029142029000F0EA800898016801207F
:101E76002822C4F202029142029000F0E080089803
:101E8600016801204022C4F202029142029000F051
:101E9600D6800898016801205822C4F202029142B5
:101EA600029000F0CC800898016801207022C4F2EC
:101EB60002029142029000F0C28008980168012057
:101EC6008822C4F202029142029000F0B88008987B
:101ED60001680120A022C4F202029142029000F0A1
:101EE600AE80089801680120B822C4F2020291422D
:101EF600029000F0A48008980168012040F2104288
:101F0600C4F202029142029000F09980089801689A
:101F1600012040F22842C4F202029142029000F0EF
:101F26008E8008980168012040F24042C4F2020205
:101F36009142029000F0838008980168012040F2E7
:101F46005842C4F202029142029078D00898016881
:101F5600012040F27042C4F20202914202906ED019
:101F660008980168012040F28842C4F202029142B8
:101F7600029064D008980168012040F2A042C4F2A1
:101F86000202914202905AD008980168012040F25C
:101F9600B842C4F202029142029050D008980168F9
:101FA600012045F20842C5F602029142029046D04F
:101FB60008980168012045F21C42C5F602029142CA
:101FC60002903CD008980168012045F23042C5F6DF
:101FD60002029142029032D008980168012045F22F
:101FE6004442C5F602029142029028D00898016840
:101FF600012045F25842C5F60202914202901ED0D7
:1020060008980168012045F26C42C5F60202914229
:10201600029014D008980168012045F28042C5F666
:102026000202914202900AD0089800684AF66C3182
:10203600CAF2FD710844B0FA80F040090290029895
:10204600C00750B10898416E806E48600898C06E0F
:1020560018B10898016F406F486008980168012020
:102066001022C4F202029142019000F09180089879
:10207600016801202822C4F202029142019000F078
:1020860087800898016801204022C4F2020291422A
:1020960001907DD00898016801205822C4F20202FE
:1020A6009142019074D00898016801207022C4F210
:1020B6000202914201906BD00898016801208822A3
:1020C600C4F202029142019062D008980168012090
:1020D600A022C4F202029142019059D008980168E8
:1020E6000120B822C4F202029142019050D0089811
:1020F6000168012040F21042C4F2020291420190AE
:1021060046D008980168012040F22842C4F2020233
:10211600914201903CD008980168012040F240426B
:10212600C4F202029142019032D00898016801205F
:1021360040F25842C4F202029142019028D0089817
:102146000168012040F27042C4F2020291420190FD
:102156001ED008980168012040F28842C4F20202AB
:102166009142019014D008980168012040F2A042E3
:10217600C4F20202914201900AD0089800684FF614
:102186004831CBF6FD710844B0FA80F04009019061
:102196000198C00738B30898C06D00F01F013F20B2
:1021A60088400499886008980168086820F48020AF
:1021B600086005980899096848600898806840286A
:1021C60008D10698089909688860079808990968E7
:1021D600C86007E007980899096888600698089912
:1021E6000968C86075E008980168012045F2084250
:1021F600C5F602029142009046D008980168012077
:1022060045F21C42C5F60202914200903CD0089865
:102216000168012045F23042C5F602029142009063
:1022260032D008980168012045F24442C5F6020200
:102236009142009028D008980168012045F2584242
:10224600C5F60202914200901ED00898016801204E
:1022560045F26C42C5F602029142009014D00898ED
:102266000168012045F28042C5F6020291420090C3
:102276000AD0089800684AF66C31CAF2FD71084423
:10228600B0FA80F0400900900098C00708B308989B
:10229600C06D00F01F010120884003994860059831
:1022A60008990968486008988068402808D1069807
:1022B600089909688860079808990968C86007E05E
:1022C6000798089909688860069808990968C86097
:0622D600FFE709B07047AC
:1022DC0080B590B00F9000200B9040F61810C2F211
:1022EC000040006848F2B511C1F64E31A0FB011058
:1022FC00800A0A900F98806D09900F98806D089055
:10230C00099800680E90089800680D900F98016865
:10231C0001201022C4F202029142079000F0918039
:10232C000F98016801202822C4F202029142079002
:10233C0000F087800F98016801204022C4F202024D
:10234C00914207907DD00F98016801205822C4F269
:10235C0002029142079074D00F98016801207022FC
:10236C00C4F20202914207906BD00F9801680120D1
:10237C008822C4F202029142079062D00F98016841
:10238C000120A022C4F202029142079059D00F986A
:10239C0001680120B822C4F202029142079050D089
:1023AC000F980168012040F21042C4F202029142DF
:1023BC00079046D00F980168012040F22842C4F2E1
:1023CC000202914207903CD00F980168012040F224
:1023DC004042C4F202029142079032D00F98016839
:1023EC00012040F25842C4F202029142079028D0D8
:1023FC000F980168012040F27042C4F2020291422F
:10240C0007901ED00F980168012040F28842C4F258
:10241C0002029142079014D00F980168012040F2FB
:10242C00A042C4F20202914207900AD00F980068B1
:10243C004FF64831CBF6FD710844B0FA80F04009F4
:10244C0007900798C007002800F05F840E980F993A
:10245C00C96D01F01F01C8400007002840F19A80A7
:10246C000F9800681021C4F20201884270D00F98B6
:10247C0000682821C4F20201884269D00F980068D4
:10248C004021C4F20201884262D00F9800685821A2
:10249C00C4F2020188425BD00F9800687021C4F22C
:1024AC000201884254D00F9800688821C4F20201BE
:1024BC0088424DD00F980068A021C4F202018842D6
:1024CC0046D00F980068B821C4F2020188423FD070
:1024DC000F98006840F21041C4F20201884237D0D4
:1024EC000F98006840F22841C4F2020188422FD0B4
:1024FC000F98006840F24041C4F20201884227D094
:10250C000F98006840F25841C4F2020188421FD073
:10251C000F98006840F27041C4F20201884217D053
:10252C000F98006840F28841C4F2020188420FD033
:10253C000F98006840F2A041C4F20201884207D013
:10254C000F98006840F2B841C4F20201884206D1EB
:10255C000F980068006800F00400069005E00F98E2
:10256C000068006800F008000690069890B10F987B
:10257C000168086820F0040008600F98C06D00F036
:10258C001F0108208840099988600F99486D40F018
:10259C00010048650E980F99C96D01F01F01C840E4
:1025AC00C007002800F093800F9800681021C4F237
:1025BC000201884270D00F9800682821C4F20201F1
:1025CC00884269D00F9800684021C4F20201884209
:1025DC0062D00F9800685821C4F2020188425BD087
:1025EC000F9800687021C4F20201884254D00F98F1
:1025FC0000688821C4F2020188424DD00F9800680F
:10260C00A021C4F20201884246D00F980068B8217C
:10261C00C4F2020188423FD00F98006840F210418A
:10262C00C4F20201884237D00F98006840F228416A
:10263C00C4F2020188422FD00F98006840F240414A
:10264C00C4F20201884227D00F98006840F258412A
:10265C00C4F2020188421FD00F98006840F270410A
:10266C00C4F20201884217D00F98006840F28841EA
:10267C00C4F2020188420FD00F98006840F2A041CA
:10268C00C4F20201884207D00F98006840F2B841AA
:10269C00C4F20201884206D10F980068406900F02C
:1026AC008000059004E00F980068006800200590F9
:1026BC00059860B10F98C06D00F01F010120884093
:1026CC00099988600F99486D40F0020048650E9892
:1026DC000F99C96D01F01F01C8404007002840F157
:1026EC0093800F9800681021C4F20201884270D0C8
:1026FC000F9800682821C4F20201884269D00F9813
:10270C0000684021C4F20201884262D00F98006830
:10271C005821C4F2020188425BD00F9800687021E6
:10272C00C4F20201884254D00F9800688821C4F288
:10273C00020188424DD00F980068A021C4F202011A
:10274C00884246D00F980068B821C4F20201884232
:10275C003FD00F98006840F21041C4F20201884249
:10276C0037D00F98006840F22841C4F20201884229
:10277C002FD00F98006840F24041C4F20201884209
:10278C0027D00F98006840F25841C4F202018842E9
:10279C001FD00F98006840F27041C4F202018842C9
:1027AC0017D00F98006840F28841C4F202018842A9
:1027BC000FD00F98006840F2A041C4F20201884289
:1027CC0007D00F98006840F2B841C4F20201884269
:1027DC0006D10F980068006800F00200049004E035
:1027EC000F980068006800200490049860B10F985E
:1027FC00C06D00F01F0104208840099988600F9972
:10280C00486D40F0040048650E980F99C96D01F0B1
:10281C001F01C840C006002840F1BB800F9800681B
:10282C001021C4F20201884270D00F980068282150
:10283C00C4F20201884269D00F9800684021C4F2AA
:10284C000201884262D00F9800685821C4F202013C
:10285C0088425BD00F9800687021C4F20201884254
:10286C0054D00F9800688821C4F2020188424DD0E0
:10287C000F980068A021C4F20201884246D00F983C
:10288C000068B821C4F2020188423FD00F9800685A
:10289C0040F21041C4F20201884237D00F98006810
:1028AC0040F22841C4F2020188422FD00F980068F0
:1028BC0040F24041C4F20201884227D00F980068D0
:1028CC0040F25841C4F2020188421FD00F980068B0
:1028DC0040F27041C4F20201884217D00F98006890
:1028EC0040F28841C4F2020188420FD00F98006870
:1028FC0040F2A041C4F20201884207D00F98006850
:10290C0040F2B841C4F20201884206D10F98006827
:10291C00006800F00800039005E00F98006800685C
:10292C0000F004000390039898B30F98C06D00F06A
:10293C001F0110208840099988600F980068006872
:10294C004003002813D50F98006800680003002886
:10295C0006D40F98006C10B10F98016C884705E0F5
:10296C000F98806C10B10F98816C884711E00F980C
:10297C0000680068C005002805D40F980168086835
:10298C0020F0080008600F98006C10B10F98016CD3
:10299C0088470E980F99C96D01F01F01C840800639
:1029AC00002840F1F8800F9800681021C4F2020151
:1029BC00884270D00F9800682821C4F20201884226
:1029CC0069D00F9800684021C4F20201884262D09D
:1029DC000F9800685821C4F2020188425BD00F980E
:1029EC0000687021C4F20201884254D00F9800682C
:1029FC008821C4F2020188424DD00F980068A021B2
:102A0C00C4F20201884246D00F980068B821C4F283
:102A1C00020188423FD00F98006840F21041C4F286
:102A2C000201884237D00F98006840F22841C4F266
:102A3C00020188422FD00F98006840F24041C4F246
:102A4C000201884227D00F98006840F25841C4F226
:102A5C00020188421FD00F98006840F27041C4F206
:102A6C000201884217D00F98006840F28841C4F2E6
:102A7C00020188420FD00F98006840F2A041C4F2C6
:102A8C000201884207D00F98006840F2B841C4F2A6
:102A9C000201884206D10F980068006800F010000F
:102AAC00029005E00F980068006800F002000290A8
:102ABC00029800286FD00F98C06D00F01F012020E5
:102ACC008840099988600F9890F8350004282ED119
:102ADC000F980168086820F0160008600F980168CC
:102AEC00486920F0800048610F98006C10B90F986D
:102AFC00806C28B10F980168086820F00800086005
:102B0C000F98C06D00F01F013F2088400999886024
:102B1C000F99002081F834000F99012081F83500BD
:102B2C000F98006D10B10F98016D884781E30F98D5
:102B3C00006800684003002813D50F9800680068EF
:102B4C000003002806D40F98406C10B10F98416C0C
:102B5C00884705E00F98C06B10B10F98C16B884780
:102B6C0019E00F9800680068C00500280DD40F9874
:102B7C000168086820F0100008600F99002081F8A7
:102B8C0034000F99012081F835000F98C06B10B1FB
:102B9C000F98C16B88470F98406D002800F0B480E7
:102BAC000F98406DC007002800F0A8800F990420F2
:102BBC0081F835000F9800681021C4F20201884298
:102BCC0070D00F9800682821C4F20201884269D0A5
:102BDC000F9800684021C4F20201884262D00F981D
:102BEC0000685821C4F2020188425BD00F9800683B
:102BFC007021C4F20201884254D00F9800688821D9
:102C0C00C4F2020188424DD00F980068A021C4F292
:102C1C000201884246D00F980068B821C4F2020124
:102C2C0088423FD00F98006840F21041C4F2020174
:102C3C00884237D00F98006840F22841C4F2020154
:102C4C0088422FD00F98006840F24041C4F2020134
:102C5C00884227D00F98006840F25841C4F2020114
:102C6C0088421FD00F98006840F27041C4F20201F4
:102C7C00884217D00F98006840F28841C4F20201D4
:102C8C0088420FD00F98006840F2A041C4F20201B4
:102C9C00884207D00F98006840F2B841C4F2020194
:102CAC00884206D10F980168086820F0010008607E
:102CBC0005E00F980168086820F0010008600B9887
:102CCC0001300B900A99884200D905E00F980068F2
:102CDC000068C0070028F2D10F99002081F8340059
:102CEC000F9800680068C00720B10F99032081F885
:102CFC00350003E00F99012081F835000F98C06C66
:102D0C0010B10F98C16C884793E20F9801680120AD
:102D1C0045F20842C5F602029142019046D00F9846
:102D2C000168012045F21C42C5F602029142019055
:102D3C003CD00F980168012045F23042C5F60202E2
:102D4C009142019032D00F980168012045F2444223
:102D5C00C5F602029142019028D00F98016801201B
:102D6C0045F25842C5F60202914201901ED00F98CE
:102D7C000168012045F26C42C5F6020291420190B5
:102D8C0014D00F980168012045F28042C5F602026A
:102D9C00914201900AD00F9800684AF66C31CAF241
:102DAC00FD710844B0FA80F0400901900198C00709
:102DBC00002800F03E820F98006800680C900D9877
:102DCC000F99C96D01F01F01C8404007002840F160
:102DDC00B7809DF830004007002840F1B1800F9873
:102DEC00C06D00F01F0104208840089948609DF8D0
:102DFC0031000006002811D59DF83200C00730B90B
:102E0C000F98806C10B10F98816C884705E00F9873
:102E1C00006C10B10F98016C884790E09DF8300061
:102E2C008006002800F185800F9800681021C4F2FC
:102E3C000201884270D00F9800682821C4F2020168
:102E4C00884269D00F9800684021C4F20201884280
:102E5C0062D00F9800685821C4F2020188425BD0FE
:102E6C000F9800687021C4F20201884254D00F9868
:102E7C0000688821C4F2020188424DD00F98006886
:102E8C00A021C4F20201884246D00F980068B821F4
:102E9C00C4F2020188423FD00F98006840F2104102
:102EAC00C4F20201884237D00F98006840F22841E2
:102EBC00C4F2020188422FD00F98006840F24041C2
:102ECC00C4F20201884227D00F98006840F25841A2
:102EDC00C4F2020188421FD00F98006840F2704182
:102EEC00C4F20201884217D00F98006840F2884162
:102EFC00C4F2020188420FD00F98006840F2A04142
:102F0C00C4F20201884207D00F98006840F2B84121
:102F1C00C4F20201884206D10F980168086820F0BB
:102F2C000800086005E00F980168086820F00400AC
:102F3C0008600F98006C10B10F98016C884777E10E
:102F4C000D980F99C96D01F01F01C840800700282A
:102F5C0040F1BF809DF830008007002840F1B98017
:102F6C000F98C06D00F01F0102208840089948603E
:102F7C009DF831000006002811D59DF83200C007DD
:102F8C0030B90F98406C10B10F98416C884705E030
:102F9C000F98C06B10B10F98C16B884798E09DF8E3
:102FAC0030008006002800F18D800F9800681021F9
:102FBC00C4F20201884270D00F9800682821C4F234
:102FCC000201884269D00F9800684021C4F20201C6
:102FDC00884262D00F9800685821C4F202018842DE
:102FEC005BD00F9800687021C4F20201884254D063
:102FFC000F9800688821C4F2020188424DD00F98C6
:10300C000068A021C4F20201884246D00F980068E3
:10301C00B821C4F2020188423FD00F98006840F2F8
:10302C001041C4F20201884237D00F98006840F278
:10303C002841C4F2020188422FD00F98006840F258
:10304C004041C4F20201884227D00F98006840F238
:10305C005841C4F2020188421FD00F98006840F218
:10306C007041C4F20201884217D00F98006840F2F8
:10307C008841C4F2020188420FD00F98006840F2D8
:10308C00A041C4F20201884207D00F98006840F2B8
:10309C00B841C4F20201884206D10F980168086851
:1030AC0020F01400086005E00F980168086820F013
:1030BC000A0008600F99002081F834000F99012054
:1030CC0081F835000F98C06B10B10F98C16B884711
:1030DC00AEE00D980F99C96D01F01F01C8400007B3
:1030EC00002840F1A5809DF830000007002840F131
:1030FC009F800F9800681021C4F20201884270D0A2
:10310C000F9800682821C4F20201884269D00F98F8
:10311C0000684021C4F20201884262D00F98006816
:10312C005821C4F2020188425BD00F9800687021CC
:10313C00C4F20201884254D00F9800688821C4F26E
:10314C00020188424DD00F980068A021C4F2020100
:10315C00884246D00F980068B821C4F20201884218
:10316C003FD00F98006840F21041C4F2020188422F
:10317C0037D00F98006840F22841C4F2020188420F
:10318C002FD00F98006840F24041C4F202018842EF
:10319C0027D00F98006840F25841C4F202018842CF
:1031AC001FD00F98006840F27041C4F202018842AF
:1031BC0017D00F98006840F28841C4F2020188428F
:1031CC000FD00F98006840F2A041C4F2020188426F
:1031DC0007D00F98006840F2B841C4F2020188424F
:1031EC0006D10F980168086820F01C00086005E003
:1031FC000F980168086820F00E0008600F98C06DE9
:10320C0000F01F01012000FA01F1089A51600F999A
:10321C0048650F99002081F834000F99012081F83E
:10322C0035000F98C06C10B10F98C16C8847FFE740
:06323C00FFE710B080BDA9
:1032420080B58CB00A900A9820B901208DF82F0021
:1032520000F0BFBD0A98006800B30A980078C00762
:10326200E0B90A98006800F00200022816D00A9815
:10327200006800F01000102810D00A98006800F0D2
:10328200080008280AD00A98006800F00400042800
:1032920004D00A9800788006002800D507E048F29A
:1032A200EA00C0F6000040F29D1104F0F6FC0A9814
:1032B2000078C007002800F0B2800A98406848B140
:1032C2000A984068B0F5803F04D00A984068B0F58B
:1032D200A02F00D107E048F2EA00C0F600004FF448
:1032E200D17104F0DAFC44F21040C5F60200006825
:1032F20000F03800069044F22840C5F6020000684B
:1033020005900698102807D00698182815D1059818
:1033120000F00300022810D144F20040C5F602007A
:103322000068C0F3404038B10A98406820B90120D3
:103332008DF82F0000F04DBD71E00A984068B0F59D
:10334200803F08D144F20041C5F60201086840F40A
:10335200803008602DE00A98406860B944F200416C
:10336200C5F60201086820F480300860086820F47D
:10337200802008601DE00A984068B0F5A02F0CD1AB
:1033820044F20041C5F60201086840F4802008605A
:10339200086840F4803008600BE044F20041C5F652
:1033A2000201086820F480300860086820F4802058
:1033B20008600A984068C8B102F073F8099044F2B4
:1033C2000040C5F602000068C0F3404068B902F050
:1033D20068F80999401A41F28931884204D30320DE
:1033E2008DF82F0000F0F5BCE9E718E002F059F87B
:1033F200099044F20040C5F602000068C0F3404064
:1034020068B102F04EF80999401A41F289318842B6
:1034120004D303208DF82F0000F0DBBCE9E70A9803
:1034220000788007002840F1F4800A98C06898B1BB
:103432000A98C06801280FD00A98C06801280BD0EA
:103442000A98C068092807D00A98C068112803D0D2
:103452000A98C068192800D107E048F2EA00C0F6CD
:1034620000004FF4EB7104F018FC0A9800697F2801
:1034720000D807E048F2EA00C0F6000040F2D71197
:1034820004F00BFC44F21040C5F60200006800F0A4
:103492003800049044F22840C5F602000068039008
:1034A200049830B10498182841D19DF80C00800787
:1034B200E8BB44F20040C5F602000068C0F3800099
:1034C20038B10A98C06820B901208DF82F0000F0A9
:1034D20080BCFEF767F841F2030188421AD80A98C5
:1034E2000069402809D144F20441C5F60201086886
:1034F200202262F3113008600BE044F20441C5F669
:103502000201086820F47C300A9A126940EA02300B
:1035120008600BE044F20441C5F60201086820F09D
:10352200FE400A9A126940EA0260086071E00A9855
:10353200C06800284FD044F20041C5F60201086875
:1035420020F019000A9AD2681043086001F0A9FF1E
:10355200099044F20040C5F602000068C0F3800002
:1035620058B901F09EFF0999401A032804D3032099
:103572008DF82F0000F02DBCEBE7FEF713F841F2B7
:10358200030188421AD80A980069402809D144F2F6
:103592000441C5F602010868202262F31130086076
:1035A2000BE044F20441C5F60201086820F47C30C5
:1035B2000A9A126940EA023008600BE044F20441C0
:1035C200C5F60201086820F0FE400A9A126940EA34
:1035D200026008601DE044F20041C5F6020108687D
:1035E20020F00100086001F05CFF099044F2004005
:1035F200C5F602000068C0F3800050B101F051FF2F
:103602000999401A032803D303208DF82F00E0E321
:10361200ECE70A980078C006002840F1E2800A9898
:10362200C06918B10A98C069802800D107E048F241
:10363200EA00C0F6000040F2192104F02EFB0A98BD
:10364200006A3F2800D807E048F2EA00C0F600000E
:1036520040F21A2104F021FB44F21040C5F60200A8
:10366200006800F03800029044F22840C5F60200DB
:10367200006801900298082807D00298182842D1C1
:10368200019800F0030001283DD144F20040C5F644
:1036920002000068C0F3002038B10A98C06980288F
:1036A20003D001208DF82F0093E3FDF77BFF41F259
:1036B200030188421AD80A98006A202809D144F2E4
:1036C2000441C5F602010868102262F39E60086098
:1036D2000BE044F20441C5F60201086820F0F8400C
:1036E2000A9A126A40EA826008600BE044F20C41D6
:1036F200C5F60201086820F07C500A9A126A40EA74
:10370200026008606DE00A98C06900284BD044F25C
:103712000041C5F60201086840F08000086001F02F
:10372200C0FE099044F20040C5F602000068C0F3F2
:10373200002050B901F0B5FE0999401A032803D3BD
:1037420003208DF82F0044E3ECE7FDF72BFF41F255
:10375200030188421AD80A98006A202809D144F243
:103762000441C5F602010868102262F39E600860F7
:103772000BE044F20441C5F60201086820F0F8406B
:103782000A9A126A40EA826008600BE044F20C4135
:10379200C5F60201086820F07C500A9A126A40EAD3
:1037A200026008601DE044F20041C5F602010868AB
:1037B20020F08000086001F074FE099044F200409D
:1037C200C5F602000068C0F3002050B101F069FEA6
:1037D2000999401A032803D303208DF82F00F8E239
:1037E200ECE70A980078000700284FD50A9840694C
:1037F20018B10A984069012800D107E048F2EA00AE
:10380200C0F6000040F25B2104F047FA0A984069D2
:10381200F0B144F27441C5F60201086840F00100BB
:10382200086001F03EFE099044F27440C5F60200C1
:103832000068C0F3400050B901F033FE0999401A04
:10384200032803D303208DF82F00C2E2ECE71DE02A
:1038520044F27441C5F60201086820F001000860D4
:1038620001F01FFE099044F27440C5F602000068A0
:10387200C0F3400050B101F014FE0999401A032828
:1038820003D303208DF82F00A3E2ECE70A98007817
:10389200800600284FD50A98806918B10A98806975
:1038A200012800D107E048F2EA00C0F6000040F229
:1038B200862104F0F2F90A988069F0B144F20041DD
:1038C200C5F60201086840F48050086001F0E9FD85
:1038D200099044F20040C5F602000068C0F340308F
:1038E20050B901F0DEFD0999401A032803D30320E1
:1038F2008DF82F006DE2ECE71DE044F20041C5F6C1
:103902000201086820F48050086001F0CAFD0990A5
:1039120044F20040C5F602000068C0F3403050B1E6
:1039220001F0BFFD0999401A032803D303208DF843
:103932002F004EE2ECE70A9800784007002840F199
:10394200A0800A98806838B10A988068012803D05C
:103952000A988068052800D107E048F2EA00C0F61C
:1039620000004FF42C7104F098F944F60001C5F6FA
:103972000201086840F48070086001F092FD09902D
:1039820044F60000C5F602000068C00500280AD40B
:1039920001F087FD0999401A652803D303208DF8A9
:1039A2002F0016E2ECE70A988068012808D144F259
:1039B2007041C5F60201086840F0010008602CE081
:1039C2000A98806860B944F27041C5F6020108683D
:1039D20020F001000860086820F0040008601CE084
:1039E2000A98806805280CD144F27041C5F602019C
:1039F200086840F004000860086840F001000860B0
:103A02000BE044F27041C5F60201086820F00100A3
:103A12000860086820F0040008600A988068C0B155
:103A220001F03FFD099044F27040C5F602000068C3
:103A3200C0F3400060B901F034FD0999401A41F227
:103A42008931884203D303208DF82F00C1E1EAE7D0
:103A520017E001F026FD099044F27040C5F602001D
:103A62000068C0F3400060B101F01BFD0999401AE3
:103A720041F28931884203D303208DF82F00A8E157
:103A8200EAE70A98406A38B10A98406A012803D0E6
:103A92000A98406A022800D107E048F2EA00C0F61C
:103AA200000040F2E22104F0F8F80A98406A002887
:103AB20000F08C8144F21040C5F60200006800F06C
:103AC2003800182800F040810A98406A022840F025
:103AD2001C810A98806A01280AD00A98806A38B143
:103AE2000A98806A032803D00A98806A022800D1C3
:103AF20007E048F2EA00C0F6000040F2EB2104F0D1
:103B0200CCF80A98C06A20B10A98C06A3F2800D847
:103B120007E048F2EA00C0F600004FF43B7104F0FF
:103B2200BCF80A98006B042805D30A98006BB0F51C
:103B3200007F00D807E048F2EA00C0F6000040F239
:103B4200ED2104F0AAF80A98406B20B10A98406B64
:103B5200802800D807E048F2EA00C0F6000040F2F0
:103B6200EE2104F09AF80A98806B20B10A98806BD3
:103B7200802800D807E048F2EA00C0F6000040F2D0
:103B8200EF2104F08AF80A98C06B20B10A98C06B42
:103B9200802800D807E048F2EA00C0F600004FF49F
:103BA2003C7104F07AF80A98806C400B00B907E087
:103BB20048F2EA00C0F6000040F2F12104F06DF88C
:103BC20044F20041C5F60201086820F080700860E6
:103BD20001F067FC099044F20040C5F6020000685B
:103BE200C0F3406050B101F05CFC0999401A03280F
:103BF20003D303208DF82F00EBE0ECE744F22841D9
:103C0200C5F60201086840F2F33290430A9B9A6AB1
:103C1200DB6A42EA0312104308600A99086BD1F882
:103C220034C08B6BCA6B01386FF35F204FF60061B3
:103C3200CFF6FF7101EB4C2189B208440021CFF687
:103C4200FF7101EB034101F4FE0108444FF07F4193
:103C520001EB026101F0FE41084444F23041C5F635
:103C62000201086044F22C41C5F602010091086885
:103C720020F00100086044F23442C5F602021068E6
:103C82004FF6F87398430A9B9B6C40EAC30010609E
:103C9200086820F00C000A9A126C10430860086849
:103CA20020F002000A9A526C10430860086840F43F
:103CB20080300860086840F400300860086840F40A
:103CC20080200860086840F00100086044F200416A
:103CD200C5F60201086840F08070086001F0E1FB5F
:103CE200099044F20040C5F602000068C0F340604B
:103CF20050B901F0D6FB0999401A032803D30320D7
:103D02008DF82F0065E0ECE71DE044F20041C5F6B6
:103D12000201086820F08070086001F0C2FB09907F
:103D220044F20040C5F602000068C0F3406050B1A2
:103D320001F0B7FB0999401A032803D303208DF839
:103D42002F0046E0ECE741E044F22840C5F60200CD
:103D52000068089044F23040C5F6020000680790FF
:103D62000A98406A01282DD0089800F003000A99A9
:103D7200896A884226D10898C0F305110A98C06A58
:103D820088421FD107986FF35F200A99096B0139A6
:103D9200884217D1BDF81C00410A0A98406B0138CD
:103DA20088420FD10798C0F306410A98806B013808
:103DB200884207D10798C0F306610A98C06B0138A0
:103DC200884203D001208DF82F0002E000208DF8F8
:0A3DD2002F009DF82F000CB080BDFB
:103DDC0080B586B004900391049818B901208DF831
:103DEC001700C6E30498006820B1049800683F28C7
:103DFC0000D807E048F2EA00C0F6000040F27E313D
:103E0C0003F046FF039860B30398012829D0039868
:103E1C00022826D00398032823D00398042820D006
:103E2C00039805281DD0039806281AD00398072854
:103E3C0017D00398082814D00398092811D0039898
:103E4C000A280ED003980B280BD003980C2808D006
:103E5C0003980D2805D003980E2802D003980F283C
:103E6C0000D107E048F2EA00C0F6000040F27F31D2
:103E7C0003F00EFF039842F20001C5F2002109681D
:103E8C0001F00F01884213D942F20000C5F2002064
:103E9C00016821F00F01039A11430160006800F0E2
:103EAC000F000399884203D001208DF8170060E3BE
:103EBC00049800784007002831D50498006944F232
:103ECC001841C5F60201096801F07001884226D933
:103EDC000498006978B10498006940280BD00498C4
:103EEC000069502807D004980069602803D0049812
:103EFC000069702800D107E048F2EA00C0F6000023
:103F0C0040F29B3103F0C4FE44F21841C5F60201A5
:103F1C00086820F07000049A126910430860049835
:103F2C0000780007002831D50498406944F21C4100
:103F3C00C5F60201096801F07001884226D904987F
:103F4C00406978B10498406940280BD004984069C6
:103F5C00502807D004984069602803D00498406921
:103F6C00702800D107E048F2EA00C0F6000040F2E9
:103F7C00AD3103F08DFE44F21C41C5F60201086818
:103F8C0020F07000049A526910430860049800787D
:103F9C00C006002835D50498806944F21C41C5F64A
:103FAC000201096801F4E06188422AD90498806909
:103FBC0098B104988069B0F5806F0ED00498806930
:103FCC00B0F5A06F09D004988069B0F5C06F04D02B
:103FDC0004988069B0F5E06F00D107E048F2EA0080
:103FEC00C0F6000040F2BE3103F052FE44F21C4118
:103FFC00C5F60201086820F4E060049A9269104347
:10400C000860049800788006002831D50498C069AF
:10401C0044F22041C5F60201096801F070018842A2
:10402C0026D90498C06978B10498C06940280BD08F
:10403C000498C069502807D00498C069602803D040
:10404C000498C069702800D107E048F2EA00C0F675
:10405C0000004FF4747103F01BFE44F22041C5F6CE
:10406C000201086820F07000049AD26910430860BD
:10407C00049800788007002841D50498C06844F261
:10408C001841C5F60201096801F00F01884236D9C2
:10409C000498C068F8B10498C06808281BD004982C
:1040AC00C068092817D00498C0680A2813D004984F
:1040BC00C0680B280FD00498C0680C280BD004984B
:1040CC00C0680D2807D00498C0680E2803D0049847
:1040DC00C0680F2800D107E048F2EA00C0F60000E3
:1040EC0040F2E33103F0D4FD44F21841C5F602016D
:1040FC00086820F00F00049AD268104308600498F6
:10410C000078C007002800F0BD800498806838B3A0
:10411C0004988068B0F5006F22D004988068B0F5E0
:10412C00106F1DD004988068B0F5206F18D00498DB
:10413C008068B0F5306F13D004988068B0F5406F8C
:10414C000ED004988068B0F5506F09D00498806840
:10415C00B0F5606F04D004988068B0F5706F00D132
:10416C0007E048F2EA00C0F6000040F2F33103F039
:10417C008FFD0498406801280AD00498406838B133
:10418C0004984068022803D004984068032800D1A2
:10419C0007E048F2EA00C0F600004FF47D7103F02E
:1041AC0077FD44F21841C5F60201086820F47060EE
:1041BC00049A9268104308600498406802280CD155
:1041CC0044F20040C5F602000068C0F3404018B944
:1041DC0001208DF81700CCE12DE0049840680328ED
:1041EC000CD144F20040C5F602000068C0F34060F8
:1041FC0018B901208DF81700BBE11CE00498406849
:10420C0001280CD144F20040C5F602000068C0F34E
:10421C00002018B901208DF81700AAE10BE044F238
:10422C000040C5F602000068C0F3800018B90120F8
:10423C008DF817009DE144F21041C5F602010868A3
:10424C0020F00700049A52681043086001F024F92A
:10425C00019044F21040C5F60200006800F03800EE
:10426C0004994968C90088420CD001F015F90199EC
:10427C00401A41F28931884203D303208DF817008C
:10428C0077E1E6E7049800788007002841D5049888
:10429C00C06844F21841C5F60201096801F00F012B
:1042AC00884236D20498C068F8B10498C0680828CF
:1042BC001BD00498C068092817D00498C0680A2835
:1042CC0013D00498C0680B280FD00498C0680C2831
:1042DC000BD00498C0680D2807D00498C0680E282D
:1042EC0003D00498C0680F2800D107E048F2EA0018
:1042FC00C0F6000040F2354103F0CAFC44F218410C
:10430C00C5F60201086820F00F00049AD268104329
:10431C000860039842F20001C5F20021096801F01F
:10432C000F01884213D242F20000C5F2002001684E
:10433C0021F00F01039A11430160006800F00F0097
:10434C000399884203D001208DF8170011E10498DD
:10435C0000784007002831D50498006944F21841D0
:10436C00C5F60201096801F07001884226D2049852
:10437C00006978B10498006940280BD00498006952
:10438C00502807D004980069602803D0049800696D
:10439C00702800D107E048F2EA00C0F6000040F2B5
:1043AC00564103F075FC44F21841C5F60201086849
:1043BC0020F07000049A1269104308600498007889
:1043CC000007002831D50498406944F21C41C5F619
:1043DC000201096801F07001884226D204984069F4
:1043EC0078B10498406940280BD004984069502853
:1043FC0007D004984069602803D00498406970285D
:10440C0000D107E048F2EA00C0F600004FF48D61DD
:10441C0003F03EFC44F21C41C5F60201086820F092
:10442C007000049A52691043086004980078C00622
:10443C00002835D50498806944F21C41C5F6020168
:10444C00096801F4E06188422AD20498806998B125
:10445C0004988069B0F5806F0ED004988069B0F52F
:10446C00A06F09D004988069B0F5C06F04D004988F
:10447C008069B0F5E06F00D107E048F2EA00C0F6C1
:10448C00000040F27A4103F003FC44F21C41C5F6F3
:10449C000201086820F4E060049A926910430860F5
:1044AC00049800788006002831D50498C06944F23D
:1044BC002041C5F60201096801F07001884226D23C
:1044CC000498C06978B10498C06940280BD004984E
:1044DC00C069502807D00498C069602803D004989C
:1044EC00C069702800D107E048F2EA00C0F600006D
:1044FC0040F28C4103F0CCFB44F22041C5F60201A2
:10450C00086820F07000049AD26910430860FCF728
:10451C0087F844F21842C5F602021168C1F303236E
:10452C0048F26041C0F60001CB5C03F01F03D84099
:10453C0000900098126802F00F02895C01F01F01D4
:10454C00C84040F61411C2F200410860009840F6D1
:10455C001811C2F20041086040F60410C2F200408B
:10456C000068FCF7B0FF8DF80B009DF80B008DF880
:0A457C0017009DF8170006B080BD7F
:1045860080B582B00090009818B901208DF8070018
:10459600F5E0009800680021C4F20101884264D069
:1045A60000980068B0F1804F5FD00098006840F234
:1045B6000041C4F20001884257D00098006840F6D6
:1045C6000001C4F2000188424FD00098006840F60E
:1045D6000041C4F20001884247D00098006841F2C9
:1045E6000001C4F2000188423FD00098006841F201
:1045F6000041C4F20001884237D00098006840F2BA
:104606000041C4F2010188422FD00098006841F6AB
:104616000001C4F20001884227D00098006841F6E4
:104626000041C4F2000188421FD00098006842F29F
:104636000001C4F20001884217D00098006844F2D5
:104646000001C4F2010188420FD00098006844F2CC
:104656000041C4F20101884207D00098006844F680
:104666000001C4F20101884200D107E048F245107A
:10467600C0F600004FF48B7103F00DFB00988068C4
:1046860078B10098806810280BD0009880682028A0
:1046960007D000988068402803D00098806860287A
:1046A60000D107E048F24510C0F6000040F21711AD
:1046B60003F0F1FA0098006948B100980069B0F576
:1046C600807F04D000980069B0F5007F00D107E034
:1046D60048F24510C0F600004FF48C7103F0DBFA87
:1046E6000098806918B100988069802800D107E099
:1046F60048F24510C0F6000040F2191103F0CBFA5B
:10470600009890F83D0030B90099002081F83C00EF
:10471600009803F010F80099022081F83D000099F6
:1047260051F8040B03F00BF80099012081F84800BA
:104736000099012081F83E00009981F83F00009918
:1047460081F84000009981F84100009981F8420003
:10475600009981F843000099012081F844000099EE
:1047660081F84500009981F84600009981F84700D4
:104776000099012081F83D0000208DF807009DF882
:06478600070002B080BD37
:10478C0080B584B00290029800680021C4F2010147
:10479C00884264D002980068B0F1804F5FD00298D4
:1047AC00006840F20041C4F20001884257D00298E0
:1047BC00006840F60001C4F2000188424FD0029814
:1047CC00006840F60041C4F20001884247D00298CC
:1047DC00006841F20001C4F2000188423FD0029807
:1047EC00006841F20041C4F20001884237D00298BF
:1047FC00006840F20041C4F2010188422FD00298B7
:10480C00006841F60001C4F20001884227D00298EA
:10481C00006841F60041C4F2000188421FD00298A2
:10482C00006842F20001C4F20001884217D00298DD
:10483C00006844F20001C4F2010188420FD00298D2
:10484C00006844F20041C4F20101884207D002988A
:10485C00006844F60001C4F20101884200D107E06F
:10486C0048F24510C0F6000040F2971103F010FA20
:10487C00029890F83D00012803D001208DF80F001C
:10488C001BE00299022081F83D00029800688068C4
:10489C000721C0F20101084001900198062809D0B7
:1048AC000198B0F5803F05D002980168086840F087
:1048BC000100086000208DF80F009DF80F0004B077
:0248CC0080BDAD
:0248CE00704731
:0248D000FEE701
:0248D20070472D
:0248D40070472B
:1048D60080B59EB00BA84C21FCF7ABFA00200190E6
:1048E6000A9009900890079006900590049003900E
:1048F600022002F0CCFE0020029040F22C40C5F6C9
:104906000000016821F001010160006800F001006B
:10491600029044F61800C5F602000168012262F30F
:104926008F310160006800F440400290029844F61E
:104936001800C5F60200006800F40050B0F5005FEC
:1049460000D0F4E702200B9001210E9140210F9137
:1049560014900021159104211691092117911890A0
:1049660019901A900C211B911C904FF440601D90D9
:104976000BA8FEF763FC08B100F06CF83F2003902B
:1049860000200490059006900790089009900A90E0
:1049960003A80121FFF71FFA08B100F05BF81EB06B
:0249A60080BDD2
:1049A80080B588B000200590079003F0F5F80598C9
:1049B80040F6EC02C2F20042012111708DF81B0092
:1049C8009DF81B007F2812DC9DF81B2002F00100D7
:1049D800C0EB0030000140F20001C2F2004141F892
:1049E80022009DF81B0001308DF81B00E8E74FF40A
:1049F8007A7003F00BF940F6EC00C2F20040007840
:104A080030B30020C5F6020002900821039101226C
:104A180002F008FE029803990022049202F002FEB6
:104A280004996A460420106040F29C40C2F200409B
:104A380040F20002C2F20042802300F013FE08B1E7
:104A480000F007F840F6EC01C2F2004100200870BF
:024A5800CDE7A8
:104A5A0080B548F2A010C0F6000003F028FA012041
:064A6A0003F0D3F8FBE7A6
:104A7000BFF34F8FBFF36F8F4EF65071CEF2000130
:104A8000002008604EF61451CEF20001086840F490
:0E4A900000300860BFF34F8FBFF36F8F704789
:104A9E0083B04EF68451CEF2000100200860BFF3C1
:104AAE004F8F4EF68050CEF20000006802900298B2
:104ABE00C0F34E3001900298C0F3C90000900199E6
:104ACE000098800761F34D104EF66071CEF2000132
:104ADE0008600098411E00910028F0D10198411EF7
:104AEE0001910028E7D1BFF34F8F4EF61451CEF24D
:104AFE000001086840F480300860BFF34F8FBFF3A9
:064B0E006F8F03B0704739
:104B140080B582B08DF8060000919DF8061040F62D
:104B2400CC00C2F20040405C58B19DF8062040F62B
:104B3400CC01C2F20041002088549DF8060003F025
:104B4400BFF89DF8061040F25C40C2F2004050F8F5
:104B5400211040F2B040C2F2004001600168009AA6
:104B64000A4440F2B441C2F200410A600068096894
:104B7400884211D203F09EF840F2B441C2F20041DF
:104B84000968884207D39DF8060003F099F80120CC
:104B94008DF807001DE019E003F08CF840F2B041F5
:104BA400C2F200410968884210D203F083F840F24F
:104BB400B441C2F200410968884207D99DF8060051
:104BC40003F07EF801208DF8070002E000208DF844
:0A4BD40007009DF8070002B080BD45
:024BDE00FEE7F0
:024BE000FEE7EE
:024BE200FEE7EC
:024BE400FEE7EA
:024BE600FEE7E8
:024BE800FEE7E6
:024BEA00FEE7E4
:024BEC00FEE7E2
:024BEE00FEE7E0
:024BF000FEE7DE
:024BF200FEE7DC
:024BF400FEE7DA
:024BF600FEE7D8
:024BF800FEE7D6
:024BFA00FEE7D4
:024BFC00FEE7D2
:024BFE00FEE7D0
:024C0000FEE7CD
:024C0200FEE7CB
:024C0400FEE7C9
:024C0600FEE7C7
:024C0800FEE7C5
:024C0A00FEE7C3
:024C0C00FEE7C1
:024C0E00FEE7BF
:024C1000FEE7BD
:024C1200FEE7BB
:024C1400FEE7B9
:024C1600FEE7B7
:024C1800FEE7B5
:024C1A00FEE7B3
:024C1C00FEE7B1
:024C1E00FEE7AF
:024C2000FEE7AD
:024C2200FEE7AB
:024C2400FEE7A9
:024C2600FEE7A7
:024C2800FEE7A5
:024C2A00FEE7A3
:024C2C00FEE7A1
:024C2E00FEE79F
:024C3000FEE79D
:024C3200FEE79B
:024C3400FEE799
:024C3600FEE797
:024C3800FEE795
:024C3A00FEE793
:024C3C00FEE791
:024C3E00FEE78F
:024C4000FEE78D
:024C4200FEE78B
:024C4400FEE789
:024C4600FEE787
:024C4800FEE785
:024C4A00FEE783
:024C4C00FEE781
:024C4E00FEE77F
:024C5000FEE77D
:024C5200FEE77B
:024C5400FEE779
:024C5600FEE777
:024C5800FEE775
:024C5A00FEE773
:024C5C00FEE771
:024C5E00FEE76F
:024C6000FEE76D
:024C6200FEE76B
:024C6400FEE769
:024C6600FEE767
:024C6800FEE765
:024C6A00FEE763
:024C6C00FEE761
:024C6E00FEE75F
:024C7000FEE75D
:024C7200FEE75B
:024C7400FEE759
:024C7600FEE757
:024C7800FEE755
:024C7A00FEE753
:024C7C00FEE751
:024C7E00FEE74F
:024C8000FEE74D
:024C8200FEE74B
:024C8400FEE749
:024C8600FEE747
:024C8800FEE745
:024C8A00FEE743
:024C8C00FEE741
:024C8E00FEE73F
:024C9000FEE73D
:024C9200FEE73B
:024C9400FEE739
:024C9600FEE737
:024C9800FEE735
:024C9A00FEE733
:024C9C00FEE731
:024C9E00FEE72F
:024CA000FEE72D
:024CA200FEE72B
:024CA400FEE729
:024CA600FEE727
:024CA800FEE725
:024CAA00FEE723
:024CAC00FEE721
:024CAE00FEE71F
:024CB000FEE71D
:024CB200FEE71B
:024CB400FEE719
:024CB600FEE717
:024CB800FEE715
:024CBA00FEE713
:024CBC00FEE711
:024CBE00FEE70F
:024CC000FEE70D
:024CC200FEE70B
:024CC400FEE709
:024CC600FEE707
:024CC800FEE705
:024CCA00FEE703
:024CCC00FEE701
:024CCE00FEE7FF
:024CD000FEE7FD
:024CD200FEE7FB
:024CD400FEE7F9
:024CD600FEE7F7
:024CD800FEE7F5
:024CDA00FEE7F3
:024CDC00FEE7F1
:024CDE00FEE7EF
:024CE000FEE7ED
:024CE200FEE7EB
:024CE400FEE7E9
:024CE600FEE7E7
:024CE800FEE7E5
:024CEA00FEE7E3
:024CEC00FEE7E1
:024CEE00FEE7DF
:024CF000FEE7DD
:024CF200FEE7DB
:024CF400FEE7D9
:104CF600F8B51D4617460C460646184603F0EFF86B
:104D0600002803D407FB04F2A24201D20020F8BD1A
:0E4D16002846314600F01CF8B0FBF4F0F8BD62
:104D240040F2C841C2F200410868002802BF40F6C0
:0A4D3400F000C2F200400860704772
:0E4D3E007F298EBF6FF00100017001207047C9
:0A4D4C00436A08460121FFF7D0BFBB
:064D5600006800F02DB81A
:104D5C0070B5144600EB400040F20022C2F2004253
:104D6C0002EBC00202F11806D06A02280AD00D46E6
:104D7C0001280DD020B9304603F0FEF8A0420DD228
:104D8C00002410E030462246BDE8704003F020B904
:104D9C00304603F0F1F8A04238BF044630462946AD
:0A4DAC00224603F0F3F8204670BD24
:104DB600F8B514460D4640F20021C2F200410646FF
:104DC6000878002808BF03F0A8F8EFF311874FF022
:104DD600200181F31188304629462246FFF7BBFFA2
:064DE60087F31188F8BDFF
:104DEC0080B58AB044F2E840C5F60200016841F093
:104DFC0000510160006800F000500090009840F2F3
:104E0C009C40C2F2004047F20041C4F20001016034
:104E1C00FCF73DFC08B1FFF71AFE40F29C40C2F2D1
:104E2C00004040F29831C2F20041816040F22031E2
:104E3C00C2F20041C1600268116841F480511160F6
:104E4C0000F0D8FB08B1FFF702FE002201920A2005
:104E5C00029002200390012004900590069040F2ED
:104E6C009C40C2F2004001A9FCF75EFC08B1FFF7C0
:104E7C00EEFD40F29C40C2F2004001A91022FCF76A
:104E8C0053FC08B1FFF7E3FD40F29C40C2F2004036
:104E9C000268116841F0010111600168086840F472
:084EAC00803008600AB080BDEF
:084EB40081B0009001B07047CD
:104EBC0080B584B003900020C5F602000090082154
:104ECC0001910122029202F0ABFB009801990022A1
:104EDC0002F0A6FB029840F6EC01C2F20041087009
:044EEC0004B080BDD1
:104EF00080B584B044F2D840C5F60200016841F0A4
:104F000001010160006800F001000390039840F285
:104F10009830C2F200402821C4F20201016001F081
:104F200041FB08B1FFF799FD40F29830C2F2004012
:104F3000029043214160402181600021C1604FF413
:104F4000806202614FF4805242614FF4804282617C
:104F50004FF48072C2614FF440320262416200F04D
:104F600093FC08B1FFF779FD40F29830C2F200409F
:104F700000681021C4F20201884200F0A18040F2D2
:104F80009830C2F2004000682821C4F20201884231
:104F900000F0968040F29830C2F200400068402154
:104FA000C4F20201884200F08B8040F29830C2F2D5
:104FB000004000685821C4F20201884200F080805D
:104FC00040F29830C2F2004000687021C4F2020141
:104FD000884275D040F29830C2F2004000688821C3
:104FE000C4F2020188426BD040F29830C2F2004015
:104FF0000068A021C4F20201884261D040F29830DA
:10500000C2F200400068B821C4F20201884257D0C1
:1050100040F29830C2F20040006840F21041C4F201
:10502000020188424CD040F29830C2F20040006841
:1050300040F22841C4F20201884241D040F2983047
:10504000C2F20040006840F24041C4F202018842CE
:1050500036D040F29830C2F20040006840F2584129
:10506000C4F2020188422BD040F29830C2F20040D4
:10507000006840F27041C4F20201884220D040F240
:105080009830C2F20040006840F28841C4F2020148
:10509000884215D040F29830C2F20040006840F2D9
:1050A000A041C4F2020188420AD040F29830C2F214
:1050B0000040006840F2B841C4F20201884209D1C0
:1050C00040F29830C2F200400168086840F00100E8
:1050D000086008E040F29830C2F2004001680868B9
:1050E00040F0010008600C20019000210422FCF730
:1050F00080FA019800F054FA40F29830C2F2004071
:1051000000681021C4F20201884200F0A18040F240
:105110009830C2F2004000682821C4F2020188429F
:1051200000F0968040F29830C2F2004000684021C2
:10513000C4F20201884200F08B8040F29830C2F243
:10514000004000685821C4F20201884200F08080CB
:1051500040F29830C2F2004000687021C4F20201AF
:10516000884275D040F29830C2F200400068882131
:10517000C4F2020188426BD040F29830C2F2004083
:105180000068A021C4F20201884261D040F2983048
:10519000C2F200400068B821C4F20201884257D030
:1051A00040F29830C2F20040006840F21041C4F270
:1051B000020188424CD040F29830C2F200400068B0
:1051C00040F22841C4F20201884241D040F29830B6
:1051D000C2F20040006840F24041C4F2020188423D
:1051E00036D040F29830C2F20040006840F2584198
:1051F000C4F2020188422BD040F29830C2F2004043
:10520000006840F27041C4F20201884220D040F2AE
:105210009830C2F20040006840F28841C4F20201B6
:10522000884215D040F29830C2F20040006840F247
:10523000A041C4F2020188420AD040F29830C2F282
:105240000040006840F2B841C4F20201884209D12E
:1052500040F29830C2F200400168086840F008004F
:10526000086008E040F29830C2F200400168086827
:1052700040F00400086040F29830C2F2004000683C
:105280001021C4F20201884200F0A18040F298305F
:10529000C2F2004000682821C4F20201884200F0F6
:1052A000968040F29830C2F2004000684021C4F27B
:1052B0000201884200F08B8040F29830C2F2004038
:1052C00000685821C4F20201884200F0808040F258
:1052D0009830C2F2004000687021C4F20201884296
:1052E00075D040F29830C2F2004000688821C4F2C4
:1052F000020188426BD040F29830C2F20040006850
:10530000A021C4F20201884261D040F29830C2F27A
:1053100000400068B821C4F20201884257D040F230
:105320009830C2F20040006840F21041C4F202011D
:1053300088424CD040F29830C2F20040006840F2FF
:105340002841C4F20201884241D040F29830C2F2B2
:105350000040006840F24041C4F20201884236D069
:1053600040F29830C2F20040006840F25841C4F266
:10537000020188422BD040F29830C2F2004000680F
:1053800040F27041C4F20201884220D040F29830CD
:10539000C2F20040006840F28841C4F20201884233
:1053A00015D040F29830C2F20040006840F2A041AF
:1053B000C4F2020188420AD040F29830C2F20040A2
:1053C000006840F2B841C4F20201884209D140F2BB
:1053D0009830C2F200400168086840F01000086090
:1053E00008E040F29830C2F200400168086840F0DE
:0853F0000200086004B080BD5A
:1053F80080B540F2A820C2F20040FCF76BFF80BDE8
:1054080080B540F29830C2F20040FCF763FF80BDDF
:1054180080B58EB044F2E040C5F60200016841F064
:1054280001010160006800F001000890089844F24A
:10543800E040C5F60200016841F010010160006813
:1054480000F01000079007980820059009900120A7
:1054580006900A90002003900B9003210C910D9068
:1054680041F20000C5F60200049009A9019101F07B
:10547800C5FD0199059809900020C5F60200029023
:1054880001F0BCFD0298039A059902F0CBF8049844
:0C5498000599069A02F0C6F80EB080BD1F
:0C54A40040F2B840C2F2004000687047BF
:1054B00083B00290029800F0070000904EF60C5165
:1054C000CEF200010868019001984FF6FF021040EB
:1054D00001900198009A40EA02200022C0F2FA529C
:0C54E000104301900198086003B0704771
:1054EC004EF60C50CEF200000068C0F3022070475C
:1054FC0082B0ADF806000091BDF90600B0F1FF3F97
:10550C000BDC00980001BDF8061001F00F014EF6FF
:10551C001452CEF20002885408E000980001BDF944
:10552C0006104EF20042CEF20002885402B07047D0
:10553C0088B0079006910592079800F00700049038
:10554C000498C0F10700052802D30420019003E061
:10555C000498C0F10700019001980390049804305E
:10556C00062802D80020009002E00498033800902E
:10557C000098029006980399012202FA01F1013970
:10558C000840029B984005999A40013A1140084303
:04559C0008B070479C
:1055A00080B582B0ADF80600BDF90600002800D431
:1055B00006E048F22020C0F60000BE2102F06EFB9B
:0C55C000BDF9060000F002F802B080BD4A
:1055CC0081B0ADF80200BDF9021001F01F020120FC
:1055DC0090404A094EF20011CEF2000141F822002F
:0455EC0001B0704753
:1055F00080B582B001900198FCF728F802B080BD18
:1056000080B582B00090009818B901208DF807008D
:1056100024E00098006847F20041C4F2000188428B
:1056200000D107E048F23400C0F600004FF4B77133
:1056300002F034FB0098007928B9009900204871E5
:105640000098FBF797FE009902200871009900204E
:105650000861009A012111718DF807009DF807007B
:0456600002B080BD57
:0856640081B0009001B0704715
:10566C0080B58AB0DDF830C008900791069205939A
:10567C0000200390079810B10798102800D107E07C
:10568C0048F23400C0F6000040F2662102F000FB44
:10569C000C9828B10C98042802D00C98082800D13A
:1056AC0007E048F23400C0F6000040F2672102F037
:1056BC00EFFA08984079012803D102208DF82700D1
:1056CC00ACE00899012048710899022008710798EC
:1056DC00A0BB0898816845F63100C0F60000C8638D
:1056EC000898816841F2F960C0F6000008640898D7
:1056FC00816841F20F70C0F60000C8640898016818
:10570C00086840F4805008600C98029030B1029800
:10571C00042808D0029808280AD00EE008980068DF
:10572C000830039009E0089800680C30039004E0FE
:10573C000898006810300390FFE733E00898C168C0
:10574C0045F65500C0F60000C8630898C16841F6DC
:10575C000F30C0F6000008640898C16841F6253087
:10576C00C0F60000C86408980168086840F08050D2
:10577C0008600C98019030B10198042808D0019869
:10578C0008280AD00EE0089800681430039009E04D
:10579C00089800681830039004E0089800681C30E2
:1057AC000390FFE7079878B908980168086840F4F7
:1057BC0000500860089880680699039A059B01F0D0
:1057CC00F1F88DF813000EE008980168086840F0B5
:1057DC00005008600898C0680699039A059B01F070
:1057EC00E1F88DF813000899002048719DF813001A
:1057FC0058B9079800F01001012000FA01F208983E
:10580C00016808681043086004E00899086940F0D2
:10581C00040008619DF813008DF827009DF82700FF
:04582C000AB080BD81
