:020000040800F2
:10000000000008241B6300086142000863420008E6
:1000100000000000000000000000000000000000E0
:100020000000000000000000000000006542000821
:100030000000000000000000674200087F62000826
:10004000FD430008FF430008014400080344000882
:100050000544000807440008094400080B44000850
:100060000D4400080F440008114400081344000820
:10007000C3470008212400081B2500081544000878
:1000800017440008194400081B4400081D440008D8
:100090001F440008214400082344000825440008A8
:1000A00027440008294400082B4400082D44000878
:1000B0002F44000831440008334400083544000848
:1000C00037440008394400083B4400083D44000818
:1000D0003F440008414400084344000845440008E8
:1000E00047440008494400080F4500084B440008F5
:1000F0004D4400084F440008514400085344000890
:100100005544000857440008594400085B4400085F
:100110005D4400085F440008034A00086144000889
:100120006344000865440008674400086944000807
:100130006B4400086D4400086F44000871440008D7
:100140000F4500080F4500080F4500080F4500083F
:100150007344000875440008774400087944000897
:100160007B4400087D4400087F4400088144000867
:100170008344000885440008874400088944000837
:100180008B4400088D4400088F4400089144000807
:1001900093440008954400089744000899440008D7
:1001A0009B4400089D4400089F440008A1440008A7
:1001B000A3440008A5440008A7440008A944000877
:1001C000AB440008AD440008AF440008B144000847
:1001D000B3440008B5440008B7440008B944000817
:1001E000BB440008BD440008BF440008C1440008E7
:1001F000C3440008C5440008C7440008C9440008B7
:10020000CB440008CD440008CF440008D144000886
:10021000D3440008D5440008D7440008D944000856
:10022000DB440008DD440008DF4400080F450008F7
:10023000E1440008E34400080F450008E5440008D5
:10024000E7440008E9440008EB440008ED440008D6
:10025000EF440008F1440008F3440008F5440008A6
:10026000F7440008F9440008FB440008FD44000876
:10027000FF44000801450008034500080545000843
:1002800007450008094500080B4500080F45000810
:080290000F4500080D450008B0
:100298002DE9F843044604F02CFC002C00F02B81D7
:1002A80040F26F4805462068C4F20208404507DC62
:1002B800A8F5747188420FDC483988420ADD22E0CB
:1002C80045F22F41C5F60201884213DC08F14801C6
:1002D800884220DC473917E001F56271884212DC58
:1002E800A1F28731884223D01831884220D001F505
:1002F80056711AE03C318842CCBF01313B39884203
:1003080016D014310EE00131884211D018318842DC
:100318000ED0183109E00131884209D045F2084170
:10032800C5F60201884203D01431884240F0448265
:10033800A06820B1402818BF802840F01381E068E9
:1003480040F40070B0F5007F06D046F2FB60E32170
:10035800C0F6000005F0D3FF206940F48060B0F5D6
:10036800806F06D046F2FB60E421C0F6000005F07D
:10037800C6FF606930B1B0F5006F18BFB0F5805F97
:1003880040F0F880A06930B1B0F5005F18BFB0F553
:10039800804F40F0F780E069FF2809DDB0F5807FE5
:1003A80018BFB0F5802F0DD0B0F5402F0AD002E06D
:1003B80040B1202806D046F2FB60E721C0F60000D5
:1003C80005F09DFF206A4FEA3040042806D346F224
:1003D800FB60E821C0F6000005F091FF2068404569
:1003E80007DCA8F57471884210DC483988420BDDB7
:1003F80024E045F22F41C5F60201884214DC08F1D9
:100408004801884200F3C680473918E001F5627157
:10041800884213DCA1F28731884219D0183188420A
:1004280016D001F5567110E03C318842D4BF3B39F3
:100438000131884200F0BB801431B3E001318842B9
:1004480006D01831884203D01831884240F01A810A
:100458006068742806D346F2FB60EC21C0F6000001
:1004680005F04DFF606A40F00401042907D046F208
:10047800FB60ED21C0F6000005F041FF606A08B39B
:10048800A06A042806D346F2FB60F221C0F60000F9
:1004980005F035FFE06A4FEAF050042806D346F22B
:1004A800FB60F321C0F6000005F029FF206B4FEA3E
:1004B8007050042806D346F2FB60F421C0F6000011
:1004C80005F01DFF002084F83400022084F8350070
:1004D8002068016821F00101016020680168C907EE
:1004E8000CD004F006FB401B0628F6D320206065DC
:1004F800032084F835000120BDE8F88348F23F0264
:100508000168CFF61062114004F108024CCA114389
:100518001943D4E905523143D4E907360D43616ADA
:100528002B4333431343042903D1D4E90B652E43EA
:10053800334341F20006C5F600463668B6F1005F5F
:10054800C0F08A806568A5F13F06132E7ED8012782
:10055800B74040F20F36C0F20F06374276D043F468
:10056800801379E046F2FB60E221C0F6000005F056
:10057800C6FEE4E646F2FB60E521C0F6000005F0A1
:10058800BEFEFFE646F2FB60E621C0F6000005F07D
:10059800B6FE00E7013188423FF45AAF45F2084100
:1005A800C5F60201884202D0143188426AD16068D7
:1005B800122807D346F2FB604FF4B371C0F600006F
:1005C80005F09DFE002084F83400022084F83500F0
:1005D8002068D4E9021ED4E90665A1F18003D4F8A5
:1005E80020C0D4E9049702684029B3FA83F346EAA5
:1005F80005016FF3101241EA070141EA090142EAD5
:10060800DE021ABF5B099B0310231A434CF6CD4345
:1006180042EAD1014AF6F832CAF2FD72CCF6CC436E
:10062800024441EA1C11A2FB032301606FF003009E
:1006380000EA9300E065204604F079FBE16D0122B1
:1006480001F01F0102FA01F1416041E0A5F129061C
:10065800062E38BF43F4801303600429436923F04E
:10066800070341EA030128D1D4E90A53294323B3F4
:10067800B2F5005F08D09AB9022D14D0012D09D027
:100688008DB11AE0402032E7032D16D8DFE805F0D7
:100698000E0B0E02A3F1C072B2FA82F2520904E004
:1006A800032D03D309D1C3F3006232B14020606542
:1006B800012084F83500BDE8F8834161204604F044
:1006C80036FBE16D3F2201F01F0102FA01F1816062
:1006D8002068404508DC9F21C4F20201884211DCF1
:1006E800483988420CDD23E045F22F41C5F6020166
:1006F800884215DC40F2B741C4F2020188421FDC8F
:10070800473916E001F56271884211DCA1F28731A0
:10071800884229D01831884226D001F5567121E047
:100728003C31884217DC3B3988421DD014310EE039
:100738000131884218D01831884215D0183111E09B
:100748000131884210D045F20841C5F602018842BD
:100758000AD0143106E00131884205D02831884298
:1007680002D01439884220D1204602F001FAA0684C
:10077800802802D10020606000E0606804F1600217
:10078800C1B201388CCA072811605F6009D82046B9
:1007980004F00FFB04F16C00002307C803604A60F3
:1007A80003E000206067C4E91B00002060650121A8
:1007B80084F83510BDE8F88346F2FB60E121C0F605
:0807C800000005F09CFDB3E503
:1007D0000000000000000000000000000000000019
:1007E0000000000000000000000000000000000009
:1007F00008000000090000000A0000000B000000D3
:100800000C0000000D0000000E0000000F000000B2
:100810002DE9F0470446C07844F210450007C5F6BC
:10082000020521D5606E4FEA3051032908D8DFE870
:1008300001F002090E16E96941F40031E9610EE0A8
:10084000012612E0201D022105F0E1F804E004F188
:100850002400022103F059FA060006D1606E296CCB
:1008600021F440110843286400266078C00701D1B4
:10087000374623E0606D04280AD83746DFE800F0E9
:10088000030B10161600E86940F40030E8610DE033
:100890000127BA4613E0201D002105F0B8F804E056
:1008A00004F12400002103F030FA0746BA4637B9B4
:1008B000286C616D20F0070008432864B246607818
:1008C000800724D5A06D4FEAB010042809D8DFE8CE
:1008D00000F0030B10161600E86940F40030E861E0
:1008E0000DE00127012613E0201D002105F08FF8FF
:1008F00004E004F12400002103F007FA07463E4615
:1009000037B9286CA16D20F4E0700843286456467E
:100910006078400726D5D4F8A4004FEA7050042828
:1009200009D8DFE800F0030B10161600E86940F460
:100930000030E8610DE00127B94614E0201D0021D8
:1009400005F065F804E004F12400002103F0DDF96E
:100950000746B9463FB9A86CD4F8A41020F460004B
:100960000843A864B1466078000726D5D4F8A800EB
:100970004FEA3060042809D8DFE800F0030B1016B6
:100980001600E86940F40030E8610DE00127BA463E
:1009900014E0201D002105F03AF804E004F12400E1
:1009A000002103F0B2F90746BA463FB9A86CD4F863
:1009B000A81020F0E0600843A864CA46E0788007E9
:1009C0001DD5A06C4FEA3010032808D8DFE800F0EE
:1009D0000F020A0FE86940F40030E86107E00127E0
:1009E00001260DE0201D022105F011F807463E46C4
:1009F00037B9E86BA16C20F030000843E863564635
:100A00006078C00624D5E06D4FEA3030042809D85C
:100A1000DFE800F0030B10161600E86940F4003020
:100A2000E8610DE00127BA4613E0201D002104F023
:100A3000EEFF04E004F12400002103F066F907460C
:100A4000BA4637B9286CE16D20F4E04008432864C9
:100A5000B246607880061FD5206E4FEA30400528E8
:100A600009D8DFE800F011030B111111201D01213D
:100A700004F0CDFF07E0012701260EE004F1240079
:100A8000012103F042F907463E4637B9286C216E32
:100A900020F4E0200843286456466078400621D5BB
:100AA000D4F8AC004FEA3070052809D8DFE800F030
:100AB00011030B111111201D012104F0A8FF07E003
:100AC0000127BA460FE004F12400012103F01DF9CB
:100AD0000746BA463FB9A86CD4F8AC1020F0E04005
:100AE0000843A864B2466078000619D5E06E78B174
:100AF000B0F1005F07D0B0F1805F21D1E86940F428
:100B00000030E86104E0201D012104F080FF074669
:100B1000B94637B9286CE16E20F04050084328648C
:100B2000D146E078C0071ED0606C03280BD8DFE800
:100B300000F012020D12E86940F40030E8610AE0AA
:100B40000127B946EDE70127B8460DE0201D022137
:100B500004F05DFF0746B84637B9E86B616C20F0DA
:100B600003000843E863C846A078400601D4C246A3
:100B7000E5E040F2FF21D4F8B000C0F20201884263
:100B800016DCA1F58031884226DCB0F5034F42DA4D
:100B9000B0F5864F6EDAB0F50C5F80F26183B0F588
:100BA000807F00F0B580B0F5007F00F0B18072E387
:100BB00001F5803188421FDCA1F50041884238DC14
:100BC000A1F58041884260DCA1F50051884200F324
:100BD000978040F200317EE001F50041884233DC2D
:100BE000A1F58041884257DCA1F50051884200F30D
:100BF000878040F2003177E001F5004188422EDC29
:100C0000A1F5804188424EDCA1F50051884277DC95
:100C100040F2003171E0B0F5434F4BDAB0F5234FAD
:100C200080F22583B0F5034F72D0B0F5134F6FD02B
:100C300031E301F58041884247DCA1F5005188424B
:100C40005EDC48F2003146E001F58041884245DC37
:100C5000A1F50051884253DC48F2003144E001F52F
:100C60008041884243DCA1F50051884248DC48F2CB
:100C7000003142E0B0F5C64F80F20083B0F5864FF8
:100C800046D0B0F5A64F43D005E301F500518842A8
:100C900036DC44F200311EE001F5005188422FDCC1
:100CA00044F2003120E001F50051884228DC44F292
:100CB000003122E0B0F5634F80F2E782B0F5434F98
:100CC00026D0B0F5534F23D0E5E201F5005188421C
:100CD00016DC4CF20031C0F2020112E001F50051C5
:100CE00088420DDC4CF20031C0F2010109E001F54F
:100CF0000051884204DC4CF20031C0F2030100E0F4
:100D00000131884204D001F58051884240F0C3820D
:100D1000D5F8F00340F48070C5F8F00303F0EDFE61
:100D20000646D5F8F003C00507D403F0E6FE801BA5
:100D30006428F6D90327BA4601E0BA468FB1207875
:100D4000C00747D0A06F4FEAF000052831D8DFE890
:100D500000F0390333393939201D012104F057FEE1
:100D60002FE0296ED4F8B000414011F4407F0BD041
:100D7000296E2A6E42F480322A662A6E21F440716E
:100D800022F480322A662966B0F5807F40F05082D6
:100D900003F0B3FE0327064641F28839BA46286EAF
:100DA000800700F1438203F0A8FE801B4845F6D976
:100DB000C5E7012701260EE004F12400012102F01D
:100DC000A4FF07463E4637B9686CA16F20F0380093
:100DD000084368645646207880071DD5606F052853
:100DE00009D8DFE800F011030B111111201D0121BA
:100DF00004F00DFE07E00127BA460EE004F12400DE
:100E0000012102F082FF0746BA4637B9686C616F6C
:100E100020F0070008436864B246207840071FD5D9
:100E2000D4F89000052809D8DFE800F011030B1171
:100E30001111201D012104F0EAFD07E00126012720
:100E40000FE004F12400012102F05FFF07463E4657
:100E50003FB9A86CD4F8901020F007000843A864AC
:100E600056462078800621D5D4F88C004FEA3070A1
:100E7000052809D8DFE800F011030B111111201D1E
:100E8000002104F0C4FD07E00127BA460FE004F199
:100E90002400022102F039FF0746BA463FB9686CC8
:100EA000D4F88C1020F0E04008436864B246207803
:100EB000400621D5D4F898004FEAB020052809D87B
:100EC000DFE800F011030B111111201D002104F0C7
:100ED0009EFD07E0012601270FE004F12400022116
:100EE00002F013FF07463E463FB9A86CD4F89810AD
:100EF00020F4E0500843A86456462078000621D527
:100F0000D4F89C004FEA7030052809D8DFE800F0DB
:100F100011030B111111201D002104F078FD07E0D1
:100F20000127BA460FE004F12400022102F0EDFE91
:100F30000746BA463FB9A86CD4F89C1020F460402C
:100F40000843A864B2462068010723D5D4F880007E
:100F50004FEA3031042909D346F6102040F20F51F0
:100F6000C0F6000005F0CFF9D4F88000B0F5805F3E
:100F70000AD104F12400022102F0C7FE002818BFA4
:100F80004FF0010AD4F88000696C21F44051084305
:100F900068642068C1062BD5D4F89400B0F5007FB2
:100FA00004DA88B1B0F5807F0ED003E00CD0B0F544
:100FB000405F09D046F6102040F22251C0F60000F2
:100FC00005F0A1F9D4F89400B0F5807F0AD104F1BE
:100FD0002400022102F099FE002818BF4FF0010AF8
:100FE000D4F89400A96C21F440710843A8642068E7
:100FF00000031CD5D4F8A000B0F5003F0ED0B0F52A
:10100000803F05D040BB201D002104F000FD04E01E
:1010100004F12400022102F078FE07463E463FB963
:10102000A86CD4F8A01020F440300843A8645646B9
:10103000A078400722D5D4F88400B0F5401F14D022
:10104000B0F5001F0BD0B0F5801F40F0E280E869DA
:1010500040F40030E86108E001260127E8E704F1E8
:101060002400012102F051FE0746BA463FB9686CE0
:10107000D4F8841020F4401008436864B246A07885
:10108000C00701D1564627E0E06C40F48031B1F54D
:10109000803F08D046F610204FF4B161C0F6000042
:1010A00005F031F9E06CB0F5803F05D090B9E86902
:1010B00040F40030E86104E0201D022104F0A7FCA8
:1010C00007463E4647B9E86BE16C20F480300843A0
:1010D000E863D7E7012601272068810008D504F1DD
:1010E0002400022102F011FE002818BF012620680A
:1010F000810317D5E16F6FF0010202EB3122022A62
:1011000008D34FEA31222AB1012A04D1EA6942F414
:101110000032EA610FB1012604E06A6C22F44072E9
:1011200011436964C10214D5206F40F00041B1F150
:10113000004F08D046F6102040F2E751C0F60000FC
:1011400005F0E1F8206F296C21F000410843286484
:101150002068C10016D5D4F8B40040F48041B1F540
:10116000804F09D046F6102040F2F151C0F6000041
:1011700005F0C9F8D4F8B400296821F48041084387
:1011800028602068810214D5A06E40F08071B1F112
:10119000807F08D046F6102040F2FB51C0F60000D8
:1011A00005F0B1F8A06E296C21F080710843286425
:1011B0002068410018D5D4F8B80040F40040B0F5DC
:1011C000004F07D046F6102040F21161C0F6000033
:1011D00005F099F8286820F4004028602068D4F8C9
:1011E000B8102A681143296000280CDA206D28B154
:1011F000B0F1805F18BFB0F1005F0DD1E96B21F055
:1012000040510843E863002E18BF01263046BDE870
:10121000F0870127BA4632E746F6102040F21B61FC
:10122000C0F6000005F06FF8206DE7E7D4F8B000D5
:101230002A684FF6CF7300F4407122F47C52C0F25A
:10124000FF0303EA10130027B1F5407F08BF1A43DC
:101250002A606FF31F30296E08432866FFF787BCAA
:101260003FF456ADB0F54C5F3FF452AD13E03FF4A0
:101270004FADB0F5334F3FF44BAD0CE03FF448AD0C
:10128000B0F5E64F3FF444AD05E03FF441ADB0F5B5
:10129000734F3FF43DAD46F6102040F27F31C0F66B
:0812A000000005F030F833E511
:1012A80000B583B00146B0F5805F4FF000001FDA4B
:1012B800B1F5806F3FDAB1F5807F00F06B80B1F552
:1012C800007F40F0D58044F24C41C5F602014868E1
:1012D800C0F38212042A00F2A68048F20000C0F28D
:1012E800BB00DFE812F0A9008D00AE00C500910038
:1012F800B1F5803F37DAB1F5805F00F05D80B1F578
:10130800804F40F0B58044F24C40C5F60200C068FA
:10131800C0F30271052900F2868049F20000C0F28C
:10132800D030DFE801F003A7ABA57B9703B0BDE899
:10133800004002F054BE51D0B1F5006F40F09880E3
:1013480044F24C41C5F60201C868C0F30262042A9F
:1013580000F2698048F20000C0F2BB00DFE802F04A
:101368006C507188540000F06080B1F5002F40F097
:101378007F8044F24C41C5F60201C86800F4403051
:10138800B0F5003F40D0B0F5803F00F06D800028F8
:1013980049D135E044F24C41C5F60201486800F0F5
:1013A8000702042A3FD848F20000C0F2BB00DFE879
:1013B80002F04327485F2B0044F24C41C5F6020176
:1013C8004868C0F30232042A2DD848F20000C0F25F
:1013D800BB00DFE802F03115364D190044F24C41EC
:1013E800C5F60201C868C0F34252042A1BD848F265
:1013F8000000C0F2BB00DFE802F01F03243B070037
:10140800684604F0DEFB1FE0086810F0405026D064
:10141800B0F1005F1ED0B0F1805F04D140F600103B
:10142800C0F23D0024E0002022E044F24C40C5F622
:1014380002000068C00309D4684602F041FD019823
:1014480016E0684604F04BFC009811E0684604F08A
:10145800B8FB0CE047F64000C0F27D1008E049F206
:101468000000C0F2D03003E0684604F038FC02986F
:1014780003B000BD684604F0A4FBE0E7684604F04A
:041488002EFCDCE773
:10148C00034C206804348047FBE704F0F4FEFEE7CD
:04149C00746D000863
:0C14A000FE6A0008CC140008AC14000820
:1014AC005763000877630008836300088F630008A4
:1014BC00AF630008BB6300085945000823630008AC
:1014CC00006B0008C06B0008C06B0008C06B000804
:1014DC00C06B0008C06B0008C06B0008C06B000834
:1014EC00C06B0008C06B0008FFFFFFFFFFFFFFFF92
:1014FC00FFFFFFFFFFFF0000026B0008726B00088C
:10150C00676800088F6B0008BE680008C16B000894
:08151C00CA6B0008C568000855
:101524004FF07F4C90EA010F38D4431A3CBFC01AE5
:10153400C918BCEB400F72D91CEA410F28D0C20D68
:10154400B2EBD1534FF0004C4CEA00204CEA01219D
:10155400C3F1200C01FA0CFC31FA03F1401832BF3C
:10156400013A5FEA300040F001005CEA406C04BFDD
:1015740010F4807F20F08000000A40EBC2504FF04E
:10158400807111EB400F38BF70476FF3160070473E
:101594001CEA400F01D100F00040704781F0004187
:1015A400431A3EBF83F00043C01AC918BCEB400F76
:1015B40032D91CEA410F28D0C20DA2EBD1534FF00F
:1015C400004C4CEA01214CEA0020C3F1200C11FA32
:1015D4000CFC21FA03F118BF41F00101401A09D4AF
:1015E40017D0130AD2B2B0FA80F18840521A11DD32
:1015F40002EB0322C0F31621400641EBC25038BF70
:10160400704708BF20F0010070471CEA400F08BF74
:1016140000207047D8077047BCEB410F03D0BCEBE8
:10162400400F08BF704740F20000C7F6C070704713
:101634004FF0FF0C1CEAD0521EBF1CEAD153FF2A04
:10164400FF2B28D01A444FF0004C90EA010313EA10
:101654000C034CEA01214CEA0020A0FB01C1B1F1CA
:10166400004F62F17F0238BF49004CEA416CFE2A08
:1016740009D253EA11204CEAC07C28BFBCF1010313
:1016840040EBC2507047124244BF18467047FF20D7
:1016940043EAC050704710EACC5F08BF00F0004036
:1016A40011EACC5F08BF01F000410CEAD153FF2AD4
:1016B40018BFFF2B03D0484000F0004070470028BB
:1016C4001EBFB0F1004F0029B1F1004F0DD0FF2A29
:1016D40001D1420209D1FF2B01D14A0205D1484070
:1016E4005FF0FF4161F31E00704740F20000C7F64F
:0416F400C07070470B
:1016F800FF2313EAD0521EBF13EAD153FF2AFF2B50
:1017080035D0D21A7F3281EA000C0CF0004C4FF031
:10171800004343EA002043EA012130B4431A3CBFA6
:1017280001EB4303013A090AB3FBF1F505FB113359
:101738001B02B3FBF1F001FB103300EB05201B0289
:10174800B3FBF1F505EB00205CEA500050EBC2500A
:1017580030BC002A08DDFF2A38BF70474FF0FF4031
:101768001CF00041084370470CF00040704703EA42
:10177800D153FF2B07D1FF2A14D05FEA412C0DD09B
:101788004FF4400016E0FF2A04D14300B3F17F4F25
:101798000BD007E01A4305D0002B06D0484000F0D4
:1017A800004070474FF4400004E0484000F000401B
:0C17B80040F4000040F0FE40704700BF0D
:1017C400C10DD1F19E0105DB000240F0004020FA7A
:1017D40001F070474000404038BF0138704700BFF7
:1017E400B0FA80F110FA01F30DD0D1F19D01C905D1
:1017F40001EB13205B0638BF704700F1010018BFEE
:08180400704720F0010070475D
:10180C00002B35D129B9B0FBF2FC0CFB120260465F
:10181C007047914215D22DE9F041B2FA82F39A4009
:10182C009940D3F1200C30FA0CFC51EA0C01984091
:10183C0000F04EF8280036FA03F200210023BDE830
:10184C00F081F0B5B1FBF2FC0CFB1211B2FA82F391
:10185C009A409940D3F1200630FA06F6314398406D
:10186C0000F036F8614628003200DA400023F0BD63
:10187C00F3B5B3FA83FC49085FEA300013FA0CF3B2
:10188C00DCF1200432FA04F423430CB41A0000F007
:10189C001FF80CBC33FA0CF3DCF11F0C35FA0CF509
:1018AC0018BF013D03BCA5FB026705FB0377801B3A
:1018BC00B941904271EB030C05D3821A71EB03030F
:1018CC00681C0021F0BD02000B0028000021F0BDB7
:1018DC00940D4FF6C2752D02B5FBF4F4D60A013601
:1018EC0004FB04F5A5FB0656F64306EB0416550857
:1018FC0032BF00277708013505FB1677A6FB074793
:10190C007F0807EBC63714001500E7FB02457F1B69
:10191C004D1C0400E7FB014505FB1206A64284BFE3
:10192C00013DB618964224BF0135B61A704700BF68
:10193C005AB3844690EA01039B071FD1830707D053
:10194C0011F8013B00F8013B013AF7D11CE0844649
:10195C00203A09D32DE9F007B1E8F807A0E8F80719
:10196C00203AF9D2BDE8F0071C3205D451F8043BFB
:10197C0040F8043B043AF9D2043205D011F8013B8B
:0C198C0000F8013B013AF9D160467047B9
:1019980000220B0011001A0084465AB3830704D0B2
:1019A80000F8011B013AF9D124E0C9B241EA01214A
:1019B80041EA0141202A11D3203A2DE9F0030B46D0
:1019C8000C460D460E460F4688468946A0E8FA039F
:1019D800203AFBD2BDE8F00320320BD0042A05D30D
:1019E80040F8041B043A05D0042AF9D200F8011B78
:0819F800013AFBD16046704783
:101A00002DE9F04F89B017468B4680460020C8F874
:101A100000000DF10E00A0F1010A5D4615F8011B52
:101A2000252907D0002900F09981404604F0CBFC1D
:101A3000AB46F2E70BF1020B00241BF8012C2A2A1B
:101A400008DC202A13D0232A13D0272A46D14FF4AA
:101A500000400FE05D2A06DD672A0FDC5E2A3DD1DB
:101A60004FF4805006E02B2A38D1202002E040209D
:101A700000E0802004430BF1010BDEE76B2A08DD58
:101A80006C2A0DD0742A18BF7A2A27D11BF8012B93
:101A900024E0682A10D06A2A20D11BF8012B08E024
:101AA000584610F8012B6C2A12D19BF801200BF13B
:101AB000020B44F0020411E0584610F8012B682A8A
:101AC00009D19BF801200BF1020B44F0080405E05A
:101AD00044F0010401E044F004048346622A16DD68
:101AE000A2F1630015283FF698AF0025DFE800F06B
:101AF0001A0C0B0B0B0B0C0B0B0B0B202C310B0BC9
:101B00003B0B4C0B0B1688E744F480443CE0252A41
:101B100079D0582A40F01A8144F4005420062DD47C
:101B2000002531E017F8041B404604F04CFC74E734
:101B300057F8040B210700F10D81A107D8F8001018
:101B400054BF016022C068E72006302101EAE07539
:101B50001AE02006232101EAE07544F4807457F866
:101B6000040B0021B0E057F8045B15F8011B0029B5
:101B70003FF453AF404604F026FCF6E743F2580525
:101B8000782A08BF43F27805600404D4A00708D47B
:101B90003B1D00210BE0A00712D457F8040BC1171E
:101BA00014E0F81D20F0070707F10803796838688A
:101BB000670713D414F008071CBFC0B200210FE060
:101BC000F81D20F00707796857F8080B630709D458
:101BD000230744BF40F3C01140B206E080B20021A9
:101BE0001F4616E040F3C03100B2002905DBA30612
:101BF0000ED4630648BF20250BE00023404263EB70
:101C000001012D2505E04046252104F0DCFB04E719
:101C10002B2500266E2A25DD6F3A092A00F27F80E7
:101C2000DFE802F005527D7D7D7D267D7D5250EA04
:101C3000010270D0AE46BC46C20842EA41720DF1C4
:101C40000E070625134665F3DF00B855013652EA44
:101C5000D1004FEAD1014FEAD20040EA4172184662
:101C6000F0D155E0582A2FD0642A18BF692A56D1DE
:101C700050EA01024FD0CDE901570D460746200436
:101C80000AD506F00300032806D10DF10E092C2019
:101C900009F80600013601E00DF10E0938460A2266
:101CA0000023FFF7B3FD00EB8002A7EB420242F0F6
:101CB000300209F806200136D7F109020022AA41B4
:101CC000DBD3DDE901572AE050EA010223D0AE461A
:101CD000A20446F63052C0F60002BC465CBF46F68F
:101CE0004052C0F60002030943EA017300260DF1D9
:101CF0000E0500F00F071846D35DAB55013650EACC
:101D000011134FEA11114FEA101343EA0173F0D196
:101D10006746754603E030208DF80E000126FF2D42
:101D200004D9290A404604F04EFB00E01DB14046AC
:101D3000294604F048FB012EFFF66FAE1AF8061094
:101D4000404604F040FB013EF8D866E6002A7FF4E6
:101D500064AE14E0D8F8001001705EE6D8F80C000C
:101D600028B1D8E9001291423CBF002242544046BB
:101D700004F06BFBD8F8000009B0BDE8F08F4046D6
:0A1D800004F063FB4FF0FF30F6E7BC
:101D8A0042F20003C5F20023186800F00F0006288B
:101D9A0004D81868072161F30300186044F2004070
:101DAA004EF67F52C5F60200CEF6F622016841F0E1
:101DBA000101016000210161D0F800C002EA0C02B1
:101DCA0002601A68120705D51A684FF0070C6CF3FF
:101DDA0003021A6040F200228161C0F20222C1614C
:101DEA00016282620022C0F2FF12C26240F28022C5
:101DFA00C0F20112026341638263C16302644164F7
:101E0A00026822F480220260016641F20000C5F6EF
:101E1A0000400068400F05D148F208100121C5F2C0
:101E2A000010016003F5005043F2D20101604EF642
:0E1E3A000850CEF200004FF0006101607047CA
:101E4800F8B544F20047C5F602073869C0F3C20086
:101E580003280CD002282DD088BB386849F200012D
:101E6800C0F2D031C0F3C10021FA00F061E0BE6ACF
:101E7800B86AF96AC0F3051501F00100796B4042B0
:101E880000EAD1006FF35F30FFF7A8FCE5B1044624
:101E980006F00300022819D0E8B9386849F20001B1
:101EA800C0F2D031C0F3C10021FA00F0FFF796FC70
:101EB800064614E047F64000C0F27D1039E040F6CF
:101EC8000010C0F23D0034E0002032E04BF620461E
:101ED800C4F6BE3603E042F20046C4F6742628462D
:101EE800FFF77CFC01463046FFF702FC0546386BDD
:101EF8006FF35F20FFF772FC06464FF064512046EF
:101F0800FFF794FB3146FFF709FB4FF07E51FFF7CF
:101F180005FB2946FFF78AFB396B0446C1F34621C6
:101F2800481CFFF75BFC01462046FFF7E1FBFFF783
:101F380045FCB96946F60042C0F60002C1F3032128
:101F4800515CBB6903F00F03C840D25C02F01F016B
:101F580040F66022C2F2004220FA01F1116040F618
:0A1F68006421C2F200410860F8BDD8
:101F720070B582B044F2D84040F2A824C5F60200FF
:101F8200C2F2004428260168C4F2020641F00101AF
:101F92000160006800F0010001900198266020466F
:101FA20000F03CFE002818BF04F0A8F94FF480614D
:101FB20021614FF40061272061614FF4005160609C
:101FC2000020A1614FF48071C4E90200E1614FF485
:101FD2004031C4E908102046FEF75DF9002818BF19
:101FE20004F08CF920680322016841F001010160CC
:101FF2000C20002100F0E5FB0C2000F023FC06F28F
:10200200E733206803F1600108249842A1F5806259
:102012000DDC904218DCA1F58665A84229DCA1F20C
:102022005F45A84242D0B04218BF04243EE0884235
:1020320015DCA1F13005A84222DCA1F15F05A8421E
:1020420034D0A1F147052FE0A1F57475A8421EDC3A
:10205200A1F2FF35A84229D0A1F2E73524E001F12F
:102062003005A8421ADC4D1CA8421FD001F1190507
:102072001AE0A1F22F45A84218D0A1F2174513E0A9
:10208200A1F12F05A84211D0A1F117050CE0A1F290
:10209200CF35A8420AD0A1F2B73505E001F13105EA
:1020A200A84203D001F14905A8422AD10568254377
:1020B20098424FF0100305600CDC90420EDCA1F553
:1020C2008661884212DC2F39884215D0B04218BF8F
:1020D200022311E0884204DC303903E0A1F5747177
:1020E20000E03031884201DC2F3900E001318842C2
:1020F20002D01831884206D101681943016002B04A
:0A21020070BD0424D2E70223F6E7C3
:10210C0070B582B044F2D84040F29834C5F6020063
:10211C00C2F2004440260168C4F2020641F00101FB
:10212C000160006800F001000190019826602046D3
:10213C0000F06FFD002818BF04F0DBF8432060604E
:10214C0040204FF48061A0600020C4E903014FF4EB
:10215C00805161614FF48041A1614FF48071E16164
:10216C004FF40031C4E908102046FEF78FF8002820
:10217C0018BF04F0BEF80D200021042200F01CFB57
:10218C000D2000F05AFB06F2CF33206803F16001FA
:10219C0008249842A1F580620CDC904217DCA1F572
:1021AC008665A84228DCA1F25F45A8423FD0A1F287
:1021BC0047453AE0884215DCA1F13005A84220DC05
:1021CC00A1F15F05A84232D0A1F147052DE0A1F5A0
:1021DC007475A8421CDCA1F2FF35A84227D0A1F2ED
:1021EC00E73522E001F13005A84218DC4D1CA8426D
:1021FC001DD001F1190518E0B04218D0A1F2174515
:10220C0013E0A1F12F05A84211D0A1F117050CE0A4
:10221C00A1F2CF35A8420AD0A1F2B73505E001F101
:10222C003105A84203D001F14905A84227D1056820
:10223C00254398424FF01003056009DC90420BDCFB
:10224C00A1F5866188420DDDB04213D019310FE043
:10225C00884204DC303903E0A1F5747100E03031C0
:10226C00884201DC2F3900E00131884202D018315C
:10227C00884206D101681943016002B070BD042484
:06228C00D5E70223F6E78E
:1022920070B582B044F2D84040F22034C5F6020054
:1022A200C2F2004458260168C4F2020641F001015C
:1022B2000160006800F0010001900198266020464C
:1022C20000F0ACFC002818BF04F018F8442060604D
:1022D20040204FF48061A0600020C4E903014FF464
:1022E200805161614FF48041A1614FF48071E161DD
:1022F2004FF40031C4E908102046FDF7CCFF002856
:1023020018BF03F0FBFF0E200021052200F059FA4E
:102312000E2000F097FA06F2B733206803F160014D
:1023220008249842A1F580620CDC904217DCA1F5EA
:102332008665A84228DCA1F25F45A84242D0A1F2FC
:1023420047453DE0884215DCA1F13005A84223DC77
:10235200A1F15F05A84235D0A1F1470530E0A1F512
:102362007475A8421FDCA1F2FF35A8422AD0A1F25F
:10237200E73525E001F13005A8421BDC4D1CA842DF
:1023820020D001F119051BE0A1F22F45A84219D076
:10239200B04218BF042415E0A1F12F05A84211D0C4
:1023A200A1F117050CE0A1F2CF35A8420AD0A1F2A3
:1023B200B73505E001F13105A84203D001F1490525
:1023C200A8422AD10568254398424FF010030560C0
:1023D2000CDC90420EDCA1F58661884210DD0131F1
:1023E200884215D0B04213D0022311E0884204DCA7
:1023F200303903E0A1F5747100E03031884201DC2C
:102402002F3900E00131884202D018318842EBD1E5
:0E24120001681943016002B070BD0424D2E7D6
:10242000F8B540F2983640F20444C2F20046C4F2D5
:10243000020404F1B40745F200453068C5F6020510
:10244000B84201D9296814E004F15401884201D945
:1024500021680EE0A1F58B6101F1B802904202D92A
:10246000D1F8001405E001F15802904294BF0968C8
:102470004968890506D546F6D400C0F6000004F088
:1024800036F83068B84201D9296814E004F15401E3
:10249000884201D921680EE0A1F58B6101F1B802F3
:1024A000904202D9D1F8001405E001F1580290429F
:1024B00094BF09684968C90506D546F6F200C0F61A
:1024C000000004F014F83068B84201D9286814E01C
:1024D00004F15401884201D920680EE0A1F58B6116
:1024E00001F1B802904202D9D1F8000405E001F1EF
:1024F0005802904294BF08684868400605D546F2E5
:102500006A60C0F6000003F0F2FF40F29830C2F2B9
:0A2510000040BDE8F84000F03FBEB7
:10251A00F8B540F2203640F20444C2F20046C4F252
:10252A00020404F1B40745F200453068C5F6020515
:10253A00B84201D9296814E004F15401884201D94A
:10254A0021680EE0A1F58B6101F1B802904202D92F
:10255A00D1F8001405E001F15802904294BF0968CD
:10256A004968090306D546F61410C0F6000003F0C0
:10257A00B9FF3068B84201D9296814E004F154015E
:10258A00884201D921680EE0A1F58B6101F1B802F8
:10259A00904202D9D1F8001405E001F158029042A4
:1025AA0094BF09684968490306D546F63210C0F651
:1025BA00000003F097FF3068B84201D9286814E098
:1025CA0004F15401884201D920680EE0A1F58B611B
:1025DA0001F1B802904202D9D1F8000405E001F1F4
:1025EA005802904294BF08684868C00305D546F26D
:1025FA008560C0F6000003F075FF40F22030C2F299
:0A260A000040BDE8F84000F0C2BD3A
:1026140030B585B044F2E04040F20044C5F6020013
:10262400C5F602046D46016841F0020101600068CC
:10263400294600F00200009000984FF4805000906A
:10264400022001900020CDE90200052004902046DC
:1026540000F091FF4FF4005000902046294600F00E
:102664008AFF4FF4804000902046294600F083FF03
:102674004FF4004000902046294600F07CFFFFF70D
:0626840076FC05B030BD3C
:10268A0040F2104040F21851C2F20040C2F200413A
:06269A00802202F02BBDBE
:1026A00080B543F600010068C4F20001884218BFFB
:1026B00008BD40F638200122C2F20040017801F046
:1026C000EE01013101700421081FC5F6020001F07E
:0A26D000BCF8BDE8084002F03EB976
:1026DA0030B585B044F2E8400025C5F602000495FD
:1026EA00CDE90255016840F2644441F010010160ED
:1026FA000068C2F2004400F01000019041F20000AC
:10270A000199C4F200002060204601F07BFC0028F9
:10271A0018BF03F0EFFD40F2AF50C4E903052046AD
:10272A00C4E90155C4E9055503F066FB002818BF42
:10273A0003F0E0FD202002A9CDE9020540F2644041
:10274A000495C2F2004001F0D8FC002818BF03F03B
:10275A00D1FD40F26440C2F2004003F069FC002857
:0A276A0018BF03F0C7FD05B030BD35
:022774007047AC
:1027760040F63A2040F20451C2F20040C2F2004153
:0A27860000780A68104408607047EC
:1027900038B5044602F0B1F940F63A210546C2F2D6
:1027A0000041621C097818BF0C4402F0A6F9401BD6
:0627B000A042FAD338BD7F
:0E27B60041F20000C5F600400068000C7047BC
:1027C40070B51446102A0E46054606D346F6541034
:1027D400AA21C0F6000003F094FD102E06D346F69D
:1027E4005410AB21C0F6000003F08BFD4EF60C50E4
:1027F4004FF0FF33CEF200000168C1F3022181F0F3
:102804000702042A28BF0422033903FA02F238BF5C
:10281400002126EA020205F00F068A40043E03FA6C
:1028240001F105F1604303F56443304424EA0101F6
:10283400002D48BF00F10C0342EA010000011870AA
:0228440070BD65
:1028460010B5040006D546F65410BE21C0F60000A9
:1028560003F056FD4EF200136109CEF2000304F0B8
:0E2866001F00012202FA00F043F8210010BD0D
:102874000138010E1CBF012070474EF21001F022F6
:10288400CEF20001486001F6135002700020886007
:0628940007220A607047F4
:02289A00704785
:06289C00806B01F066BF35
:1028A20010B5044600680168890444BF416B5FEAC1
:1028B200814118D40168890046BF416B5FEA8101FA
:1028C20010BD04212171216941F0020121614FF003
:1028D20000514163016821F0805101602046BDE84A
:1028E200104000F047B904212171216941F0010132
:1028F20021614FF400514163016821F4805101606C
:0A290200204600F002F82068D4E738
:02290C00704712
:02290E00704710
:102910002DE9F0410D4649684FEA710190461B29A7
:10292000044600F21981012088404AF6AB21C0F626
:10293000AA21084200F01081A86840F00200022895
:1029400007D046F2A06040F2FA31C0F6000003F072
:10295000DAFCE868042805D8012101FA00F010F03B
:10296000160F07D146F2A06040F2FB31C0F600001E
:1029700003F0C9FC2869022808D346F2A0604FF48E
:102980007F71C0F6000003F0BEFC286901280AD15F
:102990006869202807D346F2A06040F2FF31C0F6F4
:1029A000000003F0B0FC286840F00401042908D0BE
:1029B00046F2A06040F20141C0F6000003F0A3FC23
:1029C0002868042822D1A869B0F5806F07D346F2A1
:1029D000A06040F20441C0F6000003F094FCE869F6
:1029E000B0F5806F07D346F2A06040F20541C0F613
:1029F000000003F088FC286AFF2807D946F2A0608F
:102A000040F20641C0F6000003F07DFC48F01000E3
:102A1000102807D046F2A0604FF48161C0F6000094
:102A200003F071FC607901284FF0020008BFBDE897
:102A3000F0810121617120712868042847D102F0DA
:102A40005CF8B8F1000F074609D02068406B0028F9
:102A50001ADA02F052F8C01B0228F6D30CE048F252
:102A60000006C2F200062068406B304213D002F02C
:102A700044F8C01B0228F6D3206940F0080020610A
:102A800003202071BDE8F0810120FFF781FE20685E
:102A9000A969416405E00120FFF77AFE2068A96971
:102AA000016408F0100240F2FF33816C9340EF693B
:102AB000994307FA02F32F6A19438164FF21C36C1B
:102AC000914023EA010107FA02F21143C164286927
:102AD00008F010010128206808D11F23826B8B4069
:102AE0006F699A4307FA01F31A4382630727C26B9F
:102AF000EB688F40BA43012B03D0022B03D1012393
:102B000005E0002303E0AB68B3FA83F35B092F68A9
:102B1000AE683B4333436F688B401A43C2634FF444
:102B2000804203688A4023EA0202026040F6FE7295
:102B300003688A4023EA020207FA01F31A4302609B
:102B4000C02202FA01F1026822EA010101600120BB
:102B5000A0800020BDE8F08146F2A06040F2F9318B
:0A2B6000C0F6000003F0CFFBE6E62C
:062B6A00806B00F001B8D1
:022B70007047AC
:022B72007047AA
:022B74007047A8
:022B76007047A6
:102B780030B545F257420168C5F60202914204DCBD
:102B8800283A914204DD013203E02832914204DC04
:102B9800273A914207D0143203E01532914202D00D
:102BA800143A91421AD101F0FC014CF6CD42083991
:102BB800CCF6CC42A1FB021345F60002C5F6020290
:102BC8001B0902F1800102EB830203F01F03C0E935
:102BD8001821012202FA03F1816630BD01F0F802E2
:102BE8004AF6AB23103ACAF6AA23A2FB032C0825FF
:102BF80040F60002C4F202024FEA1C1EA2F2F133B0
:102C080003F1AA049942734688BF05EB1C13A1423D
:062C180028BF7346D5E75A
:102C1E0038B50125002800F090800446006840F287
:102C2E006F42C4F202020168904221F0010101607C
:102C3E0007DCA2F5747188420FDC483988420ADD40
:102C4E0022E045F22F41C5F60201884213DC02F163
:102C5E004801884234DC473917E001F56271884239
:102C6E0012DCA1F28731884217D01831884214D075
:102C7E0001F556710FE03C318842D4BF3B3901312A
:102C8E00884229D0143122E00131884205D0183112
:102C9E00884202D0183188424FD100210160416034
:102CAE008160C160016121214161204602F03CF842
:102CBE00E16D3F2201F01F0102FA01F181601AE07D
:102CCE0001318842E9D045F20841C5F60201884239
:102CDE0002D01431884230D1002101604160816000
:102CEE00C1600161204602F01FF8E16D01F01F0185
:102CFE0005FA01F141602046FFF737FF206E20B143
:102D0E0000210160D4E9190141606068013807288B
:102D1E0008D8204602F04AF804F16C00002307C8D8
:102D2E0003604A6004F13C00182100256567C4E980
:0E2D3E001B55FEF72AFE6565A586284638BDA2
:102D4C0070B540F26F44D0F800C0C4F20204D0F861
:102D5C0058E0A44512DCA4F57475AC4522DCA4F54E
:102D6C008365AC4535DCA4F25F45AC455CD0A4F280
:102D7C004745AC4558D0A4F22F4553E045F22F45BA
:102D8C00C5F60205AC451CDC04F14805AC452BDC52
:102D9C00651CAC4548D004F11905AC4544D004F190
:102DAC0031053FE0A4F14805AC4529DCA4F2CF3550
:102DBC00AC4539D0A4F2B735AC4535D0A4F15F059C
:102DCC0030E03C35AC4526DC3B3DAC452CD01435D5
:102DDC0012E0A4F21745AC4526D0A4F2FF35AC4561
:102DEC0022D0A4F2E7351DE004F14905AC451BD017
:102DFC0045F20845C5F60205AC4515D0143511E071
:102E0C00A4F14705AC450FD0A4F12F05AC450BD070
:102E1C00A4F1170506E00135AC4505D02835AC45C5
:102E2C0002D0143DAC456ED1C66E002ED0E91956B9
:102E3C006E601CBFD0E91C566E60A44507DCA4F57F
:102E4C007474A44511DC483CA4450CDD24E045F227
:102E5C002F44C5F60204A44515DC40F2B744C4F275
:102E6C000204A44532DC473C17E004F56274A44527
:102E7C0012DCA4F28734A44517D01834A44514D01E
:102E8C0004F556740FE03C34A445D4BF3B3C0134EC
:102E9C00A44527D0143420E00134A44505D01834BF
:102EAC00A44502D01834A4452DD18468C06D00F01F
:102EBC001F003F2505FA00F0CEF80800DCF80000F2
:102ECC00402C20F48020CCF8000015E00134A445FF
:102EDC00EBD045F20844C5F60204A44502D01434E4
:102EEC00A44510D1C46D012504F01F04806805FAB7
:102EFC0004F4CEF804404028CCF8043004D1CCF8CB
:102F0C000820CCF80C1070BDCCF80810CCF80C20B4
:022F1C0070BD86
:102F1E00F8B51D46013B4FF6FF771646BB420F46EE
:102F2E00044607D346F2FB6040F2A921C0F600002A
:102F3E0003F0E2F9D4B394F83400012804BF022060
:102F4E00F8BD012084F8340094F83500012827D10B
:102F5E00022084F8350000206065206832462B463A
:102F6E00016821F00101016020463946FFF7E7FEB6
:102F7E0040F20F422068C4F20202904202F1600158
:102F8E0016DCA1F5806398421FDCA1F5866398429A
:102F9E0030DCA1F25F4398424AD0A1F2474344E0AD
:102FAE00002084F834004FF4006060650120F8BD05
:102FBE00884215DCA1F13003984222DCA1F15F03B7
:102FCE00984235D0A1F147032FE0A1F574739842D2
:102FDE001EDCA1F2FF3398422AD0A1F2E73324E09F
:102FEE0001F1300398421ADC4B1C984220D001F1BB
:102FFE0019031AE0A1F22F43984219D0A1F21743F8
:10300E0013E0A1F12F03984212D0A1F117030CE0A7
:10301E00A1F2CF3398420BD0A1F2B73305E001F104
:10302E004903984204D001F13103984240F0A28046
:10303E0003680B2767F344030360236C1BB108235B
:10304E0007683B430360884212DCA1F57473984213
:10305E0022DCA1F58363984235DCA1F25F439842EE
:10306E005CD0A1F24743984258D0A1F22F4353E0CF
:10307E0045F22F43C5F6020398421CDC01F14803CA
:10308E0098422BDC4B1C984248D001F11903984210
:10309E0044D001F131033FE0A1F14803984229DC0D
:1030AE00A1F2CF33984239D0A1F2B733984235D03E
:1030BE00A1F15F0330E03C33984226DC3B3B984263
:1030CE002CD0143312E0A1F21743984226D0A1F26D
:1030DE00FF33984222D0A1F2E7331DE001F14903FC
:1030EE0098421BD045F20843C5F60203984215D00C
:1030FE00143311E0A1F1470398420FD0A1F12F0331
:10310E0098420BD0A1F1170306E00133984205D087
:10311E002833984202D0143B984220D1236E1F6868
:10312E00FF0303D51F6847F480771F60E36E002B03
:10313E001EBF1F6847F480771F60904205DCA1F523
:10314E008061884203DD303102E0884203DC303991
:10315E00884203DD03E03031884206DC2F390168F6
:10316E0041F0010101600020F8BD1931884218BFFD
:10317E001839F4E70368052767F343030360236CEC
:0A318E00002B3FF460AF04235AE762
:103198002DE9F04782B00021019140F664210446F0
:1031A800C2F2004148F2B512C1F64E32A56D096867
:1031B80040F26F480068C4F20208A1FB021A4045B9
:1031C8002F68296808DCA8F57471884211DC483931
:1031D800884225DC473924E045F22F42C5F6020231
:1031E800904214DC08F1480290423BDCA2F147010E
:1031F80017E001F56271884212DCA1F2873188423A
:1032080018D01831884215D001F556710FE03C32BC
:103218009042D4BF3B3A0132904230D0143228E079
:103228000131884206D01831884203D018318842CB
:1032380040F09281E16D082201F01F01A8F16009B8
:103248008A403A4267D00423484506DCA8F58066E0
:10325800B042D4BF303E303647E0404543DCA8F1A9
:10326800300642E001329042E4D045F20842C5F609
:103278000202904203D01432904240F06D810268FD
:10328800E36D03F01F0304279F400F4218BF12F09D
:1032980004061CD102279F400F4218BF12F00206F5
:1032A80040F0B880D940090740F1568112F0080172
:1032B80000F05281016821F00E010160012000FA3E
:1032C80003F169606065002184F834103BE1110462
:1032D8006F6000F1B180910600F1B280016821F0C1
:1032E80004010160ACE008F13006B042CCBF013601
:1032F8002F3EB04203D01836B04218BF08230668E4
:103308001E4208D0036823F004030360AA60626DBC
:1033180042F00102626501228A403A4221D04845C2
:1033280006DCA8F580639842D4BF303B303306E012
:10333800404502DCA8F1300301E008F1300398426F
:10334800D4BF2F3B0133984203D01833984240F042
:103358000C8143691B0604D5AA60626D42F0020223
:10336800626504228A403A4221D0484506DCA8F525
:1033780080639842D4BF303B303306E0404502DCDE
:10338800A8F1300301E008F130039842D4BF2F3B85
:103398000133984203D01833984240F0E88003681C
:1033A8009B0704D5AA60626D42F004026265102290
:1033B80002FA01F1394249D00822484506DCA8F54D
:1033C80080639842D4BF303B303306E0404502DC8E
:1033D800A8F1300301E008F130039842CCBF013373
:1033E8002F3B984203D01833984218BF0422036831
:1033F80013422BD0A96001684903016806D4C905A6
:1034080006D4016821F00801016001E0080319D41D
:10341800216C18E011046F6000F1A180910600F1A1
:10342800A280016821F00A010160002084F83400BC
:10343800012084F8350096E0D00301D4A16C85E022
:10344800216C83E0A16C09B120468847E06D00F04B
:103458001F01202000FA01F23A4256D020681023BA
:10346800484506DCA8F58067B842D4BF303F3037FE
:1034780006E0404502DCA8F1300701E008F130071A
:10348800B842CCBF01372F3FB84203D01837B842F3
:1034980018BF022307681F4237D0AA6094F8352066
:1034A800042A026819D122F016020260426922F049
:1034B80080024261226C0AB9A26C1AB1026822F039
:1034C800080202603F208840A860002084F8340089
:1034D800012084F83500216D38E0510301680CD4CF
:1034E800C9050ED4016821F010010160002084F89C
:1034F8003400012084F8350003E0080301D4616C2E
:1035080000E0E16B09B120468847606D20B3606D2B
:10351800C0071AD0042084F835002068016821F01B
:1035280001010160019901310191B1EB9A2F02D893
:103538000168C907F6D1002184F834100068C00773
:1035480014BF0320012084F83500E16C21B1204626
:1035580002B0BDE8F047084702B0BDE8F087D003E5
:1035680001D4616CF2E7E16BF0E70268F9E6026802
:023578001DE74D
:10357A002DE9F04F85B0844600F1264000F1FF7036
:10358A004FEA8C520B4642EA902001900B28CDE973
:10359A00021C08D346F61840BB21C0F6000002F010
:1035AA00ADFEDDE9023C1868010C01D180B240B9D8
:1035BA0046F61840BC21C0F6000002F09FFEDDE985
:1035CA00023C4FF6FF715868C1F2101188420ADCBA
:1035DA00122823D8012101FA00F00F21C0F20601B6
:1035EA00084224D11AE001F5881188420BDC002137
:1035FA00C1F2111188421AD001F58031884216D0E1
:10360A0001F5702108E00131884210D001F57021DE
:10361A0088420CD001F58031884208D046F618401D
:10362A00BD21C0F6000002F069FEDDE9023C98689F
:10363A00032808D346F61840BE21C0F6000002F05F
:10364A005DFEDDE9023C1868002800F0E58042F2E0
:10365A0000410A22C5F602018C454FF0010808BF55
:10366A00092201990027B946BA46092938BF0A46EC
:10367A00009208FA0AF410EA040B00F0C3805868B2
:10368A00122829D808FA00F111F0061F24D0D868A8
:10369A00042809D346F61840CE21C0F6000002F0ED
:1036AA002DFEDDE9023CD8680322DCF80810BA4096
:1036BA009143B8400843CCF80800DCF80410586875
:1036CA00D5434FEA4A06C0F30012A14302FA0AF2AE
:1036DA001143CCF8041003E003213E46B940CD4320
:1036EA0040F01002DCF80C102940122A9A6802FAFB
:1036FA0006F241EA0201CCF80C102AD101980B28F3
:10370A0008D346F61840E621C0F6000002F0F6FD9E
:10371A00DDE9023C1869102809D346F61840E7216A
:10372A00C0F6000002F0EAFDDDE9023C18696FF01C
:10373A00030109F01C0201EA5A010F246144944072
:10374A009040D1F820E02EEA040E40EA0E0008620A
:10375A00586800F00301DCF80020B1402A40C0009C
:10376A004FF0010841EA0200CCF800004AD544F2C1
:10377A00F44140F20844C5F60201C5F600044FF0D0
:10378A000F0EA4F20446086840F0020008600868B8
:10379A0000F0020004902AF00300049909F00C01D9
:1037AA0002590EFA01FE22EA0E02DDF800E00EFAD4
:1037BA0001F111430151F06F596840EA0B025FEAC7
:1037CA00C13E58BF20EA0B02F267341FD6F88000C8
:1037DA005FEA813E40EA0B0258BF20EA0B02C6F8B4
:1037EA0080205FEAC12E206840EA0B0258BF20EA17
:1037FA000B0222608902306840EA0B0258BF20EAB5
:10380A000B0232600AF1010A1868023730FA0AF12B
:0E381A0009F104097FF42DAF05B0BDE8F08F71
:1038280038B50C00054607D146F6184040F28D1110
:10383800C0F6000002F063FD2869204018BF01208F
:0238480038BD89
:10384A0070B50C001646054607D146F6184040F2F8
:10385A00AD11C0F6000002F051FD022E03D2002E77
:10386A0008BF240407E046F618404FF4D771C0F6A3
:0A387A00000002F043FDAC6170BDD8
:10388400002804BF0120704710B543F60001044628
:103894000068C4F2000188420FD001F580618842BB
:1038A4000BD001F57441884207D046F256704FF4AC
:1038B400EB71C0F6000002F024FD022084F84D00F4
:1038C4002068016821F001010160204600F007F83A
:0E38D4000020206584F84D0084F84C0010BDE3
:0238E20070472D
:0638E400806BFEF7DBBE65
:0238EA00704725
:1038EC002DE9F843002800F00782044600680138EF
:1038FC000D463F2807D346F2B17040F27E31C0F638
:10390C00000002F0FAFC102D07D346F2B17040F221
:10391C007F31C0F6000002F0F0FC42F20006C5F266
:10392C000026306800F00F00A8420AD2306820F060
:10393C000F0028433060306800F00F00A84240F0C0
:10394C00DB81206844F200474107C5F602071DD50C
:10395C002169BA6902F07002914217D96FF0030025
:10396C0000EB311004280BD34FEA311040B146F272
:10397C00B17040F29B31C0F6000002F0BEFC216930
:10398C00B86920F070000843B861206801071DD5A4
:10399C006169FA6902F07002914217D96FF0030065
:1039AC0000EB311004280BD34FEA311040B146F232
:1039BC00B17040F2AD31C0F6000002F09EFC6169BE
:1039CC00F86920F070000843F8612068C1061DD525
:1039DC00A169FA6902F4E062914217D96FF0030011
:1039EC0000EB312004280BD34FEA312040B146F2D2
:1039FC00B17040F2BE31C0F6000002F07EFCA1694D
:103A0C00F86920F4E0600843F861206881061DD550
:103A1C00E1693A6A02F07002914217D96FF0030023
:103A2C0000EB311004280BD34FEA311040B146F2B1
:103A3C00B1704FF47471C0F6000002F05EFCE169E5
:103A4C00386A20F07000084338622068810718D566
:103A5C00E168BA6902F00F02914212D921F0070015
:103A6C00082808D046F2B17040F2E331C0F60000ED
:103A7C0002F043FCE168B86920F00F000843B8611C
:103A8C002068C10749D0A0686FF0070101EB302115
:103A9C0008295ED26068042807D346F2B1704FF44F
:103AAC007D71C0F6000002F028FCB86920F470614A
:103ABC00D4E9010211430128B96107D003280AD0C7
:103ACC00022839680BD189030CD415E13968C90572
:103ADC0008D4BDE8F8833968890103D40CE149079F
:103AEC0040F10A81396921F007010843386100F07F
:103AFC00FEFF804641F288393869616800F0380071
:103B0C00B0EBC10F08D000F0F2FFA0EB0800484565
:103B1C00F2D90320BDE8F8832068800733D5A0468E
:103B2C0058F80C0FB96901F00F0188422BD21028FC
:103B3C0006D281B24FF6017222FA01F1C90715D1F2
:103B4C0046F2B17040F23541C0F6000002F0D5FBF0
:103B5C0012E04FEA302000289CD046F2B17040F2BF
:103B6C00F331C0F6000002F0C8FB93E740F2D071CD
:103B7C00C0F6000101EB8008D8F80000B96921F00B
:103B8C000F010843B861306800F00F00A8420AD951
:103B9C00306820F00F0028433060306800F00F00D0
:103BAC00A84240F0A980206841071DD52169BA6957
:103BBC0002F07002914217D26FF0030000EB31104B
:103BCC0004280BD34FEA311040B146F2B17040F2E9
:103BDC005641C0F6000002F090FB2169B86920F054
:103BEC0070000843B861206801071DD56169FA6946
:103BFC0002F07002914217D26FF0030000EB31100B
:103C0C0004280BD34FEA311040B146F2B1704FF497
:103C1C008D61C0F6000002F070FB6169F86920F05C
:103C2C0070000843F8612068C1061DD5A169FA69C6
:103C3C0002F4E062914217D26FF0030000EB3120E6
:103C4C0004280BD34FEA312040B146F2B17040F258
:103C5C007A41C0F6000002F050FBA169F86920F42B
:103C6C00E0600843F861206880061CD5E069396A79
:103C7C0001F07001884216D26FF0030101EB301194
:103C8C0004290BD34FEA301141B146F2B17040F226
:103C9C008C41C0F6000002F030FBE069396A21F07B
:103CAC0070010843386201F000FEB96946F6004223
:103CBC00C0F60002C1F30321515CBB6903F00F0392
:103CCC0001F01F01D25C20FA01F102F01F0040F656
:103CDC006022C2F2004221FA00F0106040F650203F
:103CEC0040F66422C2F20040C2F200420068116049
:0E3CFC00BDE8F84300F0D3BE0120BDE8F88318
:103D0A00F8B50546006801380C463F2807D346F641
:103D1A00102040F61A51C0F6000002F0EFFA686867
:103D2A000438B0F5FE7F07D946F6102040F61B513D
:103D3A00C0F6000002F0E2FAA8680138802807D32A
:103D4A0046F6102040F61C51C0F6000002F0D6FAE2
:103D5A0028690138802807D346F6102040F61D51FD
:103D6A00C0F6000002F0CAFAE8680138802807D3D2
:103D7A0046F6102040F61E51C0F6000002F0BEFAC8
:103D8A0068694FEAB020042807D346F6102040F6A7
:103D9A001F51C0F6000002F0B1FAA86940F40070A1
:103DAA00B0F5007F07D046F610204FF45261C0F6F6
:103DBA00000002F0A3FAE869B0F5005F07D346F6FF
:103DCA00102040F62151C0F6000002F097FA44F2A2
:103DDA000047C5F60207B86A00F00300032804BFCB
:103DEA000120F8BD386820F08050386000F080FE6D
:103DFA0006463868800005D500F07AFE801B022846
:103E0A00F7D958E0B86A95E84E0020F07C7040EA8D
:103E1A000150B8624FF47E40511E00EB43202A69DC
:103E2A006FF35F214FF0FE4311FA80F04FF4FE0169
:103E3A0001EB064101F4FE0103EB0262084402F0C1
:103E4A00FE4108443864F86A696920F4406008430E
:103E5A00F862F86AA96920F400700843F862F86AFF
:103E6A004FF6F87120F48070F862786CEA6988433A
:103E7A00012C40EAC2007864F86A40F48070F86263
:103E8A004FF0807008BF4FF40000002C08BF4FF4B9
:103E9A008000F96A0843F862386840F08050386058
:103EAA0000F026FE04463868800006D400F020FEA2
:0E3EBA00001B0328F7D30320F8BD0020F8BD3D
:103EC8002DE9F04144F200440546C5F60204A76A0C
:103ED800A16AE26AC1F3051602F00101626B494268
:103EE80001EAD2006FF35F30FDF778FC6EB18046CF
:103EF80007F0030002280CD080B92068800612D48D
:103F080042F20047C4F6744719E00020C5E90000F2
:103F180062E04BF62047C4F6BE3710E042F2004795
:103F2800C4F674270BE0206849F20001C0F2D031D2
:103F3800C0F3C10021FA00F0FDF750FC07463046F7
:103F4800FDF74CFC01463846FDF7D2FB0646206BD0
:103F58006FF35F20FDF742FC07464FF0645140467F
:103F6800FDF764FB3946FDF7D9FA4FF07E51FDF7AE
:103F7800D5FA3146FDF75AFB216B8046C1F346203E
:103F8800FDF72CFC4FF07E51FDF7C8FA014640467C
:103F9800FDF7AEFBFDF712FC2860206BC0F306406E
:103FA800FDF71CFC4FF07E51FDF7B8FA014640467C
:103FB800FDF79EFBFDF702FC6860206BC0F306600E
:103FC800FDF70CFC4FF07E51FDF7A8FA014640467C
:0E3FD800FDF78EFBFDF7F2FBA860BDE8F0815F
:103FE60080B501F0EBFC44F2204146F60042C5F6EE
:103FF6000201C0F600020968C1F30211515C01F02A
:064006001F01C84008BDC7
:02400C007047FB
:10400E0010B541F6FF3104460068C4F20001884243
:10401E0008DCA1F58051884217DD01F50061884268
:10402E0011DC15E001F56841884218DD01F580418B
:10403E00884208DC40F20041C4F2010188421CD0E3
:10404E0001F5705117E0013104E0B0F1804F14D04A
:10405E00A1F2FF71884210D001F580610BE041F6AC
:10406E000041C4F20001884207D001F58061884208
:10407E0003D001F5604188422ED1022084F83D0024
:10408E00206841F21112016A114208D1016A40F210
:10409E004442114203D1016821F001010160204622
:1040AE0000F023F80020002184F8481084F83E1018
:1040BE0084F83F1084F8401084F8411084F84210C0
:1040CE0084F8431084F8441084F8451084F84610A0
:1040DE0084F84710A18710BD46F60C0040F24B1134
:0A40EE00C0F6000002F008F9C7E771
:0240F80070470F
:0240FA0070470D
:0240FC0070470B
:0240FE00704709
:02410000704706
:02410200704704
:104104002DE9F04140F6FF7204460068C4F2000253
:1041140090420D460DDD02F57041884213DD0131F8
:10412400884219D001F58061884215D001F570519B
:1041340010E0A2F50061884207DCB0F1804F0BD09B
:10414400A1F2FF3106E0511C00E00131884203D0A6
:1041540001F58061884275D128684FEA301008283B
:1041640007D346F66E2040F22971C0F6000002F033
:10417400C8F8A86840F08000802807D046F66E2072
:1041840040F22A71C0F6000002F0BBF894F83C003B
:1041940001284FF0020008BFBDE8F081012184F836
:1041A4003C1084F83D0040F200482068C4F2010845
:1041B40040F4806141454768866812D169684FEAD6
:1041C4003152102A09D346F66E2040F23C71C0F6F3
:1041D400000002F096F86968206827F4700241EA4A
:1041E400020740F6FF3227F07001C4F200022B6888
:1041F40019439042416009DD02F5744188420FDCA5
:10420400511C884211D001F540610CE0B0F1804F9F
:104214000BD0A2F2FF71884207D001F5806102E061
:10422400404502D00131884204D126F08001AA68B9
:1042340011438160012084F83D00002084F83C0093
:10424400BDE8F08146F66E204FF4E561C0F600004B
:0642540002F057F880E7BC
:02425A007047AB
:02425C007047A9
:02425E007047A7
:024260007047A5
:02426200FEE775
:024264007047A1
:0242660070479F
:1042680080B500F0ECFB00F014F862B60021481E9F
:104278000022FEF7A3FA4FF0FF30FEF7E0FA00F055
:10428800A2FA00F0F2FAFEF724FABDE8084000F0BE
:02429800B6B9B5
:10429A0030B59DB044F618050AA84C21C5F60205AA
:1042AA00FDF775FB02AC20212046FDF770FB0220CA
:1042BA0000F088FF0020019040F22C40C5F6000073
:1042CA00016821F0010101600068012100F001008C
:1042DA000190286861F38F302860286800F4404014
:1042EA000190019828688004FCD501210D91402194
:1042FA000E9100210220CDE9130104211591092113
:10430A000A90CDE91610CDE918000C21CDE91A1052
:10431A004FF440601C900AA800F084FF18B10A20EC
:10432A0000F013F8FBE73F200290201D1C21FDF747
:10433A002EFB01212046FFF7D4FA002804BF1DB046
:0A434A0030BD0A2000F001F8FBE787
:1043540038B50146002000F022F8002808BF38BD17
:1043640041F200040821C5F602042046FFF75AFA78
:1043740046F63C310028C0F60001B0FA80F204BFD2
:1043840046F67441C0F600010846550902F0ADF83E
:0E439400082120462A46BDE83840FFF754BAFB
:1043A20000B540F6182E40F20453C2F2004E40F21D
:1043B200B04CC2F20043C2F2004C1EF800203AB1E7
:1043C20000220EF80020D3F800E04CF820E001E0D3
:1043D2005CF820E071441A688E4502D28A4205D206
:1043E20009E0724507D21A688A4204D919684CF862
:0A43F2002010012000BD002000BDD6
:0243FC00FEE7DA
:0243FE00FEE7D8
:02440000FEE7D5
:02440200FEE7D3
:02440400FEE7D1
:02440600FEE7CF
:02440800FEE7CD
:02440A00FEE7CB
:02440C00FEE7C9
:02440E00FEE7C7
:02441000FEE7C5
:02441200FEE7C3
:02441400FEE7C1
:02441600FEE7BF
:02441800FEE7BD
:02441A00FEE7BB
:02441C00FEE7B9
:02441E00FEE7B7
:02442000FEE7B5
:02442200FEE7B3
:02442400FEE7B1
:02442600FEE7AF
:02442800FEE7AD
:02442A00FEE7AB
:02442C00FEE7A9
:02442E00FEE7A7
:02443000FEE7A5
:02443200FEE7A3
:02443400FEE7A1
:02443600FEE79F
:02443800FEE79D
:02443A00FEE79B
:02443C00FEE799
:02443E00FEE797
:02444000FEE795
:02444200FEE793
:02444400FEE791
:02444600FEE78F
:02444800FEE78D
:02444A00FEE78B
:02444C00FEE789
:02444E00FEE787
:02445000FEE785
:02445200FEE783
:02445400FEE781
:02445600FEE77F
:02445800FEE77D
:02445A00FEE77B
:02445C00FEE779
:02445E00FEE777
:02446000FEE775
:02446200FEE773
:02446400FEE771
:02446600FEE76F
:02446800FEE76D
:02446A00FEE76B
:02446C00FEE769
:02446E00FEE767
:02447000FEE765
:02447200FEE763
:02447400FEE761
:02447600FEE75F
:02447800FEE75D
:02447A00FEE75B
:02447C00FEE759
:02447E00FEE757
:02448000FEE755
:02448200FEE753
:02448400FEE751
:02448600FEE74F
:02448800FEE74D
:02448A00FEE74B
:02448C00FEE749
:02448E00FEE747
:02449000FEE745
:02449200FEE743
:02449400FEE741
:02449600FEE73F
:02449800FEE73D
:02449A00FEE73B
:02449C00FEE739
:02449E00FEE737
:0244A000FEE735
:0244A200FEE733
:0244A400FEE731
:0244A600FEE72F
:0244A800FEE72D
:0244AA00FEE72B
:0244AC00FEE729
:0244AE00FEE727
:0244B000FEE725
:0244B200FEE723
:0244B400FEE721
:0244B600FEE71F
:0244B800FEE71D
:0244BA00FEE71B
:0244BC00FEE719
:0244BE00FEE717
:0244C000FEE715
:0244C200FEE713
:0244C400FEE711
:0244C600FEE70F
:0244C800FEE70D
:0244CA00FEE70B
:0244CC00FEE709
:0244CE00FEE707
:0244D000FEE705
:0244D200FEE703
:0244D400FEE701
:0244D600FEE7FF
:0244D800FEE7FD
:0244DA00FEE7FB
:0244DC00FEE7F9
:0244DE00FEE7F7
:0244E000FEE7F5
:0244E200FEE7F3
:0244E400FEE7F1
:0244E600FEE7EF
:0244E800FEE7ED
:0244EA00FEE7EB
:0244EC00FEE7E9
:0244EE00FEE7E7
:0244F000FEE7E5
:0244F200FEE7E3
:0244F400FEE7E1
:0244F600FEE7DF
:0244F800FEE7DD
:0244FA00FEE7DB
:0244FC00FEE7D9
:0244FE00FEE7D7
:02450000FEE7D4
:02450200FEE7D2
:02450400FEE7D0
:02450600FEE7CE
:02450800FEE7CC
:02450A00FEE7CA
:02450C00FEE7C8
:02450E00FEE7C6
:10451000F8B51D4617460C460646184601F0FDFF45
:10452000002803D407FB04F2A24201D20020F8BD08
:0E4530002846314600F01CF8B0FBF4F0F8BD50
:10453E0040F21451C2F200410868002802BF40F652
:0A454E003C20C2F2004008607047F4
:0E4558007F298EBF6FF00100017001207047B7
:0A456600436A08460121FFF7D0BFA9
:06457000006800F02DB808
:1045760070B5144600EB400040F20022C2F2004241
:1045860002EBC00202F11806D06A02280AD00D46D4
:1045960001280DD020B9304602F00CF8A0420DD209
:1045A600002410E030462246BDE8704002F02EB8E6
:1045B600304601F0FFFFA04238BF04463046294688
:0A45C600224602F001F8204670BD05
:1045D000F8B514460D4640F20021C2F200410646ED
:1045E0000878002808BF01F0B6FFEFF311874FF0FD
:1045F000200181F31188304629462246FFF7BBFF90
:0646000087F31188F8BDEC
:1046060010B58AB044F2E84040F2F044C5F6020024
:10461600C2F20044016841F000510160006800F0F8
:104626000050019047F200400199C4F2000020605A
:10463600204600F0A3FA002818BF01F05DFE40F204
:10464600983040F22031C2F20040C2F20041C4E983
:104656000201204600F070FA002818BF01F04CFE57
:104666000020162101900022CDE902100121CDE99A
:10467600041040F2F04001A9C2F20040FEF745F9ED
:10468600002818BF01F038FE40F2F04001A9C2F23E
:1046960000401022FEF739F9002818BF01F02CFE61
:1046A60040F200000021C2F20040002240F8221031
:1046B6000132402AFAD10021002240F822100132AC
:1046C600402AFAD140F63920C2F20040017801F0C2
:0846D600CC0101700AB010BD17
:1046DE0030B585B044F2E0400024C5F60200C5F6C0
:1046EE0002046D46016841F001010160006800217D
:1046FE0000F001000090009810200090032001901F
:10470E00CDE9021020462946FEF730FF202000900A
:10471E0020462946FEF72AFFFDF7F1FCFDF7B2FD14
:04472E0005B030BDE5
:1047320020B582B040F63925C2F2004529788907B2
:1047420001D0022010E0024640F2F040C2F20040E6
:104752004023009100F032FA08B1012004E02878E9
:0C47620000F0CC002870002002B020BD48
:10476E0040F6392C0821C2F2004C01229CF80000C0
:10477E0000F0FC030020C5F6020001338CF8003077
:04478E00FFF75CB81D
:1047920000B540F63923C2F200431878C10708BFBA
:1047A20000BD00F0FC0C0020C5F60200082100222A
:1047B2000CF1020E83F800E0BDE80040FFF744B8B8
:0C47C20040F2A820C2F20040FEF7E5BC67
:1047CE00F0B585B044F2E0400024C5F60200C5F60F
:1047DE000204082704F5805501686E4641F0010178
:1047EE000160016801F0010100910099016841F03A
:1047FE00100101600068032100F010000090009885
:10480E000120CDE9007000200490CDE90201284678
:10481E003146FEF7ABFE0420009020463146FEF7EF
:10482E00A5FE204631460097FEF7A0FE022000901E
:10483E0020463146FEF79AFE042100222846FEF756
:10484E00FDFF022100222046FEF7F8FF0421002280
:10485E002046FEF7F3FF082100222046FEF7EEFF6A
:04486E0005B0F0BDE4
:1048720030B5B1B002ACB821201DFDF78CF84FF471
:10488200805002902046FBF7C2FF002818BF01F0BB
:1048920035FD44F2E84040F21044C5F60200C2F28F
:1048A2000044016841F480410160006800F48040E6
:1048B200019043F600000199C4F2000020602046F6
:1048C200FEF7DFFF002818BF01F018FD022060602C
:1048D20010200025C4E902054AF644402561C4E9D6
:1048E20005052068E561C4E90955816841F4804104
:1048F2008160204600F08EFA002818BF01F0FEFC0D
:104902002068016841F00101016040F2A820002105
:10491200C2F20040A064846340F21850C2F2004028
:1049220020F8115001318029FAD140F20011002003
:10493200C2F20041002241F822000132402AFAD19B
:1049420040F63820C2F20040017801F0EE01017019
:0449520031B030BD93
:1049560010B540F6382040F63921C2F20040C2F2C6
:104966000041402240F2FF7C0078097840F6FF7350
:1049760022EA8010202222EA411140F21852C2F2A5
:10498600004202EB400E40F20012C2F2004202EB7D
:10499600810100223EF91200C0F3C3642044941C36
:1049A60000B20CEB101080B2984228BF18463E2A7F
:0C49B60041F812002246EDD3002010BD95
:1049C20080B543F600010068C4F20001884218BFB6
:1049D20008BD40F63820C2F200400178CA0700D173
:1049E20008BD01F0EE010022103101700421081F00
:1049F200C5F60200FEF728FFBDE80840FFF7AABF90
:104A020040F26440C2F2004000680069C00711D160
:104A120040F2F040C2F200400068416B89045CBF82
:104A2200406B5FEA80000BD540F2F040C2F20040DA
:104A3200FDF736BF40F26440C2F2004001F05EBBB7
:044A420001F05CBC67
:104A460080B5032000F05CF800F032FF44F2184114
:104A560046F60043C5F60201C0F600030A68C2F333
:104A660003229A5C096801F00F0102F01F02595CEB
:104A7600D04040F6602201F01F01C2F2004220FA47
:104A860001F1116040F66421C2F2004108600F2076
:104A960000F008F800281CBF012008BDFDF767FEDE
:044AA600002008BD27
:104AAA0038B540F63A21C2F200410978E9B1044624
:104ABA0040F66420C2F200404FF47A72B2FBF1F180
:104ACA000068B0FBF1F0FDF7D0FE01250F2C0DD8E0
:104ADA0060B90022501E21460025FDF76EFE40F601
:104AEA005020C2F20040046000E00125284638BD8B
:0C4AFA0040F20450C2F200400068704717
:104B060010B504460338052806D346F654109221FC
:104B1600C0F6000001F0F4FB4EF60C504FF6FF0213
:104B2600CEF200000168114064F30A2141F0806171
:084B360041F0FD71016010BDAA
:104B3E00002804BF0120704710B547F2004104461B
:104B4E000068C4F20001884207D046F2A0604FF41C
:104B5E00B771C0F6000001F0CFFB207918B9607173
:104B6E002046FFF7B5FD02202071002020610121B3
:044B7E00217110BDD4
:104B8200002804BF0120704710B547F200410446D7
:104B92000068C4F20001884207D046F2A0604FF4D8
:104BA200D671C0F6000001F0ADFB02202071204654
:0C4BB200FDF772FE00202061A08010BD05
:104BBE002DE9F0410C4641F0100110299846174698
:104BCE000546069E07D046F2A06040F26621C0F66A
:104BDE00000001F091FB082E05D8012040F21111C2
:104BEE00B040084207D146F2A06040F26721C0F6FD
:104BFE00000001F081FB687901284FF0020008BF28
:104C0E00BDE8F0810121697128712968ECB1E8686D
:104C1E0044F60F52C0F6000242F66B33C0F60003A4
:104C2E00082EC0E90F2344F61F52C0F60002C264DC
:104C3E000A6842F080520A6025D0042E26D0002E3B
:104C4E000CBF01F11402002222E0A86844F6E742EC
:104C5E00C0F6000242F69D03C0F60003082EC0E91E
:104C6E000F2344F6F742C0F60002C2640A6842F40B
:104C7E0080520A6010D0042E11D0002E0CBF01F10C
:104C8E00080200220DE001F11C0201E001F1180200
:104C9E000B6843F0005307E001F1100201E001F14F
:104CAE000C020B6843F400530B6039464346FEF783
:104CBE002FF90021697118B105F11001042206E0E7
:104CCE0004F01000012101FA00F2296800200B689F
:084CDE001A430A60BDE8F081F1
:104CE60010B5846B2046FFF751FD0120207110BDE1
:104CF60010B5846B206940F0040020612046FDF762
:084D060003FE0120207110BD25
:104D0E0010B5846B2046FDF72CFF0120207110BDDD
:104D1E0010B5846B206940F0040020612046FDF739
:084D2E0022FF0120207110BDDD
:104D360040F20F42D0F800C0C4F20202944505DCEE
:104D4600A2F56872944504DD303203E06032944582
:104D560004DC303A944504DD013203E030329445F8
:104D660020DC2F3A944502D0183294451FD10CF01E
:104D7600F8024AF6AB23103ACAF6AA23A2FB03317D
:104D86005F2A46F61043C0F60003C1F302115B5CCE
:104D960040F2FF312CEA0101C36588BF0431816509
:104DA6000846704719329445E1D0183ADDE72CF0F1
:044DB600FF01F4E71E
:104DBA0010B50279511E072988BF10BD45F2574C1C
:104DCA000368C5F6020C0CF2A54E63450EF1440CBD
:104DDA00D4BFACF21154ACF2C144A342CCBF0134EB
:104DEA00273CA34202D01434A34208D10EEB82021C
:104DFA00C0E91B2C012202FA01F1416710BD40F6FD
:0C4E0A00FC0EC4F2020E0EF1440CEFE7A7
:104E160070B5002800F04F8143F600010446006893
:104E2600C4F2000188420FD001F5806188420BD0A0
:104E360001F57441884207D046F256704FF48A71E4
:104E4600C0F6000001F05CFA60680A2800F23581BD
:104E5600012101FA00F040F25551084200F02D817F
:104E6600A0684FEA3010042809D30B2807D046F271
:104E760056704FF48B71C0F6000001F041FAE068FD
:104E86004FEA3020042801D8032807D146F256708D
:104E960040F21711C0F6000001F032FA206940F026
:104EA6000070B0F1007F07D046F256704FF48C7157
:104EB600C0F6000001F024FA606902280FD04CF613
:104EC600C161A0F5FA50C0F20201884207D346F24A
:104ED600567040F21911C0F6000001F011FAA069EF
:104EE60040F40060B0F5006F07D046F256704FF4FC
:104EF6008D71C0F6000001F003FAE06940F400008D
:104F0600B0F5000F07D046F2567040F21B11C0F6FE
:104F1600000001F0F5F9206A40F40050B0F5005F9A
:104F260007D046F256704FF48E71C0F6000001F0BD
:104F3600E7F9606A40F48040B0F5804F07D046F24A
:104F4600567040F21D11C0F6000001F0D9F9A06AB2
:104F560040F00040B0F1004F07D046F256704FF4D3
:104F66008F71C0F6000001F0CBF994F84D0020B91E
:104F760084F84C002046FDF74AFB022084F84D00D9
:104F860020680168C90703D0016821F001010160AA
:104F96000021016561680A2951D801228A4012F46C
:104FA6008A6F4CD06069022802D1002302222CE0CD
:104FB600D4E90206303820F08000B0FA80F04509C6
:104FC6004FF48050FCF76DF92169B1F1007F03D1F0
:104FD6004FF48071E94006E002212022EA40002ECB
:104FE60008BF01215143B0FBF1F0616900EB80007D
:104FF6004000B0FBF1F04CF6CD410530CCF6CC418B
:10500600A0FB01010A09C1F3C003511EB1FA81F1E7
:1050160018464909002B18BF0120084247D1FF2A2C
:1050260045D8D4E900011B06002A066D6FF3184621
:1050360008BF4FF0807343EA02423243026549F2E9
:105046004003026DCFF6FF531A40D4E902361A43E5
:10505600A36932431A43D4E90863324326691A43E3
:1050660032430A4342F00102026540F6F872826159
:10507600026822F480320260C268E36922F4000208
:105086001A430A29C2600CD8012202FA01F111F46E
:105096008A6F1FBFC16821F00041A26A114318BF81
:1050A600C16000202065012184F84D1070BD206D7F
:1050B60040F010002065012070BD46F2567040F2A7
:0C50C6001511C0F6000001F01BF9C9E64E
:1050D200806B01688A6822F440428A60002141861E
:1050E2004187012180F84D10016D41F008010165F1
:0450F200FEF7FABB10
:1050F60010B504460120002918BF002A00D110BDB2
:1051060094F84C00012804BF022010BD012084F849
:105116004C0094F84D0001282AD1042084F84D0053
:105126000020206561638C46228745F2AB116287B9
:10513600C0F60001E06243F6E5022086C0F60002F2
:105146006086A06CC0E90F1245F2D3016246C0F634
:105156000001C1642168238F3031FDF7DDFE48B1BF
:10516600206D40F008002065012084F84D0015E010
:10517600022013E020688168490403D4816841F461
:10518600804181600168C90703D1016841F00101CE
:105196000160016841F4007101600020002184F87B
:0451A6004C1010BDDC
:1051AA00C169806B002918BFFFF706BC01688A68CD
:1051BA0022F480428A6000214187012180F84D1043
:0451CA00FFF7FABB36
:1051CE0038B504460138022807D346F6B21040F22D
:1051DE003F11C0F6000001F08FF844F60C05C5F63D
:1051EE00020528684007286805D400F00700001B58
:1051FE0018BF012038BD20F0070020432860FFF7BC
:10520E0075FC044655F8080C800407D4FFF76EFCB5
:10521E00001BB0F57A7FF5D9012038BD002038BDCE
:10522E00F8B5002800F09A810446006858B110F0D5
:10523E003F0108D146F2B17040F29D11C0F6000058
:10524E0001F05AF8206844F20046C007C5F602067F
:10525E0022D0606868B1B0F5803F18BFB0F5A02FBE
:10526E0007D046F2B1704FF4D171C0F6000001F0D4
:10527E0043F8306900F03801B06A102905D01829BA
:10528E0040D100F0030002283CD13068800303D5E2
:10529E006068002800F062812078800740F1AD80C0
:1052AE00E06819286DD8012101FA00F001F10231F0
:1052BE00084266D02069802807D346F2B17040F2CA
:1052CE00D711C0F6000001F017F8306910F0380160
:1052DE00B06A28D0182908BF5FEA807023D0E06832
:1052EE003168E8B321F0190108433060FFF7FEFB87
:1052FE000546306840071DD4FFF7F8FB401B022817
:10530E00F7D99DE16068002844D0B0F5A02F5AD09F
:10531E00B0F5803F5BD0306820F48030306030686C
:10532E0020F4802056E03068400703D5E06800285E
:10533E0000F01481FDF738FA41F20301884208D8D3
:10534E0020697168402821F47C3153D141F400303A
:10535E0052E07068216920F0FE4040EA01604BE0A7
:10536E0021F001003060FFF7C1FB054630684007B1
:10537E0043D5FFF7BBFB401B02284FF00300F5D9C6
:10538E00F8BD46F2B1704FF4EB71C0F6000000F0BC
:10539E00B3FF8FE7306820F480303060306820F43F
:1053AE0080203060FFF7A2FB054641F28837306857
:1053BE0080037FF571AFFFF799FB401BB8424FF0AA
:1053CE000300F4D9F8BD306840F4802030603068B6
:1053DE0040F480303060FFF789FB054641F2883794
:1053EE00306880033FF558AFFFF780FB401BB84293
:1053FE00F6D925E141EA003070602078C00668D504
:10540E00E06940F08000802807D046F2B17040F28B
:10541E001921C0F6000000F06FFF206A402807D364
:10542E0046F2B17040F21A21C0F6000000F064FF9F
:10543E00306900F03801B06A082905D0182919D151
:10544E0000F00300012815D13068C00503D5E069CE
:10545E00802840F08380FDF7A7F941F203018842CE
:10546E001BD8206A7168202821F0F8412ED141F016
:10547E0080402DE0E0690028306816D040F08000B2
:10548E003060FFF733FB05463068C005E3D4FFF705
:10549E002DFB401B0228F7D9D2E0F068216A20F0DC
:1054AE007C5040EA0160F06013E020F08000306034
:1054BE00FFF71CFB05463068C0050AD5FFF716FB43
:1054CE00401B02284FF00300F5D9F8BD41EA806079
:1054DE0070602078000743D4207880065ED4207850
:1054EE0040077AD4606A032808D346F2B17040F2BE
:1054FE00E221C0F6000000F0FFFE606A60B3316981
:10550E0001F03801182940F0C1800128B16A306BD2
:10551E0024D001F00302A36A9A421FD1C1F30511F0
:10552E00E26A91421AD10146226B6FF35F21013A72
:10553E00914213D1616BC0F3462201398A420DD1DB
:10554E00A16BC0F3064201398A4207D1E16BC0F369
:10555E0006600139884201D10020F8BD0120F8BD56
:10556E006069022808D346F2B17040F25B21C0F6A2
:10557E00000000F0C1FE60690028706F51D040F04D
:10558E0001007067FFF7B2FA0546706F8007A3D46B
:10559E00FFF7ACFA401B0228F7D951E0A0690228A8
:1055AE0008D346F2B17040F28621C0F6000000F03A
:1055BE00A3FEA0690028306856D040F480503060B9
:1055CE00FFF794FA0546306880043FF588AFFFF781
:1055DE008DFA401B0228F6D932E0A068052805D8BE
:1055EE00012101FA00F010F0230F07D146F2B1703D
:1055FE004FF42C71C0F6000000F07EFED6F80004C9
:10560E0040F48070C6F80004FFF770FA0546D6F82D
:10561E000004C00516D4FFF769FA401B6428F6D9BA
:10562E000EE020F001007067FFF760FA0546706F1C
:10563E0080077FF551AFFFF759FA401B0228F6D9C4
:10564E000320F8BDA068002800F09B80052800F01C
:10565E00B180012800F0B280306F20F00100306779
:10566E00306F20F00400ACE020F480503060FFF783
:10567E003DFA0546306880047FF531AFFFF736FA04
:10568E00401B02284FF00300F4D9F8BD022865D163
:10569E00A06A042807D346F2B17040F2EB21C0F69F
:1056AE00000000F029FEE06A01383F2807D346F2D9
:1056BE00B1704FF43B71C0F6000000F01DFE206B80
:1056CE000438B0F5FE7F07D946F2B17040F2ED21F5
:1056DE00C0F6000000F010FE606B0138802807D382
:1056EE0046F2B17040F2EE21C0F6000000F004FE6A
:1056FE00A06B0138802807D346F2B17040F2EF213B
:10570E00C0F6000000F0F8FDE06B0138802807D3EA
:10571E0046F2B1704FF43C71C0F6000000F0ECFDA3
:10572E00A06CB0F5005F07D346F2B17040F2F121E4
:10573E00C0F6000000F0E0FD306820F080703060B0
:10574E00FFF7D4F90546306880014CD5FFF7CEF946
:10575E00401B02284FF00300F5D9F8BD306820F049
:10576E0080703060FFF7C2F90446306880017FF523
:10577E00F3AEFFF7BBF9001B02284FF00300F4D97C
:10578E00F8BD306F20F001003067306F20F004005C
:10579E003067FFF7ABF9054641F28837306F800767
:1057AE007FF5A0AEFFF7A2F9401BB8424FF0030001
